:400000000010002011000000510700005107000010B500F0A5FBC04670B5154C23688022D20213432360182000F036FC2268114B13402360104A114B1A602022104B1A60B7
:40004000103A104B1A60822212060F4B1A60002525600E4B0E4A13600E4A13600E49092000F0D8FB092000F0BFFB0C4B1D6070BD00010B40FFFFFBFF0600008004010B4007
:400080000C0202401C02024008010B400E0000800000024040000240A90A00000C020B4010B572B600240FE02C486200131959000B00411889881A5AC31858880004104388
:4000C00000F0F2F80134E4B2012CEDD9234801000C315C3000F0CEF8214A224B1A6099231B04214A13602149214A1160214A13602149224A1160224A1360AA2212062149DA
:400100000A6021490B60214B1A6021490B783C22934314221343DBB20B701E4A117816230B43DBB21370FF231B4A13601B4A13601B4A13601B4A13601B4A13601B4A13602B
:40014000F3221B4B1A601B4A1B4B1A60F0221B4B1A60FFF761FF00F0BDF810BD70130000EEEE00000C00014000500F40000055FF08500F4010500F400000A88A18500F40AD
:4001800020500F4028500F4030500F4038500F4001700F4000700F4000000440180004400001044018010440000204401802044000030440A40D0000080304401803044008
:4001C00010B5064C2378002B07D1054B002B02D0044800E000BF0123237010BD40010020000000005C120000084B10B5002B03D00749084800E000BF07480368002B00D1B4
:4002000010BD064B002BFBD09847F9E700000000440100205C120000C00000200000000030B5C1B062B600F0C3FF00F01FFD00F049FD222000F0DCFD6A46FF21FF2000F0EC
:40024000E3FD002413E0212C0FD8250023006B445B78C02B02D1200000F04EF86D446B78D12B02D1200000F061F90134E4B27D2CE9D9E6E7F0B50025002711E0BB00C658EA
:40028000F3B2FF22964308E06A008A181478A419527822700135013BDBB2002BF4D10137062FEBD9F0BDC04610B50A00002100F0CDFF10BD064B1B68002803D08022120631
:4002C000134301E05B005B08014A13607047C04680031A4010B58822D202054B1A608022D203044B1A600120FFF7E4FF10BDC0468000104000031A40212800D909E18000DE
:40030000844B1B589F460422834B1A6001E1834A116860230B43136001227F4B1A60F8E07E4A1368C021C9000B43136001227A4B1A60EEE0794A1368C021C9010B431360F5
:400340000122754B1A60E4E0744A1368C021C9020B4313600122704B1A60DAE06F4A1368C021C9030B43136001226B4B1A60D0E00822694B1A60CCE0684A1368C021C9051F
:400380000B4313600122644B1A60C2E0644A116806230B43136001225F4B1A60B9E0604A116860230B43136001225B4B1A60B0E05B4A1368C021C9000B4313600122564B14
:4003C0001A60A6E0564A1368C021C9010B4313600122514B1A609CE0514A1368C021C9020B43136001224C4B1A6092E04C4A1368C021C9030B4313600122474B1A6088E082
:40040000474A1368C021C9040B4313600122424B1A607EE0424A1368C021C9050B43136001223D4B1A6074E03E4A1368C021C9020B4313600122384B1A606AE0394A1368F1
:40044000C021C9030B4313600122334B1A6060E0344A1368C021C9040B43136001222E4B1A6056E02F4A1368C021C9050B4313600122294B1A604CE02B4A116806230B43F9
:4004800013600122244B1A6043E0274A116860230B4313600122204B1A603AE0224A1368C021C9000B43136001221B4B1A6030E01D4A1368C021C9010B4313600122164B13
:4004C0001A6026E0184A1368C021C9020B4313600122114B1A601CE0134A1368C021C9030B43136001220C4B1A6012E00E4A1368C021C9040B4313600122074B1A6008E0F8
:40050000094A1368C021C9050B4313600122024B1A607047601200008000104004000140080001400C00014000000140212800D9F4E080007A4B1B589F460422794B1A6087
:40054000ECE0794A136860218B4313600122754B1A60E3E0744A1168744B0B4013600122704B1A60DAE0704A1168714B0B40136001226C4B1A60D1E06B4A11686D4B0B40E6
:4005800013600122674B1A60C8E0674A11686A4B0B4013600122634B1A60BFE00822614B1A60BBE0604A1168644B0B40136001225C4B1A60B2E0624A136806218B4313606A
:4005C0000122584B1A60A9E05D4A136860218B4313600122534B1A60A0E0594A1168534B0B40136001224F4B1A6097E0544A11684F4B0B40136001224A4B1A608EE0504AC4
:4006000011684C4B0B4013600122464B1A6085E04B4A1168484B0B4013600122414B1A607CE0474A1168474B0B40136001223D4B1A6073E0424A1168404B0B401360012232
:40064000384B1A606AE0404A11683A4B0B4013600122344B1A6061E03B4A1168364B0B40136001222F4B1A6058E0374A1168354B0B40136001222B4B1A604FE0324A116895
:400680002E4B0B4013600122264B1A6046E02F4A136806218B4313600122224B1A603DE02A4A136860218B43136001221D4B1A6034E0264A11681D4B0B4013600122194BEC
:4006C0001A602BE0214A1168194B0B4013600122144B1A6022E01D4A1168164B0B4013600122104B1A6019E0184A1168124B0B40136001220B4B1A6010E0144A1168114B75
:400700000B4013600122074B1A6007E00F4A11680A4B0B4013600122024B1A607047C046E81200008400104004000140FFF9FFFFFF9FFFFFFFFFF9FFFFFF9FFFFFFFFF9FC6
:4007400008000140FFFFFFF90C0001400000014010B500F04FFD03680C2B00D1FEE7FEE770B50F4E0F4D13E029686B68AC68002202E001C901C30432A242FAD1E86800223C
:4007800002E0002102C304328242FAD11035013E002EE9D100F034FDFFF742FDFEE7C046010000003C14000010B500230AE0032B03D89A000949505800E009489900094A22
:4007C000885001332F2BF2D9FFF76AFC8022D205116801230B43136010BDC0460000000051070000000000201F2318401E3B8340014A13607047C04600E100E01F231840BE
:400800001E3B8340014A13607047C04680E100E001BE704770B504000D001F2802D90020FFF7F6FF1034A40080239B059C4664442068256070BDC04670B504000E000329AF
:4008400002D90020FFF7E4FF1F2C02D90020FFF7DFFF03252540ED00063500F0C3FCA408A400074B9C46644421680323AB4099430B003100A9401943216000F0B7FC70BDB2
:4008800000E400E010B5034B1B7B584300F0A0FC10BDC046C4000020F0B557464E46C0B483B0040000F09EFC0190E71E2D2F74D83F4B1B78DBB29C4208D83E4B1B78DBB293
:4008C0009A463D4B1B78DBB2994631E03B4B1B78DBB29C4208D83A4B1B78DBB29A46394B1B78DBB2994623E0374B1B78DBB29C4208D8364B1B78DBB29A46354B1B78DBB290
:40090000994615E0334B1B78DBB29C4208D8324B1B78DBB29A46314B1B78DBB2994607E02F4B1B78DBB29A462E4B1B78DBB299462D4BDE5D2F2E09D92A2C07D919222B4BDD
:400940001A60052000F044FC192503E0274B1D683F231D40B54206D9234BDA5D234B1A60052000F035FC1F4B9C4664442378DBB21F4A13601F4B52461A601F4B4A461A6040
:400980000520FFF77FFFB5420AD2174BDA5D174B1A60052000F01CFC02E00020FFF738FF019800F023FC03B00CBC91469A46F0BDC0F1FF0FC1F1FF0FC2F1FF0FC3F1FF0F71
:4009C000C4F1FF0FC5F1FF0FC6F1FF0FC7F1FF0FC8F1FF0FC9F1FF0FCAF1FF0FCBF1FF0FCCF1FF0FCDF1FF0FE81300002CFF0B4028FF0B401CFF0B4020FF0B40034B1868AB
:400A0000C0231B02184000D00120704700010B4010B500F0E7FB044A1368C02109020B43136000F0E3FB10BD00010B4010B500F0D9FB08490A68084B1A408024E40122438F
:400A40000A600A6813408022120213430B6000F0CDFB10BD00010B40FF3FFFFF70B5050000F0C0FB0400FFF7C9FF002803D0FFF7DDFF012100E0002108482840084A1568B5
:400A8000084B2B40184310601368012901D1FFF7BFFF200000F0AAFB70BDC0460404040010020B40FBFBFBFF10B5244B1B685B0715D5234B1B685B070ED5224BD969042035
:400AC00001401F4C22688A432260DA698243DA611B69002B00D098470420FFF7BFFF174B1B685B0518D5164B1B685B0510D5154BD9698022D2001140114802688A43026044
:400B0000D969114A0A40DA615B69002B00D098478020C000FFF7A2FF084B1B685B030CD5074B1B685B0304D5064B9B69002B00D098478020C002FFF791FF10BD10020B409C
:400B4000D80000205C010020FFFBFFFF10B503210E20FFF771FE23490E20FFF75BFE0122214B1A60214B1B68002B01DA204900E02049214A13680B431360204A204B1A60FD
:400B8000204A214B1A600023204A1360204A21490A6021490A6021490A688020400202430A601F4A13601F4A136001331E4A136002211E4A11601E4908681E4A02401343CC
:400BC0000B6000230BE09A001B495018002101605C001A4821521A481A4950500133002BF1D010BD8D0C000020001A4080031A40400210534002005300001A408C00008081
:400C000004001A400000FF0718001A401C001A400200020010001A4014001A4000031A4028021A4038021A4018021A40000F1A4030001A40FFFFFFDF80001A409401002045
:400C4000204E00009801002010B5074B1B68002B08DB054A1368802109060B4313600A20FFF710FE10BDC04600001A4010B5064B1B78002B04D1FFF769FF0122024B1A700E
:400C8000FFF7E2FF10BDC0467C010020014B1A681A60704710021A4010B50B20FFF7A4FD10BDC04610B500F03BF810BD10B5044A1368802109060B431360FFF7EDFF10BDC5
:400CC0000000074010B5064B1B78002B04D1FFF7E9FF0122024B1A70FFF7E8FF10BDC046800100200A4B1B68DB050DD5094B1B685B0409D4064B1968074A0A401A601A68C5
:400D0000802149000A431A600222044B1A6070470000074060000740FFFEFFFF6C00074010B500241C4B1C601C4A1D4B1A601D4A11680C230B4313601B4B1C4A13601C4A39
:400D400014601C491C4A11601C4A13601C4B1C600B20FFF753FD03210B20FFF76DFD19490B20FFF757FD184B1C60184B1C605222FF32174B1A60174B1C60174B1C60174BB3
:400D80001C60174B1C70174B1C70174B1C80174B00221A7010BDC046000007400008004060000740700007400701008000030740040307401000FE0010030740000207403E
:400DC00004020740390E0000C80E0740880E0740480F0740080F0740C80F0740880F0740AA0100209C010020A8010020AB010020030004490A68FF2082435B0018401043A4
:400E0000086070471003074070B506000D00141E0BD00B20FFF7F2FC044B1C60044B1E80044B1D800B20FFF7DFFC70BDA4010020A00100209E01002070B5AC4B1B68002B09
:400E400000D09847AA4B1C88AA4B1D68AA4B1E680223FF331D4242D0A84A13685B005B081360A74B1B789B0620D5A54A137820218B431370117810230B43DBB21370A14BA2
:400E80001B68DB060CD4A04B1A78994B1B889A420CD09B4A117808230B43DBB2137005E0974A117802230B43DBB21370974A1168974B0B4013600023964A1360914A1360AB
:400EC0009549964A116096498A4A1160954A13708A4A1368802109060B43136003E1F30602D50022904B1A600A23334200D190E08E4B1B685B0756D58D4B1B68894A1278CE
:400F0000002A16D0012A47D18A4A1288002A0DD00121894A1160894A12681219DBB213700134844A1388013B138038E0FFF7DAFE35E0834A128893422BD201217E4A1160FF
:400F4000804A1288934202D2D21A92B200E0002278490A80072A03D80121724A117014E0082A09D169490A68A020000202430A600021684A116008E064490A68802080017B
:400F800002430A600821634A11605F4A13701C0005E0FFF7A7FE02E00020FFF739FC04225E4B1A6035E0594B1B689B0431D5B3070DD5654B1B680F211940544A1068544B0F
:400FC00003401360012014E00821012011E0594B1988083989B219800829F5D8002008E0564B1B681B19524A1268D2B21A70013401390029F4D1002808D1444A1368802107
:4010000009020B4313600022424B1A600C22434B1A60B30746D5EB0615D500233D4A1360384A1360384B1B789C4201D1022300E00A232B40324A11780B4320218B4313707B
:401040000022384B1A706B062AD52D4A117820230B43DBB213702C4B1B781C003B4A1268D20612D5364A1288D31A324A1380384B1A68802149020A431A601968354A0A4034
:401080001A6010221F4B1A6002E00422214B1A600123314A13602249164A1160264A1360144B1D60144B1B685B071CD5214B1B88002B0CD0214B1B681B191B78DBB2274AA6
:4010C000136001341B4A1388013B138002E0FF22224B1A60224B1B680F221340082BE5D10132204B1A60024B1C8070BD84010020A8010020400F0740000E07400000074064
:401100009C010020880F0740AB01002060000740FF5FFFFFC80F0740ED0F0000C00F0740FF0F0000AA010020880E0740CC0F074040030740880100206C000740A401002092
:40114000A00100209E010020080307406400074004020740FFFFFEFF800E07404002074008020740800F07400222064B1A6080221206054B1A600022044B1A600332044B43
:401180001A6070478C0100200000104004001040080F1040044A1168044B1B680B43802109010B4313607047040010408C01002010B5064B1B79002B04D1FFF7D5FF0122A4
:4011C000024B1A71FFF7E6FF10BDC0468C0100200230800804D0C0460138FDD1C046C046C0467047EFF3108072B6704780F310887047C046014B18687047C0463C01002059
:401200000E4B70B500251E000D4CE41AA410A54204D0AB00F35898470135F8E700F0FCF8084B00251E00084CE41AA410A54204D0AB00F35898470135F8E770BD24140000B3
:4012400024140000241400002C14000003008218934202D019700133FAE7704700000000060300000E0300002003000034030000480300005C030000700300007803000019
:401280008C0300009E030000B0030000C4030000D8030000EC03000000040000140400001205000012050000280400003C040000500400006404000012050000120500001A
:4012C0001205000012050000780400008A0400009C040000B0040000C4040000D8040000EC040000000500003A050000420500005405000066050000780500008A05000073
:401300009C050000A4050000B6050000C8050000DA050000EC050000FE0500001006000022060000340600001C0700001C07000046060000580600006A0600007C060000AE
:401340001C0700001C0700001C0700001C0700008E060000A0060000B2060000C4060000D6060000E8060000FA0600000C07000000300F40000400400F40000430013401CC
:4013800036013E5158045F01180119201A801B028702AA40AD20B401570867808740D440D880E2105B40634093409B40AB40AF48D480D840EEC050406102D404D802610252
:4013C000A102B440B502D802EC08000006300F4005310F4003330F4006400F4009410F4004420F4006430F40030405060708090A0B0C0E0F101112131415161718191B1C7B
:401400001D1E1F2021222325262728292A2B2E2F3031323334354300F8B5C046F8BC08BC9E467047E9010000A9070000F8B5C046F8BC08BC9E467047C10100005014000099
:40144000C000002080000000700000000000000000000000010000000000E02EC05D00001800000000366E01040404000000000000000000000000000000000000000000A7
:401480000000000000000000000000001614000000000000000000000000000000000000000000000000000000000000000000000000000000000000000000000000000002
:4014C000000000000000000000000000DC000020000000000000000000000000000000000000000000000000000000000000000000000000000000000000000000000000F0
:4015000000000000000000000000000000000000000000000000000000000000000000000000000000000000000000000000000000000000000000000000000000000000AB
:40154000000000000000000000000000000000000000000000000000000000000000000000000000000000000000000000000000000000000000000000000000000000006B
:40158000000000000000000000000000000000000000000000000000000000000000000000000000000000000000000000000000000000000000000000000000000000002B
:4015C00000000000000000000000000000000000000000000000000000000000000000000000000000000000000000000000000000000000000000000000000000000000EB
:0200000490303A
:02000000043FBB
:0200000490402A
:200000000000000000000000000000000000000000000000000000000000000000000000E0
:0200000490501A
:0C000000000204DB1193110104E115D291
:0200000490600A
:0100000001FE
:00000001FF