:400000000010002011000000190600001906000010B500F009FBC04670B5154C23688022D20213432360182000F09AFB2268114B13402360104A114B1A602022104B1A6062
:40004000103A104B1A60822212060F4B1A60002525600E4B0E4A13600E4A13600E49092000F03CFB092000F023FB0C4B1D6070BD00010B40FFFFFBFF0600008004010B403F
:400080000C0202401C02024008010B400E0000800000024040000240710900000C020B4010B572B600240FE02C486200131959000B00411889881A5AC318588800041043C1
:4000C00000F0F2F80134E4B2012CEDD9234801000C315C3000F0CEF8214A224B1A6099231B04214A13602149214A1160214A13602149224A1160224A1360AA2212062149DA
:400100000A6021490B60214B1A6021490B783C22934314221343DBB20B701E4A117816230B43DBB21370FF231B4A13601B4A13601B4A13601B4A13601B4A13601B4A13602B
:40014000F3221B4B1A601B4A1B4B1A60F0221B4B1A60FFF761FF00F0BDF810BD38120000EEEE00000C00014000500F40000055FF08500F4010500F400000A88A18500F40E6
:4001800020500F4028500F4030500F4038500F4001700F4000700F4000000440180004400001044018010440000204401802044000030440A40D0000080304401803044008
:4001C00010B5064C2378002B07D1054B002B02D0044800E000BF0123237010BD400100200000000024110000084B10B5002B03D00749084800E000BF07480368002B00D1ED
:4002000010BD064B002BFBD09847F9E7000000004401002024110000C00000200000000030B5C1B062B600F027FF00F083FC00F0ADFC662000F040FD6A46FF21FF2000F053
:4002400047FD002413E0212C0FD8250023006B445B78C02B02D1200000F04EF86D446B78D12B02D1200000F013F90134E4B27D2CE9D9E6E7F0B50025002711E0BB00C658D4
:40028000F3B2FF22964308E06A008A181478A419527822700135013BDBB2002BF4D10137062FEBD9F0BDC04610B50A00002100F031FF10BD064B1B68002803D080221206CD
:4002C000134301E05B005B08014A13607047C04680031A4010B5054A054B1A608022D203044B1A600120FFF7E5FF10BD014004008000104000031A40212800D9BBE080001C
:400300005D4B1B589F4604225C4B1A60B3E05C4A116860230B431360ADE0594A1368C021C9000B431360A6E0554A1368C021C9010B4313609FE0524A1368C021C9020B43CE
:40034000136098E04E4A1368C021C9030B43136091E00822494B1A608DE0494A1368C021C9050B43136086E0464A116806230B43136080E0434A116860230B4313607AE020
:40038000404A1368C021C9000B43136073E03D4A1368C021C9010B4313606CE0394A1368C021C9020B43136065E0364A1368C021C9030B4313605EE0324A1368C021C904C4
:4003C0000B43136057E02F4A1368C021C9050B43136050E02C4A1368C021C9020B43136049E0294A1368C021C9030B43136042E0254A1368C021C9040B4313603BE0224A8C
:400400001368C021C9050B43136034E01F4A116806230B4313602EE01C4A116860230B43136028E0194A1368C021C9000B43136021E0164A1368C021C9010B4313601AE02D
:40044000124A1368C021C9020B43136013E00F4A1368C021C9030B4313600CE00B4A1368C021C9040B43136005E0084A1368C021C9050B43136070472811000080001040F6
:4004800004000140080001400C00014000000140212800D9A6E08000534B1B589F460422524B1A609EE0524A136860218B43136098E04F4A11684F4B0B40136092E04C4A84
:4004C00011684D4B0B4013608CE0494A11684B4B0B40136086E0464A1168494B0B40136080E00822414B1A607CE0414A1168454B0B40136076E0444A136806218B4313609B
:4005000070E0414A136860218B4313606AE03E4A1168384B0B40136064E03B4A1168364B0B4013605EE0384A1168344B0B40136058E0354A1168324B0B40136052E0324A07
:400540001168324B0B4013604CE02F4A11682D4B0B40136046E02E4A1168284B0B40136040E02B4A1168264B0B4013603AE0284A1168264B0B40136034E0254A1168214B52
:400580000B4013602EE0234A136806218B43136028E0204A136860218B43136022E01D4A1168144B0B4013601CE01A4A1168124B0B40136016E0174A1168104B0B40136094
:4005C00010E0144A11680E4B0B4013600AE0114A11680E4B0B40136004E00E4A1168094B0B4013607047C046B01100008400104004000140FFF9FFFFFF9FFFFFFFFFF9FF62
:40060000FFFF9FFFFFFFFF9F08000140FFFFFFF90C0001400000014010B500F04FFD03680C2B00D1FEE7FEE770B50F4E0F4D13E029686B68AC68002202E001C901C3043266
:40064000A242FAD1E868002202E0002102C304328242FAD11035013E002EE9D100F034FDFFF7DEFDFEE7C046010000000413000010B500230AE0032B03D89A0009495058FC
:4006800000E009489900094A885001332F2BF2D9FFF706FD8022D205116801230B43136010BDC0460000000019060000000000201F2318401E3B8340014A13607047C046D9
:4006C00000E100E01F2318401E3B8340014A13607047C04680E100E001BE704770B504000D001F2802D90020FFF7F6FF1034A40080239B059C4664442068256070BDC046F9
:4007000070B504000E00032902D90020FFF7E4FF1F2C02D90020FFF7DFFF03252540ED00063500F0C3FCA408A400074B9C46644421680323AB4099430B003100A9401943E1
:40074000216000F0B7FC70BD00E400E010B5034B1B7B584300F0A0FC10BDC046C4000020F0B557464E46C0B483B0040000F09EFC0190E71E2D2F74D83F4B1B78DBB29C420C
:4007800008D83E4B1B78DBB29A463D4B1B78DBB2994631E03B4B1B78DBB29C4208D83A4B1B78DBB29A46394B1B78DBB2994623E0374B1B78DBB29C4208D8364B1B78DBB2C8
:4007C0009A46354B1B78DBB2994615E0334B1B78DBB29C4208D8324B1B78DBB29A46314B1B78DBB2994607E02F4B1B78DBB29A462E4B1B78DBB299462D4BDE5D2F2E09D986
:400800002A2C07D919222B4B1A60052000F044FC192503E0274B1D683F231D40B54206D9234BDA5D234B1A60052000F035FC1F4B9C4664442378DBB21F4A13601F4B524688
:400840001A601F4B4A461A600520FFF77FFFB5420AD2174BDA5D174B1A60052000F01CFC02E00020FFF738FF019800F023FC03B00CBC91469A46F0BDC0F1FF0FC1F1FF0F47
:40088000C2F1FF0FC3F1FF0FC4F1FF0FC5F1FF0FC6F1FF0FC7F1FF0FC8F1FF0FC9F1FF0FCAF1FF0FCBF1FF0FCCF1FF0FCDF1FF0FB01200002CFF0B4028FF0B401CFF0B40DA
:4008C00020FF0B40034B1868C0231B02184000D00120704700010B4010B500F0E7FB044A1368C02109020B43136000F0E3FB10BD00010B4010B500F0D9FB08490A68084BE1
:400900001A408024E40122430A600A6813408022120213430B6000F0CDFB10BD00010B40FF3FFFFF70B5050000F0C0FB0400FFF7C9FF002803D0FFF7DDFF012100E0002135
:4009400008482840084A1568084B2B40184310601368012901D1FFF7BFFF200000F0AAFB70BDC0460404040010020B40FBFBFBFF10B5244B1B685B0715D5234B1B685B07A5
:400980000ED5224BD969042001401F4C22688A432260DA698243DA611B69002B00D098470420FFF7BFFF174B1B685B0518D5164B1B685B0510D5154BD9698022D2001140C1
:4009C000114802688A430260D969114A0A40DA615B69002B00D098478020C000FFF7A2FF084B1B685B030CD5074B1B685B0304D5064B9B69002B00D098478020C002FFF7A6
:400A000091FF10BD10020B40D80000205C010020FFFBFFFF10B503210E20FFF771FE23490E20FFF75BFE0122214B1A60214B1B68002B01DA204900E02049214A13680B4346
:400A40001360204A204B1A60204A214B1A600023204A1360204A21490A6021490A6021490A688020400202430A601F4A13601F4A136001331E4A136002211E4A11601E49BB
:400A800008681E4A024013430B6000230BE09A001B495018002101605C001A4821521A481A4950500133002BF1D010BD550B000020001A4080031A404002105340020053F1
:400AC00000001A408C00008004001A400000FF0718001A401C001A400200020010001A4014001A4000031A4028021A4038021A4018021A40000F1A4030001A40FFFFFFDFB0
:400B000080001A4094010020204E00009801002010B5074B1B68002B08DB054A1368802109060B4313600A20FFF710FE10BDC04600001A4010B5064B1B78002B04D1FFF722
:400B400069FF0122024B1A70FFF7E2FF10BDC0467C010020014B1A681A60704710021A4010B50B20FFF7A4FD10BDC04610B500F03BF810BD10B5044A1368802109060B43C6
:400B80001360FFF7EDFF10BD0000074010B5064B1B78002B04D1FFF7E9FF0122024B1A70FFF7E8FF10BDC046800100200A4B1B68DB050DD5094B1B685B0409D4064B19687B
:400BC000074A0A401A601A68802149000A431A600222044B1A6070470000074060000740FFFEFFFF6C00074010B500241C4B1C601C4A1D4B1A601D4A11680C230B43136089
:400C00001B4B1C4A13601C4A14601C491C4A11601C4A13601C4B1C600B20FFF753FD03210B20FFF76DFD19490B20FFF757FD184B1C60184B1C605222FF32174B1A60174B0B
:400C40001C60174B1C60174B1C60174B1C70174B1C70174B1C80174B00221A7010BDC046000007400008004060000740700007400701008000030740040307401000FE0066
:400C8000100307400002074004020740010D0000C80E0740880E0740480F0740080F0740C80F0740880F0740AA0100209C010020A8010020AB010020030004490A68FF2046
:400CC00082435B0018401043086070471003074070B506000D00141E0BD00B20FFF7F2FC044B1C60044B1E80044B1D800B20FFF7DFFC70BDA4010020A00100209E0100204A
:400D000070B5AC4B1B68002B00D09847AA4B1C88AA4B1D68AA4B1E680223FF331D4242D0A84A13685B005B081360A74B1B789B0620D5A54A137820218B4313701178102363
:400D40000B43DBB21370A14B1B68DB060CD4A04B1A78994B1B889A420CD09B4A117808230B43DBB2137005E0974A117802230B43DBB21370974A1168974B0B401360002343
:400D8000964A1360914A13609549964A116096498A4A1160954A13708A4A1368802109060B43136003E1F30602D50022904B1A600A23334200D190E08E4B1B685B0756D526
:400DC0008D4B1B68894A1278002A16D0012A47D18A4A1288002A0DD00121894A1160894A12681219DBB213700134844A1388013B138038E0FFF7DAFE35E0834A12889342E1
:400E00002BD201217E4A1160804A1288934202D2D21A92B200E0002278490A80072A03D80121724A117014E0082A09D169490A68A020000202430A600021684A116008E0A4
:400E400064490A688020800102430A600821634A11605F4A13701C0005E0FFF7A7FE02E00020FFF739FC04225E4B1A6035E0594B1B689B0431D5B3070DD5654B1B680F211E
:400E80001940544A1068544B03401360012014E00821012011E0594B1988083989B219800829F5D8002008E0564B1B681B19524A1268D2B21A70013401390029F4D10028BD
:400EC00008D1444A1368802109020B4313600022424B1A600C22434B1A60B30746D5EB0615D500233D4A1360384A1360384B1B789C4201D1022300E00A232B40324A11781A
:400F00000B4320218B4313700022384B1A706B062AD52D4A117820230B43DBB213702C4B1B781C003B4A1268D20612D5364A1288D31A324A1380384B1A68802149020A4359
:400F40001A601968354A0A401A6010221F4B1A6002E00422214B1A600123314A13602249164A1160264A1360144B1D60144B1B685B071CD5214B1B88002B0CD0214B1B68E8
:400F80001B191B78DBB2274A136001341B4A1388013B138002E0FF22224B1A60224B1B680F221340082BE5D10132204B1A60024B1C8070BD84010020A8010020400F07407C
:400FC000000E0740000007409C010020880F0740AB01002060000740FF5FFFFFC80F0740ED0F0000C00F0740FF0F0000AA010020880E0740CC0F07404003074088010020B0
:401000006C000740A4010020A00100209E010020080307406400074004020740FFFFFEFF800E07404002074008020740800F07400222064B1A6080221206054B1A60002259
:40104000044B1A600332044B1A6070478C0100200000104004001040080F1040044A1168044B1B680B43802109010B4313607047040010408C01002010B5064B1B79002B5A
:4010800004D1FFF7D5FF0122024B1A71FFF7E6FF10BDC0468C0100200230800804D0C0460138FDD1C046C046C0467047EFF3108072B6704780F310887047C046014B1868F2
:4010C0007047C0463C0100200E4B70B500251E000D4CE41AA410A54204D0AB00F35898470135F8E700F0FCF8084B00251E00084CE41AA410A54204D0AB00F358984701351F
:40110000F8E770BDEC120000EC120000EC120000F412000003008218934202D019700133FAE7704700000000060300000E0300001A03000028030000360300004403000028
:40114000520300005A0300006803000074030000800300008E0300009C030000AA030000B8030000C60300007604000076040000D4030000E2030000F0030000FE03000053
:40118000760400007604000076040000760400000C040000180400002404000032040000400400004E0400005C0400006A0400009E040000A6040000B2040000BE04000095
:4011C000CA040000D6040000E2040000EA040000F6040000020500000E0500001A05000026050000320500003E0500004A050000E4050000E40500005605000062050000B8
:401200006E0500007A050000E4050000E4050000E4050000E405000086050000920500009E050000AA050000B6050000C2050000CE050000DA05000000300F4000040040AD
:401240000F4000043001340136013E5158045F01180119201A801B028702AA40AD20B401570867808740D440D880E2105B40634093409B40AB40AF48D480D840EEC0504052
:401280006102D404D8026102A102B440B502D802EC08000006300F4005310F4003330F4006400F4009410F4004420F4006430F40030405060708090A0B0C0E0F1011121302
:4012C0001415161718191B1C1D1E1F2021222325262728292A2B2E2F3031323334354300F8B5C046F8BC08BC9E467047E901000071060000F8B5C046F8BC08BC9E4670477C
:40130000C101000018130000C000002080000000700000000000000000000000010000000000E02EC05D00001800000000366E0104040400000000000000000000000000FB
:401340000000000000000000000000000000000000000000DE120000000000000000000000000000000000000000000000000000000000000000000000000000000000007D
:401380000000000000000000000000000000000000000000DC0000200000000000000000000000000000000000000000000000000000000000000000000000000000000031
:4013C00000000000000000000000000000000000000000000000000000000000000000000000000000000000000000000000000000000000000000000000000000000000ED
:4014000000000000000000000000000000000000000000000000000000000000000000000000000000000000000000000000000000000000000000000000000000000000AC
:40144000000000000000000000000000000000000000000000000000000000000000000000000000000000000000000000000000000000000000000000000000000000006C
:40148000000000000000000000000000000000000000000000000000000000000000000000000000000000000000000000000000000000000000000000000000000000002C
:0200000490303A
:02000000BCCC76
:0200000490402A
:200000000000000000000000000000000000000000000000000000000000000000000000E0
:0200000490501A
:0C000000000204DB1193110104E0CE5F4C
:0200000490600A
:0100000001FE
:00000001FF