:400000000010002011000000B9050000B905000010B500F0D9FAC04670B5154C23688022D20213432360182000F06AFB2268114B13402360104A114B1A602022104B1A6085
:40004000103A104B1A60822212060F4B1A60002525600E4B0E4A13600E4A13600E49092000F00CFB092000F0F3FA0C4B1D6070BD00010B40FFFFFBFF0600008004010B40A0
:400080000C0202401C02024008010B400E0000800000024040000240110900000C020B4010B572B600240FE02B486200131959000B00411889881A5AC31858880004104322
:4000C00000F0E8F80134E4B2012CEDD9224801000C31503000F0C4F8204A214B1A6099231B04204A13602049204A1160204A13602049214A1160214A1360214A1360AA22A8
:400100001206204B1A6020490B783C22934314221343DBB20B701D4A117816230B43DBB21370FF231A4A13601A4A13601A4A13601A4A13601A4A13601A4A1360F3221A4BE1
:400140001A601A4A1A4B1A60F0221A4B1A60FFF763FF00F0B5F810BD60100000EEEE00000C00014000500F40000055FF08500F4010500F400000AAAA18500F4020500F4063
:4001800030500F4038500F4001700F4000700F4000000440180004400001044018010440000204401802044000030440A40D0000080304401803044010B5064C2378002BB1
:4001C00007D1054B002B02D0044800E000BF0123237010BD48010020000000004C0F0000084B10B5002B03D00749084800E000BF07480368002B00D110BD064B002BFBD088
:400200009847F9E7000000004C0100204C0F0000C00000200000000030B5C1B062B600F0FBFB112000F08EFC6A46FF21FF2000F095FC002411E0250023006B445B78C02B1E
:4002400002D1200000F0C6FB6D446B78D12B02D1200000F0FBF80134E4B2212CEBD9E8E7F0B50025002711E0BB00C658F3B2FF22964308E06A008A181478A41952782270D6
:400280000135013BDBB2002BF4D10137052FEBD9F0BDC04610B50A00002100F04FFE10BD064B1B68002803D080221206134301E05B005B08014A13607047C04680031A409C
:4002C00010B58022D202034B1A600120FFF7E8FF10BDC04600031A40212800D9AAE08000554B1B589F46554A116806230B431360A0E0524A116860230B4313609AE04F4ABB
:400300001368C021C9000B43136093E04B4A1368C021C9010B4313608CE0484A1368C021C9020B43136085E0444A1368C021C9030B4313607EE0414A1368C021C9040B43C6
:40034000136077E03D4A1368C021C9050B43136070E001223A4B1A606CE00222384B1A6068E00422364B1A6064E00822344B1A6060E01022324B1A605CE02022304B1A60B6
:4003800058E040222E4B1A6054E080222C4B1A6050E02C4A1368C021C9020B43136049E0284A1368C021C9030B43136042E0254A1368C021C9040B4313603BE0214A13685B
:4003C000C021C9050B43136034E01F4A116806230B4313602EE01C4A116860230B43136028E0194A1368C021C9000B43136021E0154A1368C021C9010B4313601AE0124A8E
:400400001368C021C9020B43136013E00E4A1368C021C9030B4313600CE00B4A1368C021C9040B43136005E0074A1368C021C9050B4313607047C046500F000004000140F3
:4004400000031A400C00014000000140212800D99AE080004D4B1B589F464D4A136806218B43136090E04A4A136860218B4313608AE0474A1168474B0B40136084E0444A14
:400480001168454B0B4013607EE0414A1168434B0B40136078E03E4A1168414B0B40136072E03B4A11683F4B0B4013606CE0384A11683D4B0B40136066E001223B4B1A6096
:4004C00062E00222394B1A605EE00422374B1A605AE00822354B1A6056E01022334B1A6052E02022314B1A604EE040222F4B1A604AE080222D4B1A6046E02D4A1168274B46
:400500000B40136040E02A4A1168254B0B4013603AE0274A1168234B0B40136034E0244A1168214B0B4013602EE0224A136806218B43136028E01F4A136860218B43136062
:4005400022E01C4A1168134B0B4013601CE0194A1168114B0B40136016E0164A11680F4B0B40136010E0134A11680D4B0B4013600AE0104A11680B4B0B40136004E00D4ABD
:400580001168094B0B4013607047C046D80F000004000140FFF9FFFFFF9FFFFFFFFFF9FFFFFF9FFFFFFFFFF9FFFFFF9F04031A400C0001400000014010B500F093FC036873
:4005C0000C2B00D1FEE7FEE770B50F4E0F4D13E029686B68AC68002202E001C901C30432A242FAD1E868002202E0002102C304328242FAD11035013E002EE9D100F078FC9A
:40060000FFF70AFEFEE7C046010000001C11000010B500230AE0032B03D89A000949505800E009489900094A885001332F2BF2D9FFF736FD8022D205116801230B431360E6
:4006400010BDC04600000000B9050000000000201F2318401E3B8340014A13607047C04600E100E01F2318401E3B8340014A13607047C04680E100E001BE704770B50400C6
:400680000D001F2802D90020FFF7F6FF1034A40080239B059C4664442068256070BDC04670B504000E00032902D90020FFF7E4FF1F2C02D90020FFF7DFFF03252540ED0040
:4006C000063500F007FCA408A400074B9C46644421680323AB4099430B003100A9401943216000F0FBFB70BD00E400E010B5034B1B7B584300F0E4FB10BDC046C400002087
:40070000F0B557464E46C0B483B0040000F0E2FB0190E71E2D2F74D83F4B1B78DBB29C4208D83E4B1B78DBB29A463D4B1B78DBB2994631E03B4B1B78DBB29C4208D83A4BBB
:400740001B78DBB29A46394B1B78DBB2994623E0374B1B78DBB29C4208D8364B1B78DBB29A46354B1B78DBB2994615E0334B1B78DBB29C4208D8324B1B78DBB29A46314B49
:400780001B78DBB2994607E02F4B1B78DBB29A462E4B1B78DBB299462D4BDE5D2F2E09D92A2C07D919222B4B1A60052000F088FB192503E0274B1D683F231D40B54206D9C9
:4007C000234BDA5D234B1A60052000F079FB1F4B9C4664442378DBB21F4A13601F4B52461A601F4B4A461A600520FFF77FFFB5420AD2174BDA5D174B1A60052000F060FBAA
:4008000002E00020FFF738FF019800F067FB03B00CBC91469A46F0BDC0F1FF0FC1F1FF0FC2F1FF0FC3F1FF0FC4F1FF0FC5F1FF0FC6F1FF0FC7F1FF0FC8F1FF0FC9F1FF0F1C
:40084000CAF1FF0FCBF1FF0FCCF1FF0FCDF1FF0FC81000002CFF0B4028FF0B401CFF0B4020FF0B40034B1868C0231B02184000D00120704700010B4010B500F02BFB044A7B
:400880001368C02109020B43136000F027FB10BD00010B4010B500F01DFB08490A68084B1A408024E40122430A600A6813408022120213430B6000F011FB10BD00010B40FF
:4008C000FF3FFFFF70B5050000F004FB0400FFF7C9FF002803D0FFF7DDFF012100E0002108482840084A1568084B2B40184310601368012901D1FFF7BFFF200000F0EEFABE
:4009000070BDC0460404040010020B40FBFBFBFF10B5244B1B685B0715D5234B1B685B070ED5224BD969042001401F4C22688A432260DA698243DA611B69002B00D09847F9
:400940000420FFF7BFFF174B1B685B0518D5164B1B685B0510D5154BD9698022D2001140114802688A430260D969114A0A40DA615B69002B00D098478020C000FFF7A2FF34
:40098000084B1B685B030CD5074B1B685B0304D5064B9B69002B00D098478020C002FFF791FF10BD10020B40D800002064010020FFFBFFFF10B5002404E02000FFF746FD3A
:4009C0000134E4B2212CF8D9FF22014B1A7010BDDC00002010B50400FFF7ECFF2000FFF77BFC014B1C7010BDDC00002010B50B20FFF72EFE10BDC04610B500F03BF810BDDC
:400A000010B5044A1368802109060B431360FFF7EDFF10BD0000074010B5064B1B78002B04D1FFF7E9FF0122024B1A70FFF7E8FF10BDC046840100200A4B1B68DB050DD551
:400A4000094B1B685B0409D4064B1968074A0A401A601A68802149000A431A600222044B1A6070470000074060000740FFFEFFFF6C00074010B500241C4B1C601C4A1D4B6F
:400A80001A601D4A11680C230B4313601B4B1C4A13601C4A14601C491C4A11601C4A13601C4B1C600B20FFF7DDFD03210B20FFF7F7FD19490B20FFF7E1FD184B1C60184B04
:400AC0001C605222FF32174B1A60174B1C60174B1C60174B1C60174B1C70174B1C70174B1C80174B00221A7010BDC04600000740000800406000074070000740070100802F
:400B000000030740040307401000FE001003074000020740040207408D0B0000C80E0740880E0740480F0740080F0740C80F0740880F07409E010020900100209C01002068
:400B40009F010020030004490A68FF2082435B0018401043086070471003074070B506000D00141E0BD00B20FFF77CFD044B1C60044B1E80044B1D800B20FFF769FD70BD59
:400B800098010020940100209201002070B5AC4B1B68002B00D09847AA4B1C88AA4B1D68AA4B1E680223FF331D4242D0A84A13685B005B081360A74B1B789B0620D5A54A9D
:400BC000137820218B431370117810230B43DBB21370A14B1B68DB060CD4A04B1A78994B1B889A420CD09B4A117808230B43DBB2137005E0974A117802230B43DBB2137009
:400C0000974A1168974B0B4013600023964A1360914A13609549964A116096498A4A1160954A13708A4A1368802109060B43136003E1F30602D50022904B1A600A233342B4
:400C400000D190E08E4B1B685B0756D58D4B1B68894A1278002A16D0012A47D18A4A1288002A0DD00121894A1160894A12681219DBB213700134844A1388013B138038E057
:400C8000FFF7DAFE35E0834A128893422BD201217E4A1160804A1288934202D2D21A92B200E0002278490A80072A03D80121724A117014E0082A09D169490A68A0200002E2
:400CC00002430A600021684A116008E064490A688020800102430A600821634A11605F4A13701C0005E0FFF7A7FE02E00020FFF7C3FC04225E4B1A6035E0594B1B689B0440
:400D000031D5B3070DD5654B1B680F211940544A1068544B03401360012014E00821012011E0594B1988083989B219800829F5D8002008E0564B1B681B19524A1268D2B248
:400D40001A70013401390029F4D1002808D1444A1368802109020B4313600022424B1A600C22434B1A60B30746D5EB0615D500233D4A1360384A1360384B1B789C4201D12E
:400D8000022300E00A232B40324A11780B4320218B4313700022384B1A706B062AD52D4A117820230B43DBB213702C4B1B781C003B4A1268D20612D5364A1288D31A324A0A
:400DC0001380384B1A68802149020A431A601968354A0A401A6010221F4B1A6002E00422214B1A600123314A13602249164A1160264A1360144B1D60144B1B685B071CD59E
:400E0000214B1B88002B0CD0214B1B681B191B78DBB2274A136001341B4A1388013B138002E0FF22224B1A60224B1B680F221340082BE5D10132204B1A60024B1C8070BDFC
:400E4000880100209C010020400F0740000E07400000074090010020880F07409F01002060000740FF5FFFFFC80F0740ED0F0000C00F0740FF0F00009E010020880E0740AE
:400E8000CC0F0740400307408C0100206C000740980100209401002092010020080307406400074004020740FFFFFEFF800E07404002074008020740800F0740000000003B
:400EC0000230800804D0C0460138FDD1C046C046C0467047EFF3108072B6704780F310887047C046014B18687047C046400100200E4B70B500251E000D4CE41AA410A542D8
:400F000004D0AB00F35898470135F8E700F0F4F8084B00251E00084CE41AA410A54204D0AB00F35898470135F8E770BD0411000004110000041100000C11000003008218B0
:400F4000934202D019700133FAE7704700000000E6020000F2020000FE0200000C0300001A030000280300003603000044030000520300005A030000620300006A0300003E
:400F8000720300007A030000820300008A030000340400003404000092030000A0030000AE030000BC03000034040000340400003404000034040000CA030000D60300008F
:400FC000E2030000F0030000FE0300000C0400001A040000280400005A04000066040000720400007E0400008A04000096040000A2040000AE040000BA040000C2040000FA
:40100000CA040000D2040000DA040000E2040000EA040000F20400008805000088050000FA04000006050000120500001E05000088050000880500008805000088050000D3
:401040002A05000036050000420500004E0500005A05000066050000720500007E05000000300F40000400400F4000043001340136013E5158045F01180119201A801B02A1
:401080008702AA40AD20B401570867808740D440D880E2105B40634093409B40AB40AF48D480D840EEC06102A102B502D802EC0806300F4005310F4003330F4006400F4039
:4010C00009410F4005430F40030405060708090A0B0C0E0F101112131415161718191B1C1D1E1F2021222325262728292A2B2E2F3031323334354300F8B5C046F8BC08BC62
:401100009E467047E101000011060000F8B5C046F8BC08BC9E467047B901000030110000C000002088000000580000000000000000000000010000000000E02EC05D00006E
:401140001800000000366E0104040400FF0000000000000000000000000000000000000000000000000000000000000000000000F6100000000000000000000000000000A1
:40118000000000000000000000000000000000000000000000000000000000000000000000000000000000000000000000000000E00000200000000000000000000000002F
:4011C00000000000000000000000000000000000000000000000000000000000000000000000000000000000000000000000000000000000000000000000000000000000EF
:4012000000000000000000000000000000000000000000000000000000000000000000000000000000000000000000000000000000000000000000000000000000000000AE
:40124000000000000000000000000000000000000000000000000000000000000000000000000000000000000000000000000000000000000000000000000000000000006E
:40128000000000000000000000000000000000000000000000000000000000000000000000000000000000000000000000000000000000000000000000000000000000002E
:0200000490303A
:0200000047DBDC
:0200000490402A
:200000000000000000000000000000000000000000000000000000000000000000000000E0
:0200000490501A
:0C000000000204DB1193110104E0596EB2
:0200000490600A
:0100000001FE
:00000001FF