:400000000010002011000000BD010000BD01000010B500F0DBF8C04670B5134C23688022D20213432360182000F0C8FB22680F4B134023600E4A0F4B1A6010220E4B1A6041
:40004000802212060D4B1A60002525600C4A0D4B1A600D49092000F06FFB092000F056FB0A4B1D6070BDC04600010B40FFFFFBFF0600008004010B400C02024008010B401C
:400080000E00008000000240CD0900000C020B4010B572B600240FE019486200131959000B00411889881A5AC31858880004104300F07EF80134E4B2012CEDD9114A124B22
:4000C0001A6099231B04114A1360114A1360114A1360114A117806230B43DBB21370802292030E4B1A60C02252030D4B1A6003220C4B1A600C4A0D4B1A60FFF78DFF10BD56
:40010000100B0000EEEE00000C00014000500F4010500F4030500F4000700F40080004400801044000030440A40D00000803044010B5064C2378002B07D1054B002B02D0BD
:40014000044800E000BF0123237010BD40010020000000000C0B0000084B10B5002B03D00749084800E000BF07480368002B00D110BD064B002BFBD09847F9E700000000BA
:40018000440100200C0B0000C00000200000000010B582B001AC0023237062B600F070F822000121012000F001F900F061FCFCE710B50A00002100F0A1FC10BD10B500F09B
:4001C00071FC03680C2B00D1FEE7FEE770B50F4E0F4D13E029686B68AC68002202E001C901C30432A242FAD1E868002202E0002102C304328242FAD11035013E002EE9D12A
:4002000000F056FCFFF7C4FFFEE7C04601000000700B000010B500230AE0032B03D89A000949505800E009489900094A885001332F2BF2D9FFF72CFF8022D2051168012368
:400240000B43136010BDC04600000000BD0100000000002010B50B2000F058FA10BDC04610B500F03BF810BD10B5044A1368802109060B431360FFF7EDFF10BD000007405D
:4002800010B5064B1B78002B04D1FFF7E9FF0122024B1A70FFF7E8FF10BDC0465C0100200A4B1B68DB050DD5094B1B685B0409D4064B1968074A0A401A601A688021490090
:4002C0000A431A600222044B1A6070470000074060000740FFFEFFFF6C00074010B500241C4B1C601C4A1D4B1A601D4A11680C230B4313601B4B1C4A13601C4A14601C4995
:400300001C4A11601C4A13601C4B1C600B2000F007FA03210B2000F021FA19490B2000F00BFA184B1C60184B1C605222FF32174B1A60174B1C60174B1C60174B1C60174BF7
:400340001C70174B1C70174B1C80174B00221A7010BDC046000007400008004060000740700007400701008000030740040307401000FE0010030740000207400402074019
:40038000DD030000C80E0740880E0740480F0740080F0740C80F0740880F07409601002088010020940100209701002070B506000D00141E0BD00B2000F0B2F9044B1C60C8
:4003C000044B1E80044B1D800B2000F09FF970BD900100208C0100208A01002070B5AC4B1B68002B00D09847AA4B1C88AA4B1D68AA4B1E680223FF331D4242D0A84A1368FF
:400400005B005B081360A74B1B789B0620D5A54A137820218B431370117810230B43DBB21370A14B1B68DB060CD4A04B1A78994B1B889A420CD09B4A117808230B43DBB2EA
:40044000137005E0974A117802230B43DBB21370974A1168974B0B4013600023964A1360914A13609549964A116096498A4A1160954A13708A4A1368802109060B431360F4
:4004800003E1F30602D50022904B1A600A23334200D190E08E4B1B685B0756D58D4B1B68894A1278002A16D0012A47D18A4A1288002A0DD00121894A1160894A12681219E7
:4004C000DBB213700134844A1388013B138038E0FFF7E6FE35E0834A128893422BD201217E4A1160804A1288934202D2D21A92B200E0002278490A80072A03D80121724A70
:40050000117014E0082A09D169490A68A020000202430A600021684A116008E064490A688020800102430A600821634A11605F4A13701C0005E0FFF7B3FE02E0002000F07D
:40054000F9F804225E4B1A6035E0594B1B689B0431D5B3070DD5654B1B680F211940544A1068544B03401360012014E00821012011E0594B1988083989B219800829F5D8F5
:40058000002008E0564B1B681B19524A1268D2B21A70013401390029F4D1002808D1444A1368802109020B4313600022424B1A600C22434B1A60B30746D5EB0615D50023B1
:4005C0003D4A1360384A1360384B1B789C4201D1022300E00A232B40324A11780B4320218B4313700022384B1A706B062AD52D4A117820230B43DBB213702C4B1B781C005E
:400600003B4A1268D20612D5364A1288D31A324A1380384B1A68802149020A431A601968354A0A401A6010221F4B1A6002E00422214B1A600123314A13602249164A116018
:40064000264A1360144B1D60144B1B685B071CD5214B1B88002B0CD0214B1B681B191B78DBB2274A136001341B4A1388013B138002E0FF22224B1A60224B1B680F221340E7
:40068000082BE5D10132204B1A60024B1C8070BD6001002094010020400F0740000E07400000074088010020880F07409701002060000740FF5FFFFFC80F0740ED0F00005F
:4006C000C00F0740FF0F000096010020880E0740CC0F074040030740640100206C000740900100208C0100208A010020080307406400074004020740FFFFFEFF800E07403B
:400700004002074008020740800F07401F2318401E3B8340014A13607047C04600E100E01F2318401E3B8340014A13607047C04680E100E001BE704770B504000D001F28B2
:4007400002D90020FFF7F6FF1034A40080239B059C4664442068256070BDC04670B504000E00032902D90020FFF7E4FF1F2C02D90020FFF7DFFF03252540ED00063500F0A8
:4007800089F9A408A400074B9C46644421680323AB4099430B003100A9401943216000F07DF970BD00E400E010B5034B1B7B584300F066F910BDC046C4000020F0B5574630
:4007C0004E46C0B483B0040000F064F90190E71E2D2F74D83F4B1B78DBB29C4208D83E4B1B78DBB29A463D4B1B78DBB2994631E03B4B1B78DBB29C4208D83A4B1B78DBB29D
:400800009A46394B1B78DBB2994623E0374B1B78DBB29C4208D8364B1B78DBB29A46354B1B78DBB2994615E0334B1B78DBB29C4208D8324B1B78DBB29A46314B1B78DBB288
:40084000994607E02F4B1B78DBB29A462E4B1B78DBB299462D4BDE5D2F2E09D92A2C07D919222B4B1A60052000F00AF9192503E0274B1D683F231D40B54206D9234BDA5D03
:40088000234B1A60052000F0FBF81F4B9C4664442378DBB21F4A13601F4B52461A601F4B4A461A600520FFF77FFFB5420AD2174BDA5D174B1A60052000F0E2F802E000208E
:4008C000FFF738FF019800F0E9F803B00CBC91469A46F0BDC0F1FF0FC1F1FF0FC2F1FF0FC3F1FF0FC4F1FF0FC5F1FF0FC6F1FF0FC7F1FF0FC8F1FF0FC9F1FF0FCAF1FF0F16
:40090000CBF1FF0FCCF1FF0FCDF1FF0F1C0B00002CFF0B4028FF0B401CFF0B4020FF0B40034B1868C0231B02184000D00120704700010B4010B500F0ADF8044A1368C02159
:4009400009020B43136000F0A9F810BD00010B4010B500F09FF808490A68084B1A408024E40122430A600A6813408022120213430B6000F093F810BD00010B40FF3FFFFFE1
:4009800070B5050000F086F80400FFF7C9FF002803D0FFF7DDFF012100E0002108482840084A1568084B2B40184310601368012901D1FFF7BFFF200000F070F870BDC04607
:4009C0000404040010020B40FBFBFBFF10B5244B1B685B0715D5234B1B685B070ED5224BD969042001401F4C22688A432260DA698243DA611B69002B00D098470420FFF752
:400A0000BFFF174B1B685B0518D5164B1B685B0510D5154BD9698022D2001140114802688A430260D969114A0A40DA615B69002B00D098478020C000FFF7A2FF084B1B68B7
:400A40005B030CD5074B1B685B0304D5064B9B69002B00D098478020C002FFF791FF10BD10020B40D800002068010020FFFBFFFF024B1868C0090123184070470400044060
:400A80000230800804D0C0460138FDD1C046C046C0467047EFF3108072B6704780F310887047C046014B18687047C0463C0100200E4B70B500251E000D4CE41AA410A54220
:400AC00004D0AB00F35898470135F8E700F03EF8084B00251E00084CE41AA410A54204D0AB00F35898470135F8E770BD580B0000580B0000580B0000600B00000300821873
:400B0000934202D019700133FAE770470000000000300F40000400400F400004030405060708090A0B0C0E0F101112131415161718191B1C1D1E1F20212223252627282994
:400B40002A2B2E2F3031323334354300F8B5C046F8BC08BC9E4670475901000015020000F8B5C046F8BC08BC9E46704731010000800B0000C00000208000000058000000DF
:400B800000000000010000000000E02EC05D00001800000000366E010404040000000000000000000000000000000000000000000000000000000000000000004A0B0000EB
:400BC000000000000000000000000000000000000000000000000000000000000000000000000000000000000000000000000000000000000000000000000000DC000020F9
:400C000000000000000000000000000000000000000000000000000000000000000000000000000000000000000000000000000000000000000000000000000000000000B4
:400C40000000000000000000000000000000000000000000000000000000000000000000000000000000000000000000000000000000000000000000000000000000000074
:400C80000000000000000000000000000000000000000000000000000000000000000000000000000000000000000000000000000000000000000000000000000000000034
:400CC00000000000000000000000000000000000000000000000000000000000000000000000000000000000000000000000000000000000000000000000000000000000F4
:0200000490303A
:02000000A5ED6C
:0200000490402A
:200000000000000000000000000000000000000000000000000000000000000000000000E0
:0200000490501A
:0C000000000204DB1193110104DEB78044
:0200000490600A
:0100000001FE
:00000001FF