:400000000010002011000000CD060000CD06000010B500F063FBC04670B5174C12232360182000F097FC154A154B1A60E022D200144B1A60144B154A1A60E0210901144A3E
:400040001160144A1A6082221206134B1A600025124B1D604022124B1A600132114B1A601149072000F0AEFB072000F095FB0F4B1D601123236070BD3000104006000080E0
:4000800004010B40000301400000014040FF00800403014041FF008008010B4000010B40280101400C010140950A00000C020B4010B572B600240FE03048620013195900F5
:4000C0000B00411889881A5AC31858880004104300F0FCF80134E4B2012CEDD9274801000C31503000F0D8F8254A264B1A6099231B04254A13602549254A1160254A13602F
:400100002549264A1160264A1360264A1360AA221206254B1A6025490B783C22934314221343DBB20B70224A117816230B43DBB21370FF231F4A13601F4A13601F4A1360E1
:400140001F4A13601F4A13601F4A1360F3221F4B1A601F4A1F4B1A60F0221F4B1A600F231E4A13601E4A1360053B1E4A13601E4A1360FFF751FF00F0BFF810BDA81100005E
:40018000EEEE00000003024000500F40000055FF08500F4010500F400000AAFF18500F4020500F4030500F4038500F4001700F4000700F40000004401800044000010440AC
:4001C00018010440000204401802044000030440A40D000008030440180304400004044018040440000504401805044010B5064C2378002B07D1054B002B02D0044800E0D8
:4002000000BF0123237010BD480100200000000094100000084B10B5002B03D00749084800E000BF07480368002B00D110BD064B002BFBD09847F9E7000000004C01002023
:4002400094100000C00000200000000030B5C1B062B600F087FC662000F0F4FC6A46FF21FF2000F0FBFC002413E0212C0FD8250023006B445B78C02B02D1200000F064F89E
:400280006D446B78D12B02D1200000F041F90134E4B27D2CE9D9E6E7F0B50025002711E0BB00C658F3B2FF22964308E06A008A181478A419527822700135013BDBB2002B71
:4002C000F4D10137052FEBD9F0BDC04610B50A00002100F0D7FE10BD064B1B68002803D080221206134301E05B005B08014A13607047C04680033A4010B503230B4A13602B
:400300000B4A13600B4A13600B4A1360802212060A4B1A608022D202094B1A600022094B1A600120FFF7D8FF10BDC0460021024004210240300030403000314000003A4062
:4003400000033A40000E3F40212800D9D1E08000684B1B589F46684A116806230B431360C7E0654A116860230B431360C1E0624A1368C021C9000B431360BAE05E4A1368FD
:40038000C021C9010B431360B3E05B4A1368C021C9020B431360ACE0574A1368C021C9030B431360A5E0544A1368C021C9040B4313609EE0504A1368C021C9050B4313608B
:4003C00097E001224D4B1A6093E002224B4B1A608FE00422494B1A608BE00822474B1A6087E01022454B1A6083E02022434B1A607FE04022414B1A607BE080223F4B1A604E
:4004000077E03F4A1368C021C9010B43136070E03B4A116860230B4313606AE0394A1368C021C9020B43136063E0364A1368C021C9030B4313605CE0324A1368C021C90421
:400440000B43136055E02F4A1368C021C9050B4313604EE02C4A116806230B43136048E0294A116860230B43136042E0264A1368C021C9000B4313603BE0234A1368C02167
:40048000C9010B43136034E0204A116806230B4313602EE01D4A116860230B43136028E01A4A1368C021C9000B43136021E0174A1368C021C9010B4313601AE0134A136831
:4004C000C021C9020B43136013E0104A1368C021C9030B4313600CE00C4A1368C021C9040B43136005E0094A1368C021C9050B4313607047981000000001024000033A40EB
:4005000000050240000302400004024000000240212800D9BEE080005F4B1B589F465F4A136806218B431360B4E05C4A136860218B431360AEE0594A1168594B0B40136056
:40054000A8E0564A1168574B0B401360A2E0534A1168554B0B4013609CE0504A1168534B0B40136096E04D4A1168514B0B40136090E04A4A11684F4B0B4013608AE0012257
:400580004D4B1A6086E002224B4B1A6082E00422494B1A607EE00822474B1A607AE01022454B1A6076E02022434B1A6072E04022414B1A606EE080223F4B1A606AE03F4AAE
:4005C0001168384B0B40136064E03C4A136860218B4313605EE03A4A1168334B0B40136058E0374A1168314B0B40136052E0344A11682F4B0B4013604CE0314A11682D4B5E
:400600000B40136046E02F4A136806218B43136040E02C4A136860218B4313603AE0294A11681F4B0B40136034E0264A11681D4B0B4013602EE0244A136806218B431360F7
:4006400028E0214A136860218B43136022E01E4A1168134B0B4013601CE01B4A1168114B0B40136016E0184A11680F4B0B40136010E0154A11680D4B0B4013600AE0124ACA
:4006800011680B4B0B40136004E00F4A1168094B0B4013607047C0462011000000010240FFF9FFFFFF9FFFFFFFFFF9FFFFFF9FFFFFFFFFF9FFFFFF9F04033A400005024036
:4006C00000030240000402400000024010B500F0ADFC03680C2B00D1FEE7FEE770B50F4E0F4D13E029686B68AC68002202E001C901C30432A242FAD1E868002202E000215D
:4007000002C304328242FAD11035013E002EE9D100F092FCFFF79AFDFEE7C046010000008012000010B50E4A136801218B43136000230AE0032B03D89A000A49505800E0B4
:4007400009489900094A885001332F2BF2D9FFF7AFFC034A116801230B43136010BDC0460000104000000000CD06000000000020024A1168024B0B401360704700002240C0
:40078000FFFFFFBF034B18688023DB05184000D001207047000022401F2318401E3B8340014A13607047C04600E100E01F2318401E3B8340014A13607047C04680E100E066
:4007C00001BE704770B504000D001F2802D90020FFF7F6FF1034A40080239B059C4664442068256070BDC04670B504000E00032902D90020FFF7E4FF1F2C02D90020FFF7B8
:40080000DFFF03252540ED00063500F0DEFBA408A400074B9C46644421680323AB4099430B003100A9401943216000F0D2FB70BD00E400E010B5040006E0084B586800F058
:40084000BBFB074B9C46644480231B029C42F4D8024B9868604300F0AFFB10BDC40000200080FFFF30B583B000F0BEF800285AD000F0ABFB040000230AE02C4A12683F21BC
:400880000A402B49C95C8A4201D1033303E001332D2BF2D90323274A1268D20606D1254802681F218A4313390A430260224A1168224A0A40224959438020C0018446614436
:4008C000C90B01394905490D0A43A021490311430800192B02D81B4B1A430EE01A4A9A1812781A3B1249C9183023CB5CD318FF2B00D9FF239B0502001A430F4B1A60134DD3
:400900002B680193302000F067FB114A13688021C9050B4313601420FFF78CFF019B2B60200000F056FB03B030BDC0462CFF0B401012000034FF0B400800224000F800C0CD
:4009400040420F000000D43FCDF1FF0F300010400000224030B587B0040000F036FB0500FFF710FF002803D0FFF702FF012100E00021104B1B6800930F4B1B680193033CA4
:400980000E4B1B5D02930E4B1B68039304AA0D4B04936B4605930C4B1A600C480C4A10601B68012901D1FFF75DFF280000F011FB07B030BD08010B4000010B401012000033
:4009C00030001040B6EA0000080010401700008004001040034B1868C0231B02184000D00120704700010B40034B1B68002B01DA012000E0002070470000224010B500F0B4
:400A0000E4FA044A1368C02109020B43136000F0E0FA10BD00010B4010B500F0D6FA08490A68084B1A408024E40122430A600A6813408022120213430B6000F0CAFA10BD75
:400A400000010B40FF3FFFFF70B5050000F0BDFA0400FFF7BFFF002803D0FFF7DDFF012100E0002108482840084A1568084B2B40184310601368012901D1FFF7BFFF20001A
:400A800000F0A7FA70BDC0460404040010020B40FBFBFBFF10B5244B1B685B0715D5234B5B685B070ED5224B596A042001401F4C62688A4362605A6A82435A629B69002BD3
:400AC00000D098470420FFF7BFFF174B1B685B0518D5164B5B685B0510D5154B596A8022D2001140114842688A434260596A114A0A405A62DB69002B00D098478020C000D8
:400B0000FFF7A2FF084B1B685B030CD5074B5B685B0304D5064B1B6A002B00D098478020C002FFF791FF10BD10020B40D800002064010020FFFBFFFF10B50920FFF72CFE78
:400B400010BDC04610B500F01DF810BD10B5044A1368802109060B431360FFF7EDFF10BD0000254010B5064B1B78002B04D1FFF7E9FF0122024B1A70FFF7E8FF10BDC046C7
:400B80008C01002010B50024194B1C60194A1A4B1A601A4B1A4A13601A4A14601A491B4A11601B4A13601B4B1C600920FFF7FEFD03210920FFF718FE17490920FFF702FE84
:400BC000164B1C60164B1C605222FF32154B1A60154B1C60154B1C60154B1C60154B1C70154B1C70154B1C80154B00221A7010BD0000254000080040600025400701008081
:400C000000032540040325401000FE001003254000022540040225408D0C0000C80E2540880E2540480F2540080F2540C80F2540880F2540A601002098010020A401002004
:400C4000A7010020030004490A68FF2082435B0018401043086070471003254070B506000D00141E0BD00920FFF7A0FD044B1C60044B1E80044B1D800920FFF78DFD70BDEE
:400C8000A00100209C0100209A01002070B5AB4B1B68002B00D09847A94B1C88A94B1D68A94B1E680223FF331D4238D0A74A13685B005B081360A64A137820218B43137090
:400CC000117810230B43DBB21370A24B1B68DB060CD4A14B1A789A4B1B889A420CD09C4A117808230B43DBB2137005E0984A117802230B43DBB21370984A1168984B0B4097
:400D000013600023974A1360924A1360964A13708E4A1368802109060B4313600AE1F30602D50022914B1A600A23334200D192E08F4B1B685B0758D58E4B1A688A4B1B788C
:400D4000002B17D0012B49D18B4B1B88002B0DD001218A4B19608A4B1B681B19D2B21A700134854A1388013B13803AE00222834B1A6036E0834B1B889A422BD201217F4B50
:400D80001960814B1B889A4202D29B1A9BB200E0002379490B80072B03D80121724B197014E0082B09D16D490B68A020000203430B6000216B4B196008E068490B6880203B
:400DC000800103430B600821664B1960624B1A70140006E00222694B1A6002E00020FFF7EFFC0422694B1A6035E05C4B1B689B0431D5B3070DD5664B1B681F211940574AC6
:400E00001068574B03401360012014E00821012011E0594B1988083989B219800829F5D8002008E0564B1B681B19524A1268D2B21A70013401390029F4D1002808D1474AC7
:400E40001368802109020B4313600022454B1A600C224E4B1A60B3074BD5EB0615D50023404A13603B4A13603B4B1B789C4201D1022300E00A232B40354A11780B43202153
:400E80008B4313700022384B1A706B062FD5304A117820230B43DBB213702F4B1B781C003C4A1268D20612D5364A1288D31A324A1380394B1A68802149020A431A60196861
:400EC000364A0A401A601022224B1A6002E00422244B1A600122324B1A603249194B196031490868102303430B60244B1A60154B1D60154B1B685B071CD51F4B1B88002B30
:400F00000CD01F4B1B681B191B78DBB2274A13600134194A1388013B138002E0FF22234B1A60234B1B681F221340082BE5D10F3A204B1A60024B1C8070BDC046900100205A
:400F4000A4010020400F2540000E25400000254098010020880F2540A701002060002540FF5FFFFFC80F2540A6010020880E2540CC0F254040032540940100206C00254016
:400F8000A00100209C0100209A010020C00F2540080325406400254004022540FFFFFEFF800E2540FF0F0000480F25404002254008022540800F25400230800803D0013898
:400FC000FDD1C046C046C0467047EFF3108072B6704780F31088704770B50400FFF7F5FF0500102C05D8104A136803218B43136016E0202C07D80C490B6803229343023ABC
:4010000013430B600CE0302C07D807490B6803229343013A13430B6002E00020FFF7D0FB2800FFF7D6FF70BD30001040014B18687047C046400100200E4B70B500251E0000
:401040000D4CE41AA410A54204D0AB00F35898470135F8E700F002F9084B00251E00084CE41AA410A54204D0AB00F35898470135F8E770BD681200006812000068120000F9
:401080007012000003008218934202D019700133FAE770470000000056030000620300006E0300007C0300008A03000098030000A6030000B4030000C2030000CA0300004D
:4010C000D2030000DA030000E2030000EA030000F2030000FA03000002040000100400001C0400002A040000380400004604000054040000600400006C0400007A040000E2
:401100008804000094040000A0040000AE040000BC040000CA040000D8040000E60400001E0500002A05000036050000420500004E0500005A050000660500007205000079
:401140007E050000860500008E050000960500009E050000A6050000AE050000B6050000BE050000CA050000D6050000E2050000EE050000FA05000006060000120600000D
:401180001E0600002A06000036060000420600004E0600005A06000066060000720600007E0600008A06000000300F40000400400F4000043001340136013E5158045F01AD
:4011C000180119201A801B028702AA40AD20B401570867808740D440D880E2105B40674093409B40AB40AF48D480D880EEC06102A102B502D802EC0806300F4005310F40C5
:4012000003330F4006400F4009410F4005430F40030405060708090A0B0C0E0F101112131415161718191B1C1D1E1F2021222325262728292A2B2E2F303132333435000074
:40124000EEDBC9B9AA9B8E82766B60564D443B332C241D17100A044300000000F8B5C046F8BC08BC9E4670471502000025070000F8B5C046F8BC08BC9E467047ED01000096
:4012800090120000C0000020880000006000000000000000010000000000E02EC05D00001800000000366E01F00000000404040000000000000000000000000000000000DF
:4012C0000000000000000000000000000000000057120000000000000000000000000000000000000000000000000000000000000000000000000000000000000000000085
:4013000000000000000000000000000000000000E00000200000000000000000000000000000000000000000000000000000000000000000000000000000000000000000AD
:40134000000000000000000000000000000000000000000000000000000000000000000000000000000000000000000000000000000000000000000000000000000000006D
:40138000000000000000000000000000000000000000000000000000000000000000000000000000000000000000000000000000000000000000000000000000000000002D
:4013C00000000000000000000000000000000000000000000000000000000000000000000000000000000000000000000000000000000000000000000000000000000000ED
:4014000000000000000000000000000000000000000000000000000000000000000000000000000000000000000000000000000000000000000000000000000000000000AC
:0200000490303A
:0200000073117A
:0200000490402A
:200000000000000000000000000000000000000000000000000000000000000000000000E0
:0200000490501A
:0C0000000002112411A10001112984B29A
:0200000490600A
:0100000001FE
:00000001FF