:400000000080002011000000BD1E0000BD1E000008B5044B1A6803F53F5302331A6001F06DFF00BFFA46004010B5054C237833B9044B13B10448AFF300800123237010BD54
:40004000C881FF1F0000000078870000084B10B51BB108490848AFF300800848036803B910BD074B002BFBD0BDE81040184700BF00000000CC81FF1F78870000C880FF1F04
:400080000000000008B502F0DDF920B102F0D4F908B102F0F5FA02F0CFF908BD08B5FFF7F1FF02F0C9F920B102F05EFB18B1012008BD002008BD002008BD00BF30B591B041
:4000C000FFF7ECFF002837D0684602F065FBC0B200232EE010AA1A4412F8402C59490978C9B2594C62540D2A03D00A2A01D0212A10D154490A78D2B20025534CA5540A78A9
:4001000012F0FF0F02D00121504A117000214D4A117004E04B490A780132D2B20A70494A1278D2B23F2A02D90021464A11700133DBB28342CED33AE001F08CFF002836D03A
:40014000434D2C78E4B201F06FFF424A10552B78DBB2D35CDBB20D2B0BD02B78DBB2D35CDBB20A2B05D02B78DBB2D35CDBB2212B10D1374A1378DBB200203649C854137878
:4001800013F0FF0F02D00222304B1A700022304B1A7004E02E4A13780133DBB213702C4B1B78DBB23F2B02D90022294B1A70274B1B7813F0FF0F3FD0244B1B78DBB2022B04
:4001C00001D0214C00E0234C2349204606F0ACFA844205D11D4B01225A7000221A702BE01E49204606F0A0FA844205D1174B01229A7000221A701FE01949204606F094FADD
:40020000844205D1114B0122DA7000221A7013E01449204606F088FA844204D10B4B0022DA701A7008E01049204606F07DFA844202D10022054B1A7004F0B8FB04F036FB23
:4002400011B030BD7C86FF1F8486FF1FE481FF1F0787FF1FC486FF1F80870000888700009087000098870000A087000049B9012318467047FFF706FF02F082FA38B90134B4
:4002800003E070B50D4606460024092CF2D902F077FA034680B12946304602F03DFA402D09D102F06DFA0028FBD00021084602F033FA012300E00123184670BD10B5094B9B
:4002C0001B783BB1084C204606F026FA81B22046FFF7CCFF034B5B7813B1034801F0D2FE10BD00BFCC80FF1F4082FF1F01230370802380F87F30002304E0C218991D5170D5
:4003000001339BB27D2BF8D9002305E0C218BE2182F8801001339BB27D2BF7D9704700BF2DE9F041044600F1010842463E493F4806F094F9FFF7C2FF04F08EFAC4EB0424DB
:400340003B4B1C4400237F22214694F8FE0004F0FDF9002423E004F067FA10F0020F2AD12DA3D3E900233046394605F0B7F9A8B1304F2E4D07F1200E3E460FCE28606960FC
:40038000AA60EB60374610357645F5D130682860FFF794FF04F026F804F010F80134204604F0A0FE06460F461DA3D3E9002305F081F90028CFD104F037FA10F0800F21D0A5
:4003C0001A4D1D4C0FCC28606960AA60EB602068286123792B75FFF771FF04F025FA10F0200F07D0154B03CB286069601B882B81FFF764FF0D4B124A1188927819809A70BF
:40040000FFF75CFF42460F49084806F027F9FFF755FFBDE8F08100BF00000000FC69184100000000006A1841AC8700004082FF1F8082FF1FC4870000E88700000088000010
:40044000608A00000C88000010B5002407E0C4EB04230B481844FFF749FF0134E4B2032CF5D9074B662283F8FE20112283F8FD21442283F8FC22222283F8FB2310BD00BFFC
:400480008082FF1F08B50138C3B2212B0CD80139C8B2032808D8C0EB002204490A441344C0225A70FFF73CFF08BD00BF8082FF1F0138C0B23F2813D808B54B1EDBB2032BA4
:4004C0000DD8012B03D91F2809D9202302E01F2805D80023C01A0130C0B2FFF7D3FF08BD704700BF08B50138C3B23F2B16D80139C8B2032812D8012803D91F2B0ED92022F6
:4005000002E01F2B0AD800229B1AC0EB002204490A441344D1225A70FFF702FF08BD00BF8082FF1F38B50138C5B2002415E0012C03D91F2D0FD9202302E01F2D0BD8002355
:40054000EA1AC4EB042306490B441344D1225A702046FFF7E5FE0134E4B2032CE7D938BD8082FF1F10B5002411E0C4EB042209490A441A44D12151700133DBB200E00023BD
:400580001F2BF2D92046FFF7CBFE0134E4B2032CF5D910BD8082FF1F08B50138C0B2002308E0C0EB002206490A441A44D12151700133DBB21F2BF4D9FFF7B2FE08BD00BF5C
:4005C0008082FF1F08B50138032816D8DFE800F002070C1101212120FFF754FF08BD02212120FFF74FFF08BD03212120FFF74AFF08BD04212120FFF745FF08BD10B5012459
:4006000004E02046FFF7DEFF0134E4B2042CF8D910BD00BF08B5044B1871044B1844007903F008FC08BD00BFE481FF1FCC80FF1F08B5044B1B79072B02D10020FFF7EAFF80
:4006400008BD00BFE481FF1F08B5034B1B7913B90720FFF7DFFF08BDE481FF1F70B4002510E06E1C33460AE050F8234050F82520944203DA40F8254040F8232001338B429B
:40068000F2D335464B1E9D42EBD370BC704700BF38B505460C46FFF7E1FF14F0010F0CD1640855F8240004F18044013C55F82430184400EBD070401038BD640855F82400E4
:4006C00038BD00BF2DE9F04F87B000AFB8607960122A01D9132400E01446B2FBF4FAA3000A3323F00703ADEB030D6D46012600237B619B4651E0012003F000FB0028FAD067
:4007000003F014FB03F048FB45F8280008F1010801E04FF000084445EDD821462846FFF7B7FF8046701E05F01BF98146304605F017F938610146484605F01EFAF860CBEBFB
:40074000080005F011F981460146F86805F060F90146484605F05CF98146786905F004F9494605F04DF805F0A3FA7861404605F0FBF88046584605F0F7F88146014640467F
:4007800005F03CF8396905F0F7F90146484605F037F805F08DFA834601365645B9D9BB68C3F800B07B681A467B6913601C37BD46BDE8F08F00B583B00023019302A941F8C2
:4007C000083D024601A8FFF77DFF019B83EAE371A1EBE3710B4A914202DDFFF729FF08E003F51F533F3344F6FE72934206D8FFF72BFF0522694601A8FFF764FF03B05DF8CE
:4008000004FB00BF00480D002DE9F04F8BB00690079192461D4600265B4B1E700320FFF7C9FF09960AAC44F8086D58490A799300574A1A440B44D3F80890D06804F074FC67
:4008400002460B464CA1D1E9000104F0EBFD04F081FF05900322214609A8FFF733FF002D63D169E0012208A909A8FFF72BFF0998484405F079F80146059805F0C9F8044627
:40088000584605F06DF8019004F04EFC06460F460022404B04F0E8FA32463B4604F0C2FDCDE902014146204604F0A8FF049004F03BFC06460F4602460B46DDE9020104F0AA
:4008C00087FC02460B463046394604F081FC06460F46284604F028FC32463B4604F0C6FA04F038FF05460199049805F045F90146404604F085FF8046204605F0D9F9002863
:40090000B8BF404204F0FEFB1DA3D3E9002304F0EFFE20B11C4A13780133137024E00022194B1A700BF1010B03E04FF0010B0025A846D34596D917E0524608A909A8FFF70D
:40094000C1FE0998484405F00FF80146059C204605F05EF880460898484405F005F80146204605F055F80546069BC3F80080079B1D600BB0BDE8F08F8DEDB5A0F7C6B0BE04
:40098000F168E388B5F8E43E0687FF1FE481FF1FCC80FF1F0000F03F00B583B00022144B1A700023019302A941F8083D0123032201A8FFF729FF019805F07AF90028B8BF5A
:4009C000404204F09FFB08A3D3E9002304F090FE18B10120064B187000E0002003B05DF804FB00BFAFF30080F168E388B5F8E43E0687FF1F70B5174B1C78E4B202331D7877
:400A0000EDB2AC4201D301260AE04FF0FF3607E0204603F0D5FAFFF7BFFFD0B13444E4B2AC42F5D10C4B1C78E4B2013B1D78EDB2AC4201D301260AE04FF0FF3607E0204645
:400A400003F058FAFFF7A8FF18B13444E4B2AC42F5D170BD805B0040835B00400000000008B5094B187804F04DFB05A3D3E9002304F0AEFB04F06EFE044B1B7808BD00BFDC
:400A8000FCA9F1D24D62903F825B00402858004038B50F4B187804F035FB0BA3D3E9002304F096FB04460D46FFF7DAFF04F03CFB02460B462046294604F0D6F904F04AFE62
:400AC000044B1B7838BD00BFFCA9F1D24D62903F835B00402C58004038B50F4B187804F011FB0BA3D3E9002304F072FB04460D46FFF7B6FF04F018FB02460B462046294616
:400B000004F0B2F904F026FE044B1B7838BD00BFFCA9F1D24D62903F805B0040205800402DE9F0418046194B1B78C31A184A1380184B1D78EDB2A84201D3012601E04FF03D
:400B4000FF362F461BE0FFF727FF48B912E0204603F036FAFFF720FFB0B1A41BE4B200E03C46AC42F3D1FFF717FF18B1FFF742FFBDE8F081384603F023FA3744FFB24745F1
:400B8000E1D1404603F01CFABDE8F081825B00400487FF1F805B00402DE9F0418046194B1B78C31A184A1380184B1D78EDB2A84201D3012601E04FF0FF362F461BE0FFF7F0
:400BC000EBFE48B912E0204603F094F9FFF7E4FEB0B1A41BE4B200E03C46AC42F3D1FFF7DBFE18B1FFF706FFBDE8F081384603F081F93744FFB24745E1D1404603F07AF9A7
:400C0000BDE8F081825B00407E86FF1F835B00402DE9F0410746052800D80627294B1B78DBB29F4202D34FF0010801E04FF0FF38244B1E78F6B223E0FFF7AEFE00283FD108
:400C4000B4B2214B1D8825442DB2204B1B881C4424B2FF2D00DDFF25FF2C00DDFF24002D00DA0025002C00DA0024304603F016FBE8B203F03FF9E0B203F0A2F94644F6B232
:400C8000B742D9D1BCB2104B1D8825442DB20F4B1B881C4424B2FF2D00DDFF25FF2C00DDFF24002D00DA0025002C00DA0024384603F0F4FAE8B203F01DF9E0B203F080F9FA
:400CC000BDE8F081825B00407E86FF1F0487FF1F70B50446FF2800DDFF2414F1FF0F01DA6FF0FE04294B1878A5B2284480B203B2FF2B0ADD254B1B78181A0138C0B2FFF77C
:400D000087FFFF20FFF70CFF0EE0002B09DA1F4B1B78181AC0B2FFF77BFF0020FFF700FF02E0C0B2FFF7FCFE194B1C80002C02DC6E42B6B200E00026002C03DDC5F1FF00BE
:400D400080B200E0FF20134BB3F90030002B02DC5A4292B200E00022002B03DDC3F1FF039BB200E0FF23094909788A4200D80A469A4200D81346B34200D31E46864200D86D
:400D80003046C0B2FFF744FF70BD00BF825B00400487FF1F7E86FF1F70B50446FF2800DDFF2414F1FF0F01DA6FF0FE04294B1878A5B2284480B203B2FF2B0ADD254B1B7897
:400DC000181A0138C0B2FFF723FFFF20FFF7E4FE0EE0002B09DA1F4B1B78181AC0B2FFF717FF0020FFF7D8FE02E0C0B2FFF7D4FE194B1C80194BB3F90030002B02DC5A4271
:400E000092B200E00022002B03DDC3F1FF039BB200E0FF23002C02DC6E42B6B200E00026002C03DDC5F1FF0080B200E0FF20094909788A4200D80A469A4200D81346B34279
:400E400000D31E46864200D83046C0B2FFF7E0FE70BD00BF825B00407E86FF1F0487FF1F08B504F061F908A3D3E9002304F0DAFA07A3D3E9002304F0ABF904F043FC00B2A8
:400E8000FFF78AFF08BD00BF52B81E85EB5110400000000000E06F4008B504F045F908A3D3E9002304F0BEFA07A3D3E9002304F08FF904F027FC00B2FFF70AFF08BD00BFF1
:400EC00052B81E85EB5110400000000000E06F4008B5034904F050FEFFF7C2FF08BD00BF00007A4408B5034904F046FEFFF7D4FF08BD00BF00007A4408B50020FFF710FEB9
:400F00000020FFF749FE002003F05AF8002002F0F1FF08BDF0B585B00546234B1E7900242046FFF7B9FF2046FFF79AFF00240394029422E02046FFF76DFB032202A903A83F
:400F4000FFF7C0FB2A4602A903A8FFF7BBFB039F7F42A300144A1A449760144A1344D86804F0E2F8009702460B461149114805F075FBFFF7A3F90134E4B2072CDAD93046D1
:400F8000FFF748FB0B4D0C4C0FCC28606960AA60EB6003CC286169612288A3782A83AB76FFF78CF905B0F0BDE481FF1FCC80FF1F248800004082FF1F4088000070B586B099
:400FC0000023059306A941F8083D0023024605A8FFF71AFC059804F0A7F804460D46FFF757FD0646FFF778FD04F09EF8CDE90201304604F099F8CDE9000122462B460449FC
:40100000044805F02BFBFFF759F906B070BD00BF5C8800004082FF1F38B50546002405E00A2201216420FFF7C9FF0134AC42F7D338BD00BF10B55A2002F0C2FFFE2002F027
:4010400059FF002409E0E0B202F054FF012211466420FFF7B3FF0134A4B2FF2CF3D910BD2DE9F8438146274BB3F90030002B07DDC3F1FE00C0B2FFF7CBFD4FF000083DE084
:40108000FE20FFF7C5FDF8E71E4BB3F90030002B02DA5B42DDB200E0002518F0010F02D1F026102724E00026F0256FF00F071FE0012C03D1E843C0B2FFF7AAFD2846FFF774
:4010C0006BFD012211462120FFF778FF0E4B5B7813F0FF0F0AD10C4BDB7813F0FF0FFAD10134E4B200E00024012CE1D93D44EDB2AE42F8D108F101085FFA88F8C845C3D9AF
:40110000BDE8F8830487FF1FE481FF1F2DE9F8438146FE20FFF77CFD4FF0000831E018F0010F03D1F0260025102724E00026F0256FF00F071FE0012C03D1E843C0B2FFF7C1
:4011400067FD2846FFF728FD012211462120FFF735FF0E4B5B7813F0FF0F0AD10B4BDB7813F0FF0FFAD10134E4B200E00024012CE1D93D44EDB2AE42F8D108F101085FFA16
:4011800088F8C845CBD9BDE8F88300BFE481FF1FF8B506460F4601242EE0651CEDB2FFF7E1F9FFF7A9FEFFF729FA01212046FFF77FF902212846FFF77BF92246104911486A
:4011C00005F04CFAFFF77AF81EB13846FFF79EFF02E03846FFF744FF0B4B9B7813F0FF0F0CD1094B5B7813F0FF0F07D1064BDB7813F0FF0FFAD12C46202CCED9F8BD00BF13
:401200006C8800004082FF1FE481FF1F3F283CD82DE9F04104460E46174698463F2930D9BDE8F081651CEDB2FFF79CF9FFF764FEFFF7E4F901212046FFF73AF9022128461D
:40124000FFF736F922461149114805F007FAFFF735F81FB14046FFF759FF02E04046FFF7FFFE0C4B9B7813F0FF0F0CD1094B5B7813F0FF0F07D1074BDB7813F0FF0FFAD12D
:401280002C46B442CED9BDE8F08170476C8800004082FF1FE481FF1FF0B583B062B6FFF7D3F80121002001F08FF800F0AFFE02F0BFFE02F057FE03F029F802F003FD02F005
:4012C000EFFD03F07BF803F031FC03F0F7FC03F041FD03F075FD02F009FD4FF47A7000F0F3FEC54800F0CEFEFFF788F9C34C00232370C34A1370C34A137003F01BFBC248C2
:4013000003F046FB6422C14B1A604FF49670FFF701FE2079FFF77EF9B84B00225A709A701B7813F0FF0FF7D0B44B1B78DBB2022B01D0B74C00E0B74C0022B04B1A70B6491C
:40134000204605F0F1F9844205D10A2201216420FFF734FEE0E7B149204605F0E5F984420CD12021204605F0C9F902A941F8040D0A2205F079FAFFF74FFECDE7A8492046C0
:4013800005F0D2F9844202D1FFF754FEC4E7A549204605F0C9F9844203D10020FFF760FEBAE7A149204605F0BFF9844203D10120FFF756FEB0E79D49204605F0B5F98442D9
:4013C00004D14FF49670FFF7A5FDA5E79849204605F0AAF984420DD12021204605F08EF902A941F8040D0A2205F03EFAC0B2FFF7D3FB91E78F49204605F096F984420DD1A3
:401400002021204605F07AF902A941F8040D0A2205F02AFAC0B2FFF783FB7DE78649204605F082F984420DD12021204605F066F902A941F8040D0A2205F016FA40B2FFF7C7
:40144000ABFC69E77D49204605F06EF984420DD12021204605F052F902A941F8040D0A2205F002FA40B2FFF733FC55E77449204605F05AF984420ED12021204605F03EF91A
:4014800002AA002342F8043D6E4905F00BF90198FFF7E6FC40E76C49204605F045F984420ED12021204605F029F902AA002342F8043D644905F0F6F80198FFF7EDFC2BE785
:4014C0006249204605F030F984421AD12021204605F014F902A941F8040D0A2205F0C4F904F042FA0446FFF7F3FC204603F01CFE02460B465649574805F0B0F8FEF7DEFE79
:401500000AE75549204605F00FF984421AD12021204605F0F3F802A941F8040D0A2205F0A3F904F021FA0446FFF7DCFC204603F0FBFD02460B464949464805F08FF8FEF72D
:40154000BDFEE9E64649204605F0EEF8844219D1404C444D0FCD20606160A260E36028682061FEF7ABFE00210846FFF711FE3E4D0FCD20606160A260E36028682061FEF7CC
:401580009DFEC9E63949204605F0CEF8844273D1304D374E0FCE28606960AA60EB6003CE2861696133882B83FEF788FE2021204605F0A4F802AC44F8040D0A22214605F0EC
:4015C00053F9C6B20A222146019805F04DF900231A46C1B23046FFF719FE264C0FCC28606960AA60EB6003CC2861696123882B83FEF764FE90E600BF74880000E481FF1FCE
:401600000787FF1F7C86FF1FBD0000008086FF1F8486FF1FC486FF1F8488000090880000A4880000B4880000C8880000E4880000F8880000088900001889000028890000C2
:4016400038890000448900004889000054890000608900004082FF1F78890000848900009C890000A4890000B8890000CC890000D8890000F4890000B849204605F054F8E9
:40168000844238D1B64DB74E0FCE28606960AA60EB6007CE28616961AA613288B378AA83AB77FEF70BFE2021204605F027F802AC44F8040D0A22214605F0D6F8C6B20A22BB
:4016C0002146019805F0D0F801230022C1B23046FFF79CFDA44C0FCC28606960AA60EB6007CC28616961AA612288A378AA83AB77FEF7E4FD10E69D49204605F015F88442D9
:401700003BD19B4E964D06F1200E37460FCF28606960AA60EB603E4610357745F5D138682860FEF7CBFD2021204604F0E7FF02AC44F8040D0A22214605F096F8C5B20A2246
:401740002146019805F090F801231A46C1B22846FFF75CFD874D824C05F120072E460FCE20606160A260E36035461034BE42F5D130682060FEF7A2FDCEE57F49204604F09C
:40178000D3FF84421ED12021204604F0B7FF02AC44F8040D0A22214605F066F8C5B20A222146019805F060F8C4B221462846FEF77FFE23462A467149694804F04FFFFEF748
:4017C0007DFDA9E56E49204604F0AEFF84421ED12021204604F092FF02AC44F8040D0A22214605F041F8C5B20A222146019805F03BF8C4B221462846FEF744FE23462A4660
:401800006049574804F02AFFFEF758FD84E55E49204604F089FF84421ED12021204604F06DFF02AC44F8040D0A22214605F01CF8C5B20A222146019805F016F8C4B2214631
:401840002846FEF74FFE23462A465049444804F005FFFEF733FD5FE54D49204604F064FF844215D12021204604F048FF02A941F8040D0A2204F0F8FFC4B22046FEF78CFE11
:4018800022464449364804F0E9FEFEF717FD43E54149204604F048FF844211D1FEF762FE2F4D3E4C0FCC28606960AA60EB6007CC28616961AA612388AB83FEF7FFFC2BE5F0
:4018C0003749204604F030FF844215D12021204604F014FF02A941F8040D0A2204F0C4FFC4B22046FEF71EFE22462E491C4804F0B5FEFEF7E3FC0FE52B49204604F014FF2D
:40190000844215D12021204604F0F8FE02A941F8040D0A2204F0A8FFC4B22046FEF752FE224622490E4804F099FEFEF7C7FCF3E41F49204604F0F8FE84423DD1FEF75EFE6D
:40194000074D1C4C0FCC28606960AA60EB6007CC28616961AA61FEF7B1FCDDE4108A00004082FF1F248A0000448A0000648A00007C8A0000A08A0000C48A0000D08A0000DA
:40198000E88A0000F48A0000148B0000208B00003C8B0000548B0000748B0000908B0000B08B0000C88B0000E88B0000008C0000208C0000388C00004749204604F0B4FE94
:4019C000844221D12021204604F098FE02A941F8040D0A2204F048FF404B1860404C414D04F1200726460FCE28606960AA60EB6034461035BE42F5D103CC2860696023783A
:401A00002B72FEF75BFC87E43749204604F08CFE844211D1334D354C0FCC28606960AA60EB6003CC2861696123782B76FEF746FC01222F4B5A706FE42E49204604F074FE32
:401A4000844211D1274D2C4C0FCC28606960AA60EB6003CC2861696123782B76FEF72EFC0122234B1A7057E42449204604F05CFE844211D11B4D224C0FCC28606960AA60A9
:401A8000EB6003CC2861696123882B83FEF716FC0022174B5A703FE41A49204604F044FE844211D10F4D184C0FCC28606960AA60EB6003CC2861696123882B83FEF7FEFB97
:401AC00000220B4B1A7027E422461049054804F0C5FDFEF7F3FB1FE4548C00008086FF1F7C8C00004082FF1FA88C0000C08C0000CC80FF1FDC8C0000F48C0000108D0000D4
:401B0000288D0000448D00005C8D0000788D0000FEE700BFF0B40022174611E050F82760F3B226F0FF0608E001EB420511F812406D78A5550132013BDBB2002BF4D1013771
:401B4000262FEBD9F0BC704708B50A46002104F00CF908BDF8B5394B1B78DBB2384E3478E4B2384F3D78EDB203F00701364A11701B090132137044F00303337045F003031B
:401B80003B7040F60102314B1A804AF2080210331A80022010331870012221331A70102210331A70082110331970903319708023DFF8B0E08EF800300EF1080E8EF800304F
:401BC0000EF2171E8EF8001021490B7040210EF1080E8EF800100EF15A0E8EF800004FF0200E1C4880F800E0083002704FF01B0E403080F800E02830017017490B701C3148
:401C00000A7004212430017004300370134B1A700133197040F2023214331A804FF4837204331A80143319700A2000F063FA3D70347044220A4B1A70F8BD00BFCF0100493A
:401C4000F8460040F94600406E5800400C510040245A0040905A0040045B00402B5B0040765800400159004008B504F073F808BD38B50024324B1C80502202331A700E2263
:401C800002331A8018232F4A13704FF49C7102321180023213700C222B492C48FFF7E4FF06222B4B1A705222A3F580731A70294B1B78DBB2284A13704FF4E162274B1A8097
:401CC00041F25122023B1A8019250CE0244B1B7803F0010343EA440404F003044FF4F07003F07EF8013D0DB1032CEFD115B90320FFF70EFF1B4A4FF480731380072313700E
:401D0000002319490B704820023108701370053213700222154B1A7004220A331A70144A137843F007031370013A137843F007031370013A137843F08003137038BD00BF76
:401D400080400040864000401809004800410040004300400F010049A14600402242004025420040044000400640004001400040A243004038B572B600240CE0394D630067
:401D800019194A0011462A44084691882858FFF7DBFE0134E4B2072CF0D900240BE03148A20011194B0003441A8F596B186BFFF75BFF0134E4B2012CF1D92B494FF09040FA
:401DC000FFF7A8FE0A25294B1D70294A137843F0020313701032137843F002031370254C237843F040032370A2F58632513A137843F0100313702A461F492048FFF734FF2A
:401E00002A461F491F48FFF72FFF08221E491F48FFF72AFF08221E491E48FFF725FF08221D491E48FFF720FF08221D491D48FFF71BFF08221C491D48FFF716FF1C4A137817
:401E400043F0080313701B4D01232B70FFF710FF81232B70FFF77EFE0E2221461648FFF703FF38BD988D00009C0000488358004003500140A0430040D8080048C05100408E
:401E8000E4080048F0510040F008004812510040F8080048225100400009004842510040080900485251004010090048625100402243004000480040B043004008B503F0CB
:401EC0001DFF03680C2B00D1FEE7FEE708B5094B1A681044084BC31AB3F5007F02DC054B186005E003F00AFF0C2303604FF0FF32104608BDF880FF1F1888FF1F08B5104E38
:401F0000104D16E029686B68AC68002204E051F8040B43F8040B0432A242F8D1E868002203E0002143F8041B04328242F9D11035013E002EE6D103F0E7FEFFF7ADF9FEE7F5
:401F4000010000008892000008B5104A104B1A60104A136843F40073136000230AE0032B03D80D4A52F8231000E00C490C4A42F8231001332F2BF2D90A4B1A780A4B1A7067
:401F8000074A0A4B1A60FFF7F5FE08BD0004FA050CED00E014ED00E000000000BD1E00000080FF1FBC760040C080FF1F08ED00E07222074B1A702022FC3B1A7006229E330C
:401FC0001A70472210331A70002251331A7070478865004010B502F00BFF04460A4A137843F020031370FC3A137843F010031370FF32137843F01003137000F055F8204698
:4020000002F0FAFE10BD00BF9865004008B5054B1B7823B9FFF7CCFF0122024B1A70FFF7D9FF08BD0C82FF1F084B1B78DBB213F0200F06D0064A1078C0B213F01E0F02D1AF
:402040007047002070470020704700BF6C6400404B650040044B1B7813F0200F01D0012070470020704700BF6C640040034B1B7813F0040FFAD1024B187070476B6500407B
:402080004B64004038B5074B1B782BB938BDFFF7EDFF0134A4B201E005460024285D0028F5D138BD0C82FF1F054A137843F0040313701032137843F004031370704700BF1E
:4020C000A243004001BE704710B5044605E0084B186802F085FEA4F50044B4F5004FF6D8034B586800FB04F002F07AFE10BD00BFFC80FF1F08B5034B1B7A00FB03F002F059
:402100006FFE08BDFC80FF1F70B504460E46074B1D681F2802D90020FFF7D4FF04F01F04103455F8240045F8246070BD08ED00E038B504460D46072902D90020FFF7C2FF33
:402140001F2C02D90020FFF7BDFF04F01F0000F1604000F564406D01EDB2057038BD00BF134B1B78DBB20360124A127843EA02230360114A127843EA024303600F4A1278DB
:4021800043EA026303600E4B1B78DBB243600D4A127843EA022343600B4A127843EA024343600A4A127843EA02634360704700BF0301004904010049EC4600400201004962
:4021C00001010049000100490501004906010049F8B502F00DFE0546404A137843F0010313701032137843F00103137001273C4B1F700226943B1E7002F5E2521B3213789A
:4022000003F07F0313700020FFF774FF354C237803F0F9032370344A137803F0DF03137023783B4323703846FFF764FF2820FFF761FF2E4B1A7802F07F021A701A7802F071
:40224000BF021A702378334323703046FFF752FF237843F0040323700023254A137001321370284602F0C8FD07211720FFF760FF20491720FFF748FF07211820FFF758FF1C
:402280001D491820FFF740FF07211520FFF750FF1A491520FFF738FF07210320FFF748FF17490320FFF730FF07210420FFF740FF14490420FFF728FF07210520FFF738FF1B
:4022C00011490520FFF720FF07210C20FFF730FF0E490C20FFF718FFF8BD00BFA54300409D6000409443004012600040F851004084600040312D0000192B00002D2D0000F6
:402300008D2C0000BD2C0000F12C0000392D000008B5214B18700023204A1370204A1370204A1370204A1370204A1370204A1370204A1370204B4FF400021A604FF08072CE
:402340001A604FF400121A6008221A6010221A6020221A6011B1012906D00BE0174A137803F0FE0313700AE0144A137843F00103137004E0114A137843F0010313700322C2
:402380000F4B1A708022203B1A70012002F028FD04220C4B1A7008BD2187FF1F2487FF1F4087FF1F4387FF1F3887FF1F4287FF1F4587FF1F2087FF1F00E100E00960004075
:4023C000286000401260004038B504460D46064B1B7823B9FFF7FCFE0122034B1A7029462046FFF795FF38BD0E82FF1F00230A4A13700A4A13700A4A13700A4A13700A4A59
:4024000013700A4A13700A4A13700322094B1A708022203B1A7070472487FF1F4087FF1F4387FF1F3887FF1F4287FF1F4587FF1F2087FF1F28600040014B1878704700BF07
:402440004387FF1F064B1B7813F0FF0F05D0044B1878C0B200221A7070470020704700BF4087FF1F00EB40008300024A13445878704700BF4887FF1F431EDBB2072B0BD8F4
:40248000064B00011A18185C00F00F00537843EA0020023880B2704700207047FC5F0040431EDBB2072B3CD8F0B4074600EB4004A3001C4C2344DB889BB2C3F500739A42FB
:4024C00008D900EB400293002344DA8892B2C2F5007292B200EB4004A300124C2344DB7843EA1223104D04012E192B55D3B2737039B909E0CE5C3D010C4C665501339BB20D
:4025000000E000239A42F5D8420002449300054A134400225A705A79D2B20001044B1A54F0BC70474887FF1FFC5F004078600040FE5F0040431EDBB2072B0BD84200024402
:402540009300054A134400225A705A79D2B20001024B1A54704700BF4887FF1FFE5F004070B5D9B1054614460E46C8B1082819D8FFF782FFA04203D22846FFF77DFF044689
:40258000002305E02901094A525CF25401339BB2A342F7D32846FFF7CDFF04E0002402E0002400E00024204670BD00BF7860004010B4FF2400230EE0094AD25C02EB42021C
:4025C0009100084A11448A7AD2B2824201D11C4602230133DBB2012BEED9204610BC70471087FF1F4887FF1F10B5204C2079FFF7DFFF237813F0800F0ED06378DBB2212B62
:402600002FD11B4B07221A80C0EBC000194A1044586000F0EFFA10BD144B5B78DBB2202B02D0222B10D01EE0114A07231380C0EBC00310490B4453600F4A135C43F001030A
:40264000135400F0FFFA10BD084B9B780B4A22F81030094A135C43F00203135400F088F910BD002010BD002010BD00BF006000402C87FF1F0C81FF1F0887FF1F1C87FF1F66
:4026800010B500241F4B1C701F4B1C705C700AE01E4B185DC0B2431EDBB2072B01D8FFF749FF0134E4B2012CF2D9194B1B7813F0FF0F1AD0154B1B7813F0FF0F17D0154B08
:4026C0001B7813F0FF0F14D0114B1B78DBB2082B11D80E4B1B78DBB2082B0ED80D4B1B78DBB2082B0BD8002010BD012010BD012010BD012010BD012010BD012010BD0120E6
:4027000010BD00BF0F82FF1F0887FF1F1487FF1F0C87FF1F1087FF1F70B506460D460F4B1B780F4AD45CE4B204EB440293000D4A13441B899BB28B4209D204EB44029300EB
:40274000084A13441D89ADB20020FFF7BBFC2A4631462046FFF7A4FE70BD00BF0F82FF1F0C87FF1F4887FF1F08B5034B1B78034AD05CFFF777FE08BD0F82FF1F1487FF1F11
:4027800008B5034B1B78034AD05CFFF76BFE08BD0F82FF1F0C87FF1F08B5084B1B78084AD35CDBB203EB43018A0006490A44128992B201461846FFF7D3FE08BD0F82FF1FB5
:4027C0001487FF1F4887FF1FC37803F0030390F9020000280FDA032B06D002F001030B48C15442F001020EE0C2F380030848C15442F0040207E0032B05D0C2F340030548DA
:40280000C15442F002021046704700BF0C87FF1F1087FF1F1487FF1F1D4B19781D4A13889BB20B449BB2138000220FE01A494B681B78DBB2194883544B6801334B600132A7
:40284000D2B20B889BB2013B9BB20B80124B1B889BB20BB1072AE9D90D4B1B78DBB2082B00D05AB10E490B7883F080030B700F210C4B197002210C4B197004E002230949A5
:402880000B7009490B70094B1A70014B1A7070472087FF1F2287FF1F2C87FF1F00600040B687FF1F4187FF1F2487FF1F4487FF1F0222074B1A708022064B1A700F22064B76
:4028C0001A700023054A1370054A1370012070472487FF1FB687FF1F4187FF1F2087FF1F4487FF1F08B5FFF797FF08BD10B4194B197801F00F010239C9B2174A13889BB230
:402900000B449BB21380002011E0144A5468144B1B5CDBB223705368013353600130C0B20139C9B213889BB2013B9BB213800B4B1B889BB20BB10029E7D10A4B19700A4A34
:40294000137883F0800313700B22084B1A7010BC704700BF296000402287FF1F2C87FF1F006000404487FF1FB687FF1F4187FF1F0623064A1370064A13708022054B1A7091
:402980000022054B1A700120704700BF2487FF1F4187FF1FB687FF1F4487FF1F064B9B6843B1054B9A6810709A6804490988518000229A60704700BF2C87FF1F2287FF1F9C
:4029C00008B5134B1A78D2B21A701B78DBB213F0800F02D00F4A137008BD0220FFF7DEFF0D4B1B7803F06003202B05D0402B06D043B900F093FC06E002F002FA03E000F03E
:402A000037FE00E0002010B90322024B1A7008BD286000404187FF1F0060004008B5094B1978094A13889BB20B449BB213800022064B1A700120FFF7B1FF0322044B1A70BB
:402A400008BD00BF2087FF1F2287FF1F2487FF1F4187FF1F08B50B4B1B78DBB2042B06D0062B07D0022B0BD1FFF7D8FF08BDFFF73DFF08BD0320FFF791FF0322024B1A7020
:402A800008BD00BF2487FF1F4187FF1F08B50022044B1A700120FFF781FF0322024B1A7008BD00BF2487FF1F4187FF1F08B50B4B1B7813F0FF0F07D0084A137843F0800344
:402AC00007490B70002313700022064B1A700120FFF764FF0322044B1A7008BD4287FF1F086000402487FF1F4187FF1F08B5094B1B78DBB2042B06D0062B07D0022B07D1AA
:402B0000FFF7F0FE08BDFFF7C1FF08BDFFF7CEFF08BD00BF2487FF1F08B5284B1B78DBB213F0100F48D013F0800F0CD003F00F03012B16D1FFF744FF214B1B7813F0800F87
:402B400011D1012312E013F0400F03D0FFF7CEFF01230BE013F0200F07D0FFF77BFF012304E0002302E0002300E0002323B3134B1B7813F0800F1FD1124B1B78124A12789B
:402B80001343124A13701278D2B2934214D10C4B1B78DBB2094A127812F0800F07D1084B1B78DBB2054A1370137803F00F03044A1278D2B29342EAD108BD00BF286000404E
:402BC0004187FF1FB687FF1F4487FF1F296000400022064B1A80064B9B682BB1044A916800230B7092685380704700BF2287FF1F2C87FF1F08B50F4B1B889BB213B9FFF71C
:402C000057FE15E002220C4B1A7000220B4B1A70FFF7DEFF0A4AD179937943EA0123054A128892B2934201D2024A1380FFF7F4FD012008BD2C87FF1F2487FF1FB687FF1FFF
:402C40000060004008B504220B4B1A7080220B4B1A70FFF7BDFF0A4AD179937943EA0123084A128892B2934201D2064A13800B22054B1A70012008BD2487FF1FB687FF1FF6
:402C8000006000402C87FF1F4187FF1F0122094B1A700F3B9B7C084B1B7B03F00303934204D0054AD37B83F08003D3730122024B5A7370470B6000404887FF1F02220A4BF2
:402CC0001A700F3B93F82230084B1B7E03F00303012B04D0054AD37E83F08003D3760122024B5A76704700BF0B6000404887FF1F04220C4B1A700F3B93F832300A4B93F8F3
:402D0000243003F00303012B06D0074A92F8273083F0800382F827300122034B83F82520704700BF0B6000404887FF1F704700BF08B5FFF75BFB08BD08B500F0A5FC08BDB5
:402D400070B588B0054603AC174E0FCE0FC43368237035B322232B7003236B7001A8FFF7FFF9002402231AE008AA224412F81C2C08A901EB121111F8141CE954581C0021E1
:402D80002954981C02F00F0208AE324412F8142C2A54DA1CA9540134E4B20433DBB2212BE2D908B070BD00BFDC8D000010B401233EE019461A010C242148845403EB430033
:402DC000820020480244527912F0FF0F13D003EB430082001B480244127912F0800F04D01801194A024494700AE01801164A02440820907004E01801134A024480209070C2
:402E00004800084482000F480244D488E4B208010B4901448C71D088C0F30720C871D088C0B20871D288C2F307224A710133DBB2082BBED9FF22054B1A7010BC704700BFE5
:402E4000706000404887FF1FFC5F00400A600040074B1A78074B03EBC2035B681A7C824204D9C0001030184440687047002070472187FF1FF08D0000F8B5404B1B7813F08A
:402E8000FF0F79D03D4B18780138C0B2FFF7E0FF047AC2683A4B1878C0B200236AE01178884264D13749095CC9B25578A9425ED1917801F07F01D67806F00306DFF8C8E072
:402EC0004D000D44AF000EEB07054FF0000C85F803C092F802C085F804C092F803C00EF807C097882F8192F90250002D0DDA012E01D1072700E00D274E000E44B500224E86
:402F000035446F7101266E700CE0012E01D1052700E009274E000E44B5001B4E35446F7100266E70DFF868E00F010EEB07060125B57001FA05F529448D00134929440D8921
:402F4000C5F307250EF807500D89EDB27570CE88F6B20E4D3D44AE71CE88C6F30726EE71CE88F6B22E71C988C1F30721697108320133DBB2A34292D3F8BD00BF4387FF1F1D
:402F80003887FF1FB487FF1F4887FF1F70600040FC5F0040034B1A78034B03EBC2035868704700BF2187FF1FF08D000008B5084B18780138C0B2FFF74BFF30B14268127948
:402FC000023200EBC203586808BD002008BD00BF4387FF1F2DE9F047002310E0724D5900CA189600AC190022AA55A270E2702281A272627034462C4462710133DBB2082B68
:40300000ECD940B90AE000226849CA546849CA540133DBB200E00023012BF4D9654B1B7813F0FF0F00F0BD80624B18780138C0B2FFF70EFF80464368DB7913F0400F05D013
:403040005D4A137843F00103137004E05A4A137803F0FE03137098F808704FF0000A01266FE0D8F80C50002467E0AB7803F07F039E425FD1314606EB460083004A480344CA
:403080001B899BB2A888834206D206EB460E4FEA8E03454A134418812B784448C35CDBB26878834246D195F802C0DFF8FCE04B000B4498000EEB000383F804C0EB780EF855
:4030C0000030EB7803F0030395F90200002813DA012B02D14FF0070901E04FF00D09DFF8C8E04B0003EB010C4FEA8C00704480F805900121417012E0012B02D14FF00509BF
:4031000001E04FF00909DFF8A0E04B0003EB010C4FEA8C00704480F8059000214170AB790A2B01D0022B05D1524631462846FFF74BFB824608350134E4B2BC4295D3013615
:40314000F6B2082E8DD9D8F80C0000220CE0837803F07F0310F8084B03EB43039900124B19448C720132D2B2BA42F0D3FFF71EFF124B1860002301210FE00B4D4A00501835
:4031800084002C44E380228992B213449BB203F0010213449BB20131C9B20829EDD9FFF705FEBDE8F08700BF4887FF1FB487FF1F2887FF1F4387FF1F4587FF1F3C87FF1F4D
:4031C00008B5154B1B7903F07F035A1ED2B2072A20D8590019448A0010490A44917841F0010191700021D170517841F002015170127912F0800F05D01B01094A1A448D23D2
:40320000937004E01B01064A1A4489239370FFF7AFFB08BD002008BD006000404887FF1FFC5F0040274B1B7903F07F035A1ED2B2072A44D810B5590019448A0022490A443A
:40324000917801F0FE0191700021D1701F4C1801215C01F07F012154517801F0FD015170127912F0800F13D003EB43018A0016490A445278D2B2012A04D1224602440C23FF
:40328000937019E01B01114A1A440D23937013E003EB43018A000C490A445278D2B2012A05D11B01094A1A440823937004E01B01064A1A4409239370FFF75AFB10BD002059
:4032C000704700BF006000404887FF1FFC5F004010B50E4B1C79E4B20D4B18780138C0B2FFF7B6FD43681B799C4201D9022C0AD8084A135DDBB208490B55044B9B78DBB2B5
:403300001355012010BD002010BD00BF006000404387FF1FB487FF1F2887FF1F10B59C4B1B78DBB200219B4A118013F0800F00F0AD80974A5278D2B20A2A00F27481DFE8BA
:4033400012F06900720172017201720172010B007201920072019A008D4BDB78DBB2012B09D1FFF717FE42688A4B5A6012221A80FFF740FC10BD864BDB78DBB2022B13D1F5
:40338000834B9878FFF764FD002800F04E814268804B5A605A68D1785A68927842EA01221A80FFF727FC10BD794BDB78DBB2032B05D02CE00A7811440133DBB201E00023CD
:4033C0007549734A9278D2B2934203D20A7812F0FF0FEFD16E4B9B7813F0FF0F0BD06C4B9B78DBB26D4A127C934204D16C4C2046FFF7A6FC21460B7813F0FF0F00F0178191
:403400000B78644A13805160FFF7F4FB10BD01F0F7FC10BD13F0030317D0022B40F009815C490B805A4B1B7903F07F0303EB43039A005C4B1A449278D2B25B4B1A7000224C
:403440005A704B60FFF7D6FB10BD524902230B80564B1A78D2B2544B1A7000225A704B60FFF7C8FB10BD4B4B01221A80504A5A60FFF7C0FB10BD474A01231380444B1B796B
:403480004C490B445360FFF7B5FB10BD404A5278013A0A2A00F2CF80DFE812F04C00CD009800CD000B00CD00CD00CD001300CD003000374B9B78DBB23F4A1370FFF758FABF
:4034C00010BD334B9B7803F0FF041BB1601EC0B2FFF7BEFC04B110B9002C40F0AE80344B1B78DBB29C4206D0314B1C700120334B1870FFF76FFDFFF73BFA10BDFFF7E8FE4C
:40350000002800F09C80224A1379DBB21279D2B22B490A702B4AD25CD2B22649CB5CDBB29A4204D00122254B1A70FFF7A5FCFFF71FFA10BD03F00303012B17D04BB1022B16
:403540007FD1134B9B7813F0FF0F7CD1FFF76AFE10BD0F4B9B78DBB2012B76D1134A137803F0FD031370FFF703FA10BD084B1B79DBB2012B6BD8064B98781B79DBB21249B6
:40358000CA5C22EA0002CA54FFF7F2F910BD00BF006000402C87FF1F588E0000688F0000F087FF1F4887FF1F1082FF1F4587FF1F4387FF1FB487FF1F4287FF1F4087FF1FD5
:4035C0003887FF1F2887FF1FB887FF1F03F00303012B17D04BB1022B3BD1224B9B7813F0FF0F38D1FFF7ECFD10BD1E4B9B78DBB2012B32D11C4A137843F002031370FFF763
:40360000B7F910BD174B1B79DBB2012B27D8154B98781B79DBB21549CA5C22EA0002CA54FFF7A6F910BD002010BD002010BD002010BD002010BD002010BD002010BD00200E
:4036400010BD002010BD002010BD002010BD002010BD002010BD002010BD002010BD002010BD00BF006000404587FF1FB887FF1F044B1B7813F0800F01D0024B5B780020EA
:40368000704700BF00600040024B1878C0F38010704700BF8F45004038B59DF81040651EEDB2032D51D8013809282ED8DFE800F0052D2D052D2D0F192D230F2B03D925481D
:4036C000007840B222E02448007840B21EE00F2B03D92248007840B218E02148007840B214E00F2B03D91F48007840B20EE01E48007840B20AE00F2B03D91C48007840B26E
:4037000004E01B48007840B200E0002001EB401101FB02F2D20B91B20D2B0BD8C3F10E0192B20A4191B2621E124800EB82020133937005E0631E0F4A02EB83030F229A70EE
:40374000013C0C4B23F8241038BD0020FEF7BAFC38BD00BF180100491C010049190100491D0100491A0100491E0100491B0100491F0100491482FF1FF8B5074601F038FBF4
:4037800006460D4D2B7843F003032B700B4C237843F0030323700A4B1F700320FEF7AAFC2B7803F0FC032B70237803F0FC032370304601F021FBF8BDF8460040F946004007
:4037C000925800402DE9F04104460022BD4B1A7401285ED13822BC4B1A70042202331A70072701331F70002501331D7001331D703F2201331A7002331D7001331D700133C0
:403800001D7001260A331E70502203F527631A70272201331A702C2201331A7001331D70552203331A705A2201331A704FF00508013383F80080022202331A701222013380
:403840001A70282201331A70EB2201331A704420FFF792FF58229D4B1A7001331D70053383F8008001331E7001331D700A2201331A704FF4FA42964B1A603146304600F0FC
:4038800001FC3146384600F081FC92491D20FEF73BFC022C5AD138228B4B1A70042202331A70072201331A70002501331D7001331D703F2201331A7002331D7001331D703D
:4038C00001331D7001260A331E70502203F527631A70272201331A702C2201331A7001331D70552203331A705A2201331A70052701331F7002331E70112201331A70192274
:4039000001331A70972201331A704420FFF734FF58226E4B1A7001331D7005331F7001331E7001331D700A2201331A704FF4FA42674B1A603146384600F0A4FB3146252028
:4039400000F024FC64491D20FEF7DEFB032C5AD138225D4B1A70042202331A70072201331A70002501331D7001331D703F2201331A7002331D7001331D7001331D7001269C
:403980000A331E70502203F527631A70272201331A702C2201331A7001331D70552203331A705A2201331A70052701331F7002331E70112201331A70192201331A70972224
:4039C00001331A704420FFF7D7FE58223F4B1A7001331D7005331F7001331E7001331D700A2201331A704FF4FA42394B1A603146384600F047FB3146252000F0C7FB3749C5
:403A00001D20FEF781FB042C5AD138222E4B1A70042202331A70072201331A70002401331C7001331C703F2201331A7002331C7001331C7001331C7001250A331D705022EE
:403A400003F527631A70272201331A702C2201331A7001331C70552203331A705A2201331A70052601331E7002331D70112201331A70192201331A70972201331A70442082
:403A8000FFF77AFE5822114B1A7001331C7005331E7001331D7001331C700A2201331A704FF4FA420A4B1A602946304600F0EAFA2946252000F06AFB09491D20FEF724FB94
:403AC000BDE8F0811482FF1F004E004094580040BC87FF1FE53D0000E93D0000ED3D0000F13D00002DE9F04182B0394E4FF0010886F80080374F00247C74102000F0B0FA97
:403B0000102000F031FB07211D20FEF711FB0425314B1D7001331C7007331C702F4A137843F0180313702E4B1C7003F2F5231C7001331C700A22A3F209331A7001331C70A1
:403B400002331C705B2205331A705E2201331A7004331C701422A3F68C231A70CDF8008010234FF4004249F2DA012846FFF794FD0223009310234FF4004249F2DA01284640
:403B8000FFF78AFD0323009310234FF4004249F2DA012846FFF780FD009510234FF4004249F2DA012846FFF777FD3378013B07EB83039A780B4B1A703378013B37F823203B
:403BC000094B1A803078FFF7FDFD02B0BDE8F0812681FF1F1482FF1F96580040075B0040935800400E4E00400C4E004070B501F0FFF806462A4B1B782A4B1A7842F0010230
:403C00001A701A7842F010021A7010331A7842F001021A701A7842F010021A70224D2B7843F002032B70214C237843F0020323701F4A137843F0030313700320FEF75AFAD2
:403C40002B7803F0FD032B70237803F0FD032370184A137843F0060313707A22164B1A70164A137843F0010313701032137843F0010313700F3A137843F0010313701032C3
:403C8000137843F0010313704FF000530C4A1360A2F5C0721360304601F0AEF870BD00BF2681FF1FAA430040F8460040F9460040915800407758004082580040A1430040CA
:403CC00080E200E008B5084B9B7C4BB9064BDB7C13F0FF0F01D1FFF705FF0122024B9A74FFF784FF08BD00BF1482FF1F024A137843F0010313707047004E0040094B1B7CE2
:403D000013F0FF0F03D0074B5B7CDBB203E0064B1B7803F00103012B01D00028EED01846704700BF1482FF1F014E0040154B1B7803F00303012B07D8134B1888023B1B885C
:403D40009BB243EA004013E0022B0AD10E4B1888023B1B7843EA00430C4A107843EA002006E00B4B188883B2074A108843EA0040084B1B7C13F0FF0F02D00022054B5A74B6
:403D8000704700BF144E0040124E0040114E0040104E00401482FF1F0F4B1B78DBB2012B06D00D4B1B78DBB2022B01D00A4B1B780A4B1B68002B00DA1F335A1147F6122374
:403DC00003FB00F090FBF2F00549496903FB01F393FBF2F3C01A70472681FF1FBC87FF1F1482FF1F704700BF704700BF704700BF704700BF084A137843F0040313701032E4
:403E0000137843F00403137002F5A5521E32137843F0800313707047A9430040044A137803F0FC0300F0030018431070704700BF09580040072809D8054B1A7802F08F0230
:403E40001A701A780001C0B210431870704700BF0A580040032809D8054B1A7802F0F3021A701A788000C0B210431870704700BF0A58004010B50224084B1C700C220133BE
:403E80001A70012201331A700720FFF7D3FF0320FFF7E0FF2046FFF7C1FF10BD0858004008B5054B1B7823B90122034B1A70FFF7E1FFFFF79FFF08BD2C82FF1F054A1378DB
:403EC00043F0080313701032137843F008031370704700BFA8430040054B1A7802F0FD021A701A7800F0020010431870704700BF2C580040014B1870704700BF835B004074
:403F0000064B1B78C3F3810303F19243063393F83831DBB2024A1370704700BF2C5800400B46004008B5064B1A7802F0F3021A701A7800F00C0010431870FFF7E1FF08BD31
:403F40002C58004010B50024054B1C7001331C700420FFF7E7FF2046FFF7BEFF10BD00BF2C58004008B5074B1B7823B9FFF7EAFF0122044B1A70FFF7A1FF0020FFF7BAFFD1
:403F800008BD00BF2D82FF1F054A137843F0010313701032137843F001031370704700BFA8430040054B1A7802F0FD021A701A7800F0020010431870704700BF205800400A
:403FC000014B1870704700BF805B0040064B1B78C3F3810303F19243063393F82031DBB2024A1370704700BF205800400846004008B5064B1A7802F0F3021A701A7800F0B5
:404000000C0010431870FFF7E1FF08BD2058004010B50024054B1C7001331C700420FFF7E7FF2046FFF7BEFF10BD00BF2058004008B5074B1B7823B9FFF7EAFF0122044B95
:404040001A70FFF7A1FF7D20FFF7BAFF08BD00BF2E82FF1F014B188880B2704780400040034B1A7800F0F80010431870704700BF82400040024B187800F00700704700BF48
:404080008240004070B505460E46FFF7F3FF0446FFF7E0FFA84256D02B4B1B7803F0010294B900B185B938B9284B1D80284A137803F0BF03137070BD254A137843F0400315
:4040C0001370224B1D8070BD22B3002321490B7001240F310C7004310B700C390B7803F07F030B701A4B1B7813F0080F00D08DB9194B18800721013B1970164B1B7813F0D8
:40410000010FFAD110490B7803F0FE030B700021104B19700C4B1B7813F0010F0DD00E4B1D800EB1032200E001220A4B1A70094B1B7813F0010FFAD170BD044B1D80024995
:404140000B7813430B7070BDA243004080400040824000400140004002400040014B188880B2704700410040034B1A7800F0F80010431870704700BF02410040024B1878C5
:4041800000F00700704700BF0241004070B505460E46FFF7F3FF0446FFF7E0FFA84256D02B4B1B7803F0010294B900B185B938B9284B1D80284A137803F0BF03137070BD96
:4041C000254A137843F040031370224B1D8070BD22B3002321490B70012413310C7004390B7008390B7803F07F030B701A4B1B7813F0080F00D08DB9194B18800721013BDF
:404200001970164B1B7813F0010FFAD110490B7803F0FE030B700021104B19700C4B1B7813F0010F0DD00E4B1D800EB1032200E001220A4B1A70094B1B7813F0010FFAD178
:4042400070BD044B1D8002490B7813430B7070BDA143004000410040024100400140004002400040054A137843F0040313701032137843F004031370704700BFA84300406C
:40428000054B1A7802F0FD021A701A7800F0020010431870704700BF28580040014B1870704700BF825B0040064B1B78C3F3810303F19243063393F82831DBB2024A137045
:4042C000704700BF285800400A46004008B5064B1A7802F0F3021A701A7800F00C0010431870FFF7E1FF08BD2858004010B50024054B1C7001331C700420FFF7E7FF204638
:40430000FFF7BEFF10BD00BF2858004008B5074B1B7823B9FFF7EAFF0122044B1A70FFF7A1FF7D20FFF7BAFF08BD00BF2F82FF1F10B50024144B1C70012216331A7000F036
:4043400057FD124A137843F01003137000F054FD0F220F4B1A70082210331A7004220D4B1A6007210220FDF7E3FE0B490220FDF7CBFE1022094B1A70094B1C70094B1C70D2
:40438000094B1C7010BD00BF786400409E6400402F64004080E100E025440000C087FF1FC687FF1FC887FF1FC487FF1F024A137843F00203137070477864004008B5074B9C
:4043C0001B7823B9FFF7B4FF0122044B1A70FFF7EDFF0422024B1A6008BD00BF3082FF1F00E100E004220A4B1A600A490B7803F0FD030B70084B1B7816310B7803F0DF0307
:404400000B70064B1A601022054B1A70704700BF80E100E0786400406E64004080E200E0C087FF1F38B5AC4B1C78AC4B1B7813F0400F00F07B81E4B214F0010F00F0428101
:40444000A64B1B78453B052B00F23981DFE813F006009200370137010600F90004F0DF0504F00A04082C50D19C4B1B78DBB2452B3DD19B4B1B7813F0FF0F16D0994B1B6800
:404480001B78DBB2984A13700622984B1A70FF225B3B1A70002240331A700122944B1A7046228E4B1A702C460CE1924B1B7813F0020F0CD0904A137843F00A0313706022C2
:4044C000864B1A7004228D4B1A602C46FAE08C4A137843F0200313705222844B1A70FF225B3B1A70002240331A702C46EAE002227E4B1A70FF225B3B1A70002240331A7023
:404500004A22764B1A702C46DCE00A2C2DD17A4A137843F0A0031370764B1B7813F0020F13D06E4B1B7813F0080F01D0092300E00A23714A11780B4313706022674B1A702C
:4045400004226E4B1A602C46BCE06D4A137843F0200313705222654B1A70FF225B3B1A70002240331A702C46ACE00020FDF7AAFD2C46A7E014F0020F3ED15D4B1A78D2B217
:40458000574B1B78DBB29A4216D2594A1378DBB254490968CB5CDBB253490B700621534B1970FF215B3B197000214033197013780133DBB2137085E04E4B1B7813F0020FC3
:4045C0000BD04D4A137843F00A0313706022434B1A700422494B1A6074E0494A137843F0200313705222414B1A70FF225B3B1A70002240331A7065E03E4B1B7813F0020F83
:404600000BD03D4A137843F09A0313706022334B1A700422394B1A6054E0394A137843F0200313705222314B1A70FF225B3B1A70002240331A70304A137843F09003137049
:4046400040E0304A1378DBB22F49086826490978C9B2C15413780133DBB213701278D2B22A4B1B78DBB29A4209D202221F4B1A70FF225B3B1A70002240331A7022E01D4B15
:404680001B7813F0020F0BD01B4A137843F0090313706022114B1A700422184B1A6011E0174A137843F02003137012220F4B1A70FF225B3B1A70002240331A7002E000202B
:4046C000FDF700FD14F0200F38D0044B1B7813F0080F1DD001231CE06E640040C087FF1FC787FF1FCC87FF1F0D64004078640040C487FF1FC587FF1FC687FF1F80E100E0E5
:404700008E640040C887FF1FD087FF1FD487FF1F02230B4A11780B4313700A4A137803F0DF0313701022084B1A7038BD064B1B7813F0100F02D11022034B1A7038BD00BF46
:40474000C687FF1F8E640040C087FF1F00294ED070B40C4629490978C9B2102906D12849097811F0100F10D1002111E023490978C9B260290BD1042522490D60224D297819
:4047800001F0F7012970002102E0012100E0022181BB4526194D2E7000261C4D2E701C4D2A701C4A14601C4A1370174C227802F0FD0222704200D2B21848027013F0010F86
:4047C00008D03222164B1A70FF225B3B1A7040331E7008E08222124B1A70FF225B3B1A70002240331A7004220E4B1A6002E0022108467047084670BC704700BFC087FF1F35
:404800006E64004080E200E0C687FF1FC487FF1FC787FF1FCC87FF1FC587FF1F0D6400407864004000E100E00422074B1A60074B1878C0B2064B1B7813F0400F00D01043DC
:404840000422044B1A60704780E100E0C687FF1FC087FF1F00E100E00423044A1360044A107800211170034A1360704780E100E0C687FF1F00E100E0084A137843F0010368
:4048800013701032137843F00103137002F64D32137843F001031370704700BFA3430040014B1870704700BF034F0040014B1878704700BF034F0040014B1880704700BF7C
:4048C000044F0040014B1880704700BF064F004008B5154A137803F0010313700232137803F0FC031370114B1A7802F0CF021A701A7842F030021A701A7802F0F0021A7026
:404900001A7842F00F021A70094A137843F001031370FF20FFF7D0FFFF20FFF7D3FF0820FFF7BEFF08BD00BF004F00400B4F0040014F004008B5054B1B7823B9FFF7C8FF64
:404940000122024B1A70FFF797FF08BD3182FF1F024B1B68C3F88400704700BF08ED00E04001C0B2014B1870704700BF11E400E04FF40032014B1A60704700BF00E100E07D
:404980004FF40032014B1A60704700BF80E100E010B50446FFF7F4FF2046FFF7D9FF0720FFF7DEFFFFF7E4FF10BD00BF4FF40032014B1A60704700BF80E200E008B50A2898
:4049C00013D00C2802D0082809D104E04FF400624FF480510DE080224FF4807109E00020FDF770FB0022114603E04FF400724FF480610020084B188042F2107303FB01F313
:404A000013F5806301D503F2FF73DB1203490B6012B2034B1A8008BDD887FF1FDC87FF1FDA87FF1F10B500F0E3F904461E4A137843F0010313701032137843F001031370AD
:404A40001A3A137843F0020313701032137843F00203137002F5AA521232137843F0030313701822114B1A70013B1A7842F040021A701A7802F0FC021A70C822053B1A70EA
:404A80000222A3F597530C3B1A70094A137843F0080313700A20FDF72DFB0122054B1A60204600F0A9F910BDAB43004006590040275B004080E200E010B504460A280DD0F9
:404AC0000C2802D0082804D101E0C22207E0422205E00020FDF7F6FAC22200E08222034B1A702046FFF76AFF10BD00BF0259004008B5102000F0F2F807210020FDF718FB70
:404B000007490020FDF700FB064A137843F0060313700C20FFF7D0FF0022034B1A8008BD494B000001590040E087FF1F08B5054B1B7823B9FFF7DCFF0122024B1A70FFF7CC
:404B400071FF08BD3282FF1F704700BF08B50A2813D00C2802D0082809D104E04FF400624FF480510DE080224FF4807109E00020FDF7A8FA0022114603E04FF400724FF483
:404B800080610020084B188042F2107303FB01F313F5806301D503F2FF73DB1203490B6012B2034B1A8008BDEC87FF1FE487FF1FE887FF1F38B500F01BF904461E4A13784E
:404BC00043F0020313701032137843F0020313701A3A137843F0040313701032137843F00403137002F5AA521A32137843F0030313701822114B1A70013B1A7842F0400264
:404C00001A701A7802F0FC021A70C822053B1A700225A3F59753123B1D70094A137843F0080313700A20FDF765FA064B1D60204600F0E2F838BD00BFAB4300400E59004004
:404C40002F5B004080E200E010B504460A280DD00C2802D0082804D101E0C22207E0422205E00020FDF72EFAC22200E08222034B1A702046FFF76AFF10BD00BF0A5900409A
:404C800008B5102000F034F807210120FDF750FA07490120FDF738FA064A137843F0060313700C20FFF7D0FF0022034B1A8008BDD94C000009590040EA87FF1F08B5054B10
:404CC0001B7823B9FFF7DCFF0122024B1A70FFF771FF08BD3382FF1F704700BF034B1A7800F0F80010431870704700BF06410040034B1A7800F0F80010431870704700BF4D
:404D00000A410040084A137843F060031370A2F5A652133A137843F0040313701032137843F004031370704777580040054B1A7802F0FC021A701A7800F0030010431870C2
:404D4000704700BF5C58004008B50120FFF7EEFF08BD00BF08B5054B1B7823B90122034B1A70FFF7F1FFFFF7CDFF08BD3482FF1F084A137843F060031370A2F5A652133AFA
:404D8000137843F0010313701032137843F001031370704777580040054B1A7802F0FC021A701A7800F0030010431870704700BF5858004008B50120FFF7EEFF08BD00BFFA
:404DC00008B5054B1B7823B90122034B1A70FFF7F1FFFFF7CDFF08BD3582FF1F000000000230800803D000BF01380046FCD17047EFF3108072B6704780F31088704700BFD9
:404E000008B5144B1B7803F00303012B02D0022B04D00FE00F4B1B79DBB20CE00D4B1B7903F07F0303EB43039A000B4B1A44937ADBB200E00023022B07D8084A1268D35CEE
:404E4000022B04D1FDF7D0FB08BD002008BD002008BD00BF006000404887FF1F3C87FF1F81F0004102E000BF83F0004330B54FEA41044FEA430594EA050F08BF90EA020FE4
:404E80001FBF54EA000C55EA020C7FEA645C7FEA655C00F0E2804FEA5454D4EB5555B8BF6D420CDD2C4480EA020281EA030382EA000083EA010180EA020281EA0303362D13
:404EC00088BF30BD11F0004F4FEA01314FF4801C4CEA113102D0404261EB410113F0004F4FEA03334CEA133302D0524263EB430394EA050F00F0A780A4F10104D5F1200E1C
:404F00000DDB02FA0EFC22FA05F2801841F1000103FA0EF2801843FA05F359410EE0A5F120050EF1200E012A03FA0EFC28BF4CF0020C43FA05F3C01851EBE37101F0004535
:404F400007D54FF0000EDCF1000C7EEB00006EEB0101B1F5801F1BD3B1F5001F0CD349085FEA30004FEA3C0C04F101044FEA445212F5800F80F09A80BCF1004F08BF5FEA54
:404F8000500C50F1000041EB045141EA050130BD5FEA4C0C404141EB010111F4801FA4F10104E9D191F0000F04BF01460020B1FA81F308BF2033A3F10B03B3F120020CDA2C
:404FC0000C3208DD02F1140CC2F10C0201FA0CF021FA02F10CE002F11402D8BFC2F1200C01FA02F120FA0CFCDCBF41EA0C019040E41AA2BF01EB0451294330BD6FEA04043D
:405000001F3C1CDA0C340EDC04F11404C4F1200220FA04F001FA02F340EA030021FA04F345EA030130BDC4F10C04C4F1200220FA02F001FA04F340EA0300294630BD21FA76
:4050400004F0294630BD94F0000F83F4801306BF81F480110134013D4EE77FEA645C18BF7FEA655C29D094EA050F08BF90EA020F05D054EA000C04BF1946104630BD91EACA
:40508000030F1EBF0021002030BD5FEA545C05D14000494128BF41F0004130BD14F580043CBF01F5801130BD01F0004545F0FE4141F470014FF0000030BD7FEA645C1ABF7A
:4050C000194610467FEA655C1CBF0B46024650EA013406BF52EA033591EA030F41F4002130BD00BF90F0000F04BF0021704730B54FF4806404F132044FF000054FF0000141
:4051000050E700BF90F0000F04BF0021704730B54FF4806404F1320410F0004548BF40424FF000013EE700BF42004FEAE2014FEA31014FEA02701FBF12F07F4393F07F4FBF
:4051400081F06051704792F0000F14BF93F07F4F704730B54FF4607401F0004521F0004120E700BF50EA010208BF704730B54FF000050AE050EA010208BF704730B511F031
:40518000004502D5404261EB41014FF4806404F132045FEA915C3FF4DCAE4FF003025FEADC0C18BF03325FEADC0C18BF033202EBDC02C2F1200300FA03FC20FA02F001FA1F
:4051C00003FE40EA0E0021FA02F11444C1E600BF70B54FF0FF0C4CF4E06C1CEA11541DBF1CEA135594EA0C0F95EA0C0F00F0DEF82C4481EA030621EA4C5123EA4C5350EA8F
:40520000013518BF52EA033541F4801143F4801338D0A0FB02CE4FF00005E1FB02E506F00042E0FB03E54FF00006E1FB03569CF0000F18BF4EF0010EA4F1FF04B6F5007FED
:4052400064F5407404D25FEA4E0E6D4146EB060642EAC62141EA55514FEAC52040EA5E504FEACE2EB4F1FD0C88BFBCF5E06F1ED8BEF1004F08BF5FEA500E50F1000041EBE8
:40528000045170BD06F0004646EA010140EA020081EA0301B4EB5C04C2BFD4EB0C0541EA045170BD41F480114FF0000E013C00F3AB8014F1360FDEBF002001F0004170BD92
:4052C000C4F10004203C35DA0C341BDC04F11404C4F1200500FA05F320FA04F001FA05F240EA020001F0004221F0004110EBD37021FA04F642EB06015EEA430E08BF20EAD8
:40530000D37070BDC4F10C04C4F1200500FA04F320FA05F001FA04F240EA020001F0004110EBD37041F100015EEA430E08BF20EAD37070BDC4F1200500FA05F24EEA020EB1
:4053400020FA04F301FA05F243EA020321FA04F001F0004121FA04F220EA020000EBD3705EEA430E08BF20EAD37070BD94F0000F0FD101F00046400041EB010111F4801FD6
:4053800008BF013CF7D041EA060195F0000F18BF704703F00046520043EB030313F4801F08BF013DF7D043EA0603704794EA0C0F0CEA135518BF95EA0C0F0CD050EA4106EB
:4053C00018BF52EA4306D1D181EA030101F000414FF0000070BD50EA410606BF1046194652EA430619D094EA0C0F02D150EA013613D195EA0C0F05D152EA03361CBF104662
:4054000019460AD181EA030101F0004141F0FE4141F470014FF0000070BD41F0FE4141F4780170BD70B54FF0FF0C4CF4E06C1CEA11541DBF1CEA135594EA0C0F95EA0C0FE1
:4054400000F0A7F8A4EB050481EA030E52EA03354FEA013100F088804FEA03334FF0805545EA131343EA12634FEA022245EA111545EA10654FEA00260EF000419D4208BF9E
:40548000964244F1FD0404F5407402D25B084FEA3202B61A65EB03055B084FEA32024FF480104FF4002CB6EB020E75EB030E22BFB61A754640EA0C005B084FEA3202B6EB1E
:4054C000020E75EB030E22BFB61A754640EA5C005B084FEA3202B6EB020E75EB030E22BFB61A754640EA9C005B084FEA3202B6EB020E75EB030E22BFB61A754640EADC00B1
:4055000055EA060E18D04FEA051545EA16754FEA06164FEAC30343EA52734FEAC2025FEA1C1CC0D111F4801F0BD141EA00014FF000004FF0004CB6E711F4801F04BF014310
:405540000020B4F1FD0C88BFBCF5E06F3FF6AFAEB5EB030C04BFB6EB020C5FEA500C50F1000041EB045170BD0EF0004E4EEA113114EB5C04C2BFD4EB0C0541EA045170BDAC
:4055800041F480114FF0000E013C90E645EA060E8DE60CEA135594EA0C0F08BF95EA0C0F3FF43BAF94EA0C0F0AD150EA01347FF434AF95EA0C0F7FF425AF104619462CE718
:4055C00095EA0C0F06D152EA03353FF4FDAE1046194622E750EA410618BF52EA43067FF4C5AE50EA41047FF40DAF52EA43057FF4EBAE12E74FF0FF3C06E000BF4FF0010CC5
:4056000002E000BF4FF0010C4DF804CD4FEA410C7FEA6C5C4FEA430C18BF7FEA6C5C1BD001B050EA410C0CBF52EA430C91EA030F02BF90EA020F0020704710F1000F91EA6C
:40564000030F58BF994208BF90422CBFD8176FEAE37040F0010070474FEA410C7FEA6C5C02D150EA013C07D14FEA430C7FEA6C5CD6D152EA033CD3D05DF8040B704700BFEE
:405680008446104662468C461946634600E000BF01B5FFF7B7FF002848BF10F1000F01BD4DF808EDFFF7F4FF0CBF012000205DF808FB00BF4DF808EDFFF7EAFF34BF0120D7
:4056C00000205DF808FB00BF4DF808EDFFF7E0FF94BF012000205DF808FB00BF4DF808EDFFF7CEFF94BF012000205DF808FB00BF4DF808EDFFF7C4FF34BF012000205DF895
:4057000008FB00BF4FEA410212F5001215D211D56FF47873B3EB625212D94FEAC12343F0004343EA505311F0004F23FA02F018BF404270474FF00000704750EA013005D1B1
:4057400011F0004008BF6FF0004070474FF00000704700BF4FEA4102B2F1E04324BFB3F5001CDCF1FE5C0DD901F0004C4FEAC0024CEA5070B2F1004F40EB830008BF20F07B
:405780000100704711F0804F21D113F13872BCBF01F00040704741F480114FEA5252C2F11802C2F1200C10FA0CF320FA02F018BF40F001004FEAC1234FEAD32303FA0CFCA1
:4057C00040EA0C0023FA02F34FEA4303CCE77FEA625307D150EA01331EBF4FF0FE4040F44000704701F0004040F0FE4040F40000704700BF80F0004002E000BF81F00041FA
:4058000042001FBF5FEA410392EA030F7FEA226C7FEA236C6AD04FEA1262D2EB1363C1BFD218414048404140B8BF5B42192B88BF704710F0004F40F4000020F07F4018BFB1
:40584000404211F0004F41F4000121F07F4118BF494292EA030F3FD0A2F1010241FA03FC10EB0C00C3F1200301FA03F100F0004302D5494260EB4000B0F5000F13D3B0F158
:40588000807F06D340084FEA310102F10102FE2A51D2B1F1004F40EBC25008BF20F0010040EA03007047490040EB000010F4000FA2F10102EDD1B0FA80FCACF1080CB2EBE3
:4058C0000C0200FA0CF0AABF00EBC25052421843BCBFD0401843704792F0000F81F4000106BF80F400000132013BB5E74FEA41037FEA226C18BF7FEA236C21D092EA030FA5
:4059000004D092F0000F08BF0846704790EA010F1CBF0020704712F07F4F04D1400028BF40F00040704712F100723CBF00F50000704700F0004343F0FE4040F4000070475C
:405940007FEA226216BF08467FEA23630146420206BF5FEA412390EA010F40F4800070474FF0000304E000BF10F0004348BF40425FEA000C08BF704743F0964301464FF020
:4059800000001CE050EA010208BF70474FF000030AE000BF50EA010208BF704711F0004302D5404261EB41015FEA010C02BF84460146002043F0B64308BFA3F18053A3F525
:4059C0000003BCFA8CF2083AA3EBC25310DB01FA02FC634400FA02FCC2F12002BCF1004F20FA02F243EB020008BF20F00100704702F1200201FA02FCC2F1200250EA4C0001
:405A000021FA02F243EB020008BF20EADC7070474FF0FF0C1CEAD0521EBF1CEAD15392EA0C0F93EA0C0F6FD01A4480EA010C400218BF5FEA41211ED04FF0006343EA5010B6
:405A400043EA5111A0FB01310CF00040B1F5000F3EBF490041EAD3715B0040EA010062F17F02FD2A1DD8B3F1004F40EBC25008BF20F00100704790F0000F0CF0004C08BF51
:405A800049024CEA502040EA51207F3AC2BFD2F1FF0340EAC250704740F400004FF00003013A5DDC12F1190FDCBF00F000407047C2F10002410021FA02F1C2F1200200FAFE
:405AC00002FC5FEA310040F1000053EA4C0308BF20EADC70704792F0000F00F0004C02BF400010F4000F013AF9D040EA0C0093F0000F01F0004C02BF490011F4000F013B59
:405B0000F9D041EA0C018FE70CEAD15392EA0C0F18BF93EA0C0F0AD030F0004C18BF31F0004CD8D180EA010000F00040704790F0000F17BF90F0004F084691F0000F91F0B6
:405B4000004F14D092EA0C0F01D142020FD193EA0C0F03D14B0218BF084608D180EA010000F0004040F0FE4040F40000704740F0FE4040F4400070474FF0FF0C1CEAD052AF
:405B80001EBF1CEAD15392EA0C0F93EA0C0F69D0A2EB030280EA010C49024FEA402037D04FF0805343EA111143EA10130CF000408B4238BF5B0042F17D024FF4000C8B42A8
:405BC00024BF5B1A40EA0C00B3EB510F24BFA3EB510340EA5C00B3EB910F24BFA3EB910340EA9C00B3EBD10F24BFA3EBD10340EADC001B0118BF5FEA1C1CE0D1FD2A3FF67B
:405C000050AF8B4240EBC25008BF20F0010070470CF0004C4CEA50207F32C2BFD2F1FF0340EAC250704740F400004FF00003013A37E792F0000F00F0004C02BF400010F453
:405C4000000F013AF9D040EA0C0093F0000F01F0004C02BF490011F4000F013BF9D041EA0C0195E70CEAD15392EA0C0F08D142027FF47DAF93EA0C0F7FF470AF084676E7F3
:405C800093EA0C0F04D14B023FF44CAF08466EE730F0004C18BF31F0004CCAD130F000427FF45CAF31F000437FF43CAF5FE700BF4FEA4002B2F1FE4F0FD34FF09E03B3EB9C
:405CC00012620DD94FEA002343F0004310F0004F23FA02F018BF404270474FF00000704712F1610F01D1420205D110F0004008BF6FF0004070474FF000007047014B186896
:405D0000704700BF8881FF1F0E4B70B51E460E4C0025E41AA410A54204D056F8253098470135F8E703F09EFA084B094C1E46E41AA4100025A54204D056F825309847013580
:405D4000F8E770BD7092000070920000709200007892000010B5431E0A44914204D011F8014B03F8014FF8E710BD03460244934202D003F8011BFAE770472DE9F04788B036
:405D8000149F002B1E461299B8BF03F1004327F02007B6BF1E4600232D23462F1446109DDDF84CA00B7003D0452F03D1013501E0032300E0022307AA049206AA03928DE8A8
:405DC00028042246334600F0E7FD472F804602D1119BDB0728D5462F08EB050911D198F80030302B0AD10022002320463146FFF757FC18B9C5F10105CAF80050DAF80030CE
:405E000099440022002320463146FFF749FC08B9302202E0CDF81C9006E0079B994503D9591C07911A70F8E74046079B159AC8EB0303136008B0BDE8F087034673B5002999
:405E4000B8BF494203F8022BB4BF2D222B22092942701ADD0DF1070216460A2591FBF5F405FB1411092C01F1300102F8011D2146F4DC3031541E02F8011CB4421A460AD21F
:405E800014F8012B03F8012BF7E71A463024214402F8024B5970101A02B070BD2DE9F04F91B00C46DDF8688016461F46054601F00BFB03681846099300F02EFC00230E9388
:405EC000D8F800300A90073323F0070303F1080294F81890D4F800B0C8F80020D3E90023C4E91223D4F84CA0D4F848802AF000430B934FF0FF32A74B40460B9902F026FC7B
:405F0000A0B94FF0FF32A34B40460B99FFF7DCFB60B90022002340465146FFF7CBFB10B12D2384F843309C4B9C4A0AE0424653464046514602F00AFC002800F09281984B81
:405F4000984AB9F1470F8CBF90469846032323612BF0040323604FF0000A3DE0B9F1670F00F08A81B9F1470F00F0868123600193636800210DF133020590029200934246FF
:405F800053460691CDF81090CDF80CE02846FFF7F4FE09F0DF03472B804600F08481B9F1650F0D9900F28D8101394A4604F150000D91FFF742FF0E9A82468318012A2361DB
:405FC00000F37C812268D10700F178819DF8333013B12D2384F84330009733460FAA2146284600F09FF9013002D14FF0FF3096E123685A0501D4236965E0B9F1650F40F27B
:40600000D580D4E9120100220023FFF749FB78B30123654A31462846B8470130E5D00E9B0D9A9A420BDB2368D80708D423689B0740F111814FF0000804F1190906E10A9BC2
:40604000099A31462846B8470130CED04FF0000804F11A090E9B013B9845E7DA01234A4631462846B8470130BFD008F10108F1E70D9B002B29DC01234B4A31462846B84741
:406080000130B2D00D9B23B90E9B13B92368D907CCD50A9B099A31462846B8470130A4D04FF0000904F11A0A0D9B5B42994509DA0123524631462846B847013095D009F1C0
:4060C0000109F1E70E9B4246A7E00E9AA36D9A42A8BF1A46002A914606DC4FF0000A29EAE97904F11A0B11E01346314642462846B8470130F1D178E701235A46314628463F
:40610000B84701303FF471AF0AF1010AA36DC9EB03029245F0DB08EB03090D9A0E9B9A420FDB2368DA070CD40E9B0D9A9844C9EB08089B1A9845A8BF9846B8F1000F08DCA7
:406140000FE00A9B099A31462846B8470130EBD14BE743464A4631462846B84701303FF444AF4FF0000928EAE87804F11A0A09E00123524631462846B84701303FF435AFED
:4061800009F101090D9A0E9B9B1AC8EB03039945EEDB4BE7FFFFEF7F7C8F0000808F0000848F0000888F0000FE9100000E9A012A01DCDB0738D50123424631462846B847D6
:4061C00001303FF412AF0A9B099A31462846B84701303FF40AAFD4E9120100220023FFF75FFA20B14FF0000804F11A090EE00E9B08F10102013B19E001234A46314628463C
:40620000B84701303FF4F1AE08F101080E9B013B9845F1DB534604F1500231462846B84701307FF403AFE0E64246012331462846B8470130EED1D8E601234A463146284615
:40624000B84701303FF4D1AE08F10108E3680F9A9B1A9845F0DBE0680F9B9842B8BF18465DE062680EA8531C0DF1340E4BF480637FF474AE062201E012B90122626075E611
:40628000002106910DF133018DE80C00236005904246CDF81090CDF80CE0029153462846FFF76BFD80460D9BD81C02DB626893421DDDA9F102095FFA89F970E6013323615F
:4062C00084E6B9F1660F14D10029636807DD216113B92268D2071DD501330B4419E013B92268D00701D5023313E0012311E04FF067090D9B0E9A934205DB22682361D1075F
:4063000008D5013305E0002BD4BFC3F102030123134423610D9B4FF0000AA36556E611B0BDE8F08F2DE9F04791461F460A698B6806469342B8BF1346C9F8003091F843201A
:406340000C46DDF8208012B10133C9F800302368990642BFD9F800300233C9F80030256815F0060510D104F1190A07E00123524639463046C04701301AD00135E368D9F87A
:4063800000209B1A9D42F1DB94F843302268003318BF012392060FD5E118302081F843005A1C94F845102244023382F8431003E04FF0FF30BDE8F08704F1430239463046CA
:4063C000C0470130F4D02268D9F80050E36802F00602042A08BF5D1B2269A3680CBF25EAE57500259342C4BF9B1AED184FF000091A344D4509D00123224639463046C047BA
:406400000130D5D009F10109F3E70020BDE8F0872DE9F04317460A7E85B06E2A984606460C460C9B01F1430E00F0AE8011D8632A22D009D8002A00F0BB80582A40F0CA8053
:4064400081F84520834955E0642A1ED0692A1CD0C0E0732A00F0B08009D86F2A2ED0702A40F0B8800A6842F020020A603EE0752A24D0782A3AD0ADE01A6801F14205111D68
:406480001960136884F84230A8E021681A6811F0800F02D0111D196008E011F0400F02F10401196002D0B2F9003000E01368002B3CDA2D225B4284F8432037E021681A687F
:4064C00011F0800F02D0111D196007E011F0400F02F10401196001D0138800E01368227E5C496F2A14BF0A2208221BE078225A4984F845202268186812F0800F00F104056F
:406500001D6003D1550601D5038800E00368D00744BF42F0200222601BB9226822F0200222601022002084F8430001E049490A226568002DA56008DB206820F00400206091
:406540002BB9002D7DD175460CE0002B79D07546B3FBF2F002FB1033CB5C05F8013D03460028F5D1082A0BD12368DA0708D5236962689A42DEBF302305F8013C05F1FF35A0
:40658000C5EB0E0323612EE008681A6810F0800F496903D0101D1860136808E010F0400F02F104001860136801D0198000E0196000232361754616E01A68111D1960156880
:4065C00000216268284600F08BFF08B1401B6060636804E004F1420584F8422001232361002384F84330CDF800803B4603AA21463046FFF797FE013002D14FF0FF3026E01E
:4066000023692A4639463046C0470130F5D023689B0710D5002504F1190907E001234A4639463046C0470130E7D00135E368039A9B1A9D42F2DBE068039B9842B8BF18468B
:4066400005E00B7804F1420584F842308AE705B0BDE8F0838C8F00009D8F00000EB400B54FF402719CB0ADF814106FF00041049107914FF6FF711DAB02900690084853F8B4
:40668000042BADF81610006802A9019301F01EFB029B00221A701CB05DF804EB03B070478881FF1F0EB430B59CB01FAC4FF4017254F8045BADF814200290069000F02CF811
:4066C0000B4B03900B9300230F9314934FF6FF7307900848ADF816302A46234602A90068019401F043FC1CB0BDE8304003B07047F96600008881FF1F00207047C9B2034601
:4067000010F8012B1AB19142F9D11846704700290CBF184600207047034613F8012B002AFBD1181A01387047F0B5037863B90B78002B18BF0020F0BD15F8012F62B114F8FD
:40674000017F30469742F7D00346461C007810B14D1E5C1EF0E7F0BD1846F0BD2DE9F0470F4680463F48D0F800903D4615F8014B09EB0400407800F0080000F0FF0608B1B2
:406780002F46F2E72D2C03D1BD1C7C78012603E02B2C04BF7C78BD1C13B1102B0AD15BE0302C57D1287800F0DF0058284DD16C7810230235002E14BF4FF0004C6FF0004C75
:4067C000BCFBF3FA0027384603FB1ACC09EB040E9EF801E01EF0040F01D0303C0BE01EF0030E1BD0BEF1010F0CBF4FF0370E4FF0570ECEEB0404A34210DDB7F1FF3F0AD097
:40680000504506D801D1644503DC03FB0040012701E04FF0FF3715F8014BD7E77B1C0CD1002E4FF0220314BF4FF000406FF00040C8F800302AB9BDE8F08706B1404272B176
:4068400007B1691E1160BDE8F0873024002BB1D10823AFE70A23ADE7302CA3D0AAE7BDE8F08700BF8C81FF1F13460A46014602480068FFF773BF00BF8881FF1F2DE9F74F57
:4068800003690C6980469C427FDC013C01F114074FEA840E00F1140606EB0E0357F82450019356F824300135B3FBF5F507EB0E09C5B34FF0000A3846B446D34650F8043B2D
:4068C0009AB205FB02A21B0C4FEA124A05FB03A392B2C2EB0B0BBCF800204FEA134A5A441FFA83FBDCF800308145CBEB134303EB224392B242EA03424FEA234B4CF8042BA8
:40690000DCD256F80E306BB9019B043B9E421A4602D3C8F8104005E01268043B002AF8D1013CF3E7404600F0F6FF00282BDB304601354FF0000E57F8042B036891B2C1EBE7
:406940000E0E120C99B27144C2EB134303EB214389B24FEA234EB94541EA034340F8043BE9D256F8242006EB840362B9043B9E421A4602D3C8F8104005E01268043B002AB1
:40698000F8D1013CF3E7284600E0002003B0BDE8F08F0000000000002DE9F04F456A95B08246219CCDE9022345B9102000F090FDCAF82400456085600560C560DAF824303E
:4069C000196859B15A68012393404A608B60504600F0C9FDDAF8243000221A60039BA04A002BBDBF01232360039B0023BCBF23F000430393DDF80C80A8BF236028F000430C
:406A00001B0D1B0593421DD142F20F73209A1360029B43B9934A944BC8F31300002814BF1846104600E09048229B002B00F04685C37813B100F1080300E0C31C229A136052
:406A400000F03CBDDDE902450022002320462946FEF726FE074658B1209A01231360229B002B00F01E8581481860013800F026BD12AB019313AB009322462B46504600F07D
:406A8000C5FFC8F30A56049056B1C5F3130343F07F51204641F44011A6F2FF3611971DE0139B129E1E4406F23243202B0ADD029A06F21240C3F1400322FA00F008FA03F3ED
:406AC000184304E0C3F12000029B03FA00F0FEF709FB0123A1F1F871013E11930022644BFEF7C2F958A3D3E90023FEF771FB58A3D3E90023FEF7BAF9044630460D46FEF7B8
:406B000001FB55A3D3E90023FEF762FB02460B4620462946FEF7AAF904460D46FEF7F2FD00228346002320462946FEF7C3FD58B15846FEF7E7FA02460B4620462946FEF731
:406B4000AFFD08B90BF1FF3BBBF1160F0DD8DDE90223484901EBCB01D1E90001FEF7C8FD30B10BF1FF3B002300E00123109300E01090129B9E1B731E079343BFC3F1000863
:406B8000002307934FF00008BBF1000F06DB079BCDF82CB05B440793002705E00023CBEB0808CBF100070B931E9B092B28D8052BC4BF043B1E931E9BC8BF0025A3F10203D5
:406BC000D8BF0125032B20D8DFE803F0060E0204012302E0012308E000230A931F9B002B1DDD9946059321E000230A931F9B0BEB030909F10103012B0593B8BF012315E0E7
:406C0000012500231E930A9501E001230A934FF0FF390022CDF8149012231F9206E04FF001094B46CDF81490CDF87C90DAF8244000226260042101F114029A421CD8626856
:406C4000490001326260F6E761436F63A787D23FB3C8608B288AC63FFB799F501344D33F0000F07FAF900000B8900000FF9100000000F83FC89000006168504600F03EFCBD
:406C8000DAF8243020601B680693059B0E2B00F25B81002D00F05881DDE90234BBF1000FCDE90E3430DD9F4A0BF00F034FEA2B1502EBC303E80618CBCDE908340CD5DDE92D
:406CC0000E01994B05F00F05D3E90823FEF7AAFB0324CDE9020100E00224934E6DB1E90708D5DDE90801D6E90023FEF771FACDE9080101346D100836F0E7DDE90823DDE917
:406D00000201FEF78FFB20E0CBF1000505B3DDE90E01844B05F00F0203EBC203D3E90023FEF756FACDE902017F4E2D110023022455B1EA0705D5D6E90023FEF749FA0134AA
:406D400001236D100836F3E71BB1CDE9020100E00224109BE3B1DDE902560022734B28463146FEF7A7FC98B1059B8BB1B9F1000F40F3E6800BF1FF330893314600226C4B85
:406D80002846FEF725FA0134CDE902014E4602E0059ECDF820B02046FEF7B4F9DDE90223FEF716FA634B0022FEF760F8A1F1507304460C931D46D6B9DDE9020100225E4BDC
:406DC000FEF752F822460C9BCDE90201FEF790FC002840F03F820C99224601F10043DDE90201FEF767FC002840F02B82A8E00A9A4C4B711E002A49D003EBC103D3E9002364
:406E000000204E49FEF70EFB22462B46FEF72CF8CDE90C01069CDDE90201FEF773FC0546FEF770F902460B46DDE90201FEF71CF8DDE90C23303504F8015BCDE90201FEF7A5
:406E400039FC002840F01D83DDE9022300203749FEF70AF8DDE90C23FEF72CFC002840F0D180069BE31AB3426ADADDE90C0100222F4BFEF7ADF90022CDE90C01DDE9020119
:406E80002B4BFEF7A5F9CDE90201C4E703EBC1012246D1E900012B46FEF79AF9069BCDE90C011D469C19DDE90201FEF72BFC0646FEF728F902460B46DDE90201FDF7D4FFAD
:406EC000303605F8016BAC42CDE902014FF0000222D11A4BDDE90C01FDF7C8FF02460B46DDE90201FEF704FC002840F08B80DDE90C2300201149FDF7B7FF02460B46DDE9C3
:406F00000201FEF7D7FBD8B114F8013C621E302B40F0B7821446F7E7054BFEF759F9CDE90201C0E7C8900000A09100000000F03F0000244000001C40000014400000E03F57
:406F4000DDE90E34CDE90234139B002B7CDBBBF10E0F79DCAB4B03EBCB03D3E900671F9B002B14DA059B002B11DC40F06C810022A54B30463946FEF72BF9DDE90223FEF752
:406F8000ADFB059D2E46002840F05F8165E1069CDDE9028932463B4640464946FEF742FAFEF7B0FB0546FEF7ADF832463B46FEF70FF90B46024649464046FDF755FF05F1FC
:406FC000300E069B04F801EBC3EB040E059B73452DD102460B46FDF749FF8046894602460B4630463946FEF765FB78B942464B4630463946FEF754FB002800F04482EB0714
:4070000004D440E2DDF820B000E01C4614F8012C631E392A07D1069A9A42F6D1069930220BF1010B0A701A7801321A702BE20022764BFEF7CDF80022002380468946FEF7FC
:407040002FFB0028A6D01EE20A9A002A2BD01E9A012A0ADC119A12B103F2334302E0129BC3F136033D46444613E0059B5D1EAF42BFBF0B9BEA1B9B180B93059BB6BF2F4651
:407080007D1B0025002BA7BF4446059BC3EB08040023079A01211A4450469844079200F001FB064602E03D4644460A9E5CB1079B002B08DDA342A8BF2346079AC3EB0808AD
:4070C000E41AD31A0793002F1DDD0A9BABB18DB131462A46504600F07FFB049A01460646504600F0E8FA04990890504600F03BFA089B04937A1B06D000E03A4604995046FB
:4071000000F06AFB04900121504600F0CBFA0B9B05465BB31A460146504600F05DFB1E9B0546012B18DC029B83B9039BC3F3130373B9039B23F000473F0D3F054FB1079BB8
:4071400008F1010801330793012702E0002700E0029F0B9B73B100E000272B6905EB8303186900F052FAC0F1200004E01E9B012BD9DD0B9F0120079B184410F01F0008D0E5
:40718000C0F12003042B02DDC0F11C0002E006D018461C30079B8044034404440793B8F1000F05DD42460499504600F063FB0490079B002B05DD29461A46504600F05AFB9F
:4071C0000546109B23B32946049800F0A4FB00281EDA00230A220499504600F0DBF90A9B0BF1FF3B0490002B00F05F81314600230A22504600F0CEF9B9F1000F06463FDC26
:407200003BE000BFC89000000000144000002440059B002B2BDC1E9B022B28DDDDF81490B9F1000F11D129464B460522504600F0B1F901460546049800F06DFB00280CDCA6
