:4000000000800020110000006D1E00006D1E000008B5044B1A6803F53F5302331A6001F045FF00BFFA46004010B5054C237833B9044B13B10448AFF300800123237010BD1C
:40004000A081FF1F00000000A0870000084B10B51BB108490848AFF300800848036803B910BD074B002BFBD0BDE81040184700BF00000000A481FF1FA0870000C880FF1F04
:400080000000000008B502F0B7F920B102F0AEF908B102F0CFFA02F0A9F908BD08B5FFF7F1FF02F0A3F920B102F038FB18B1012008BD002008BD002008BD00BF30B591B025
:4000C000FFF7ECFF002837D0684602F03FFBC0B200232EE010AA1A4412F8402C59490978C9B2594C62540D2A03D00A2A01D0212A10D154490A78D2B20025534CA5540A78CF
:4001000012F0FF0F02D00121504A117000214D4A117004E04B490A780132D2B20A70494A1278D2B23F2A02D90021464A11700133DBB28342CED33AE001F066FF002836D060
:40014000434D2C78E4B201F049FF424A10552B78DBB2D35CDBB20D2B0BD02B78DBB2D35CDBB20A2B05D02B78DBB2D35CDBB2212B10D1374A1378DBB200203649C85413789E
:4001800013F0FF0F02D00222304B1A700022304B1A7004E02E4A13780133DBB213702C4B1B78DBB23F2B02D90022294B1A70274B1B7813F0FF0F3FD0244B1B78DBB2022B04
:4001C00001D0214C00E0234C2349204606F0C0FA844205D11D4B01225A7000221A702BE01E49204606F0B4FA844205D1174B01229A7000221A701FE01949204606F0A8FAA1
:40020000844205D1114B0122DA7000221A7013E01449204606F09CFA844204D10B4B0022DA701A7008E01049204606F091FA844202D10022054B1A7004F092FB04F010FB47
:4002400011B030BD2C86FF1F3486FF1FBC81FF1FB786FF1F7486FF1FA8870000B0870000B8870000C0870000C887000049B9012318467047FFF706FF02F05CFA38B901347B
:4002800003E070B50D4606460024092CF2D902F051FA034680B12946304602F017FA402D09D102F047FA0028FBD00021084602F00DFA012300E00123184670BD01230370B5
:4002C000802380F87F30002304E0C218991D517001339BB27D2BF8D9002305E0C218BE2182F8801001339BB27D2BF7D9704700BF2DE9F041044600F10108594D424659494D
:40030000284606F0BFF9284606F01AFA81B22846FFF7ACFF284601F08FFE04F077FAC4EB0424514B1C4400237F22214694F8FE0004F0E6F900242CE004F050FA10F0020FBC
:4003400033D143A3D3E900233046394605F0DAF9F0B1464F424D07F1200E3E460FCE28606960AA60EB60374610357645F5D1306828603B4D284606F0E3F981B22846FFF743
:4003800075FF284601F058FE04F006F803F0F0FF0134204604F0BAFE06460F462EA3D3E9002305F09BF90028C6D104F017FA10F0800F39D02A4C2E4D0FCD20606160A260B3
:4003C000E360286820612B792375204606F0B8F981B22046FFF74AFF204601F02DFE04F0FDF910F0200F0FD0224B03CB206061601B882381204606F0A3F981B22046FFF7C4
:4004000035FF204601F018FE154C1B4B1A889B782280A370204606F093F981B22046FFF725FF204601F008FE0D4C42461349204606F028F9204606F083F981B22046FFF7D1
:4004400015FF204601F0F8FDBDE8F081AFF3008000000000FC69184100000000006A1841F081FF1FD48700003082FF1FEC8700001088000028880000648800003488000046
:400480002DE9F04F83B000900191934601244FF000094D4645E003F001FC012003F006FC0028FAD003F01AFC03F04EFC0746601E05F06AFA8046204605F066FA064601461E
:4004C000404605F06DFB8246781B05F061FA80460146504605F0B0FA0146404605F0ACFA8046484605F054FA414605F09DF905F0F3FB8146384605F04BFA0746284605F009
:4005000047FA05460146384605F08CF9314605F047FB0146284605F087F905F0DDFB054601345C45B7D3009B1D60019BC3F8009003B0BDE8F08F00BF30B583B05A2003F086
:4005400017FDFE2003F0AEFC00241EE00023009302AD45F8043DE0B203F0A4FC642229466846FFF78DFF0B4D009A0B49284606F089F8284606F0E4F881B22846FFF776FEE7
:40058000284601F059FD0134A4B2FF2CDED903B030BD00BFF081FF1F4C88000010B5002407E0C4EB04230B481844FFF787FE0134E4B2032CF5D9074B662283F8FE20112219
:4005C00083F8FD21442283F8FC22222283F8FB2310BD00BF3082FF1F08B50138C3B2212B0CD80139C8B2032808D8C0EB002204490A441344C0225A70FFF77AFE08BD00BF73
:400600003082FF1F0138C0B23F2813D808B54B1EDBB2032B0DD8012B03D91F2809D9202302E01F2805D80023C01A0130C0B2FFF7D3FF08BD704700BF08B50138C3B23F2B35
:4006400016D80139C8B2032812D8012803D91F2B0ED9202202E01F2B0AD800229B1AC0EB002204490A441344D1225A70FFF740FE08BD00BF3082FF1F38B50138C5B20024A1
:4006800015E0012C03D91F2D0FD9202302E01F2D0BD80023EA1AC4EB042306490B441344D1225A702046FFF723FE0134E4B2032CE7D938BD3082FF1F10B5002411E0C4EB80
:4006C000042209490A441A44D12151700133DBB200E000231F2BF2D92046FFF709FE0134E4B2012CF5D910BD3082FF1F08B50138C0B2002308E0C0EB002206490A441A4449
:40070000D12151700133DBB21F2BF4D9FFF7F0FD08BD00BF3082FF1F08B50138032816D8DFE800F002070C1101212120FFF754FF08BD02212120FFF74FFF08BD03212120C8
:40074000FFF74AFF08BD04212120FFF745FF08BD10B5012404E02046FFF7DEFF0134E4B2022CF8D910BD00BF2DE9F04F87B002900391934600233E4A1370059306A941F87A
:40078000083D032205A8FFF77BFE01244FF00008C1465DE0012204A905A8FFF771FE059805F0F6F8334905F047F9054605F094FA0028B8BF404204F0B9FC2BA3D3E90023AB
:4007C00004F0AAFF20B12A4A13780133137041E00022274B1A70204605F0D6F8824604F0B7FC06460F460022234B04F051FB32463B4604F02BFECDE900014946284605F0CE
:4008000011F8054604F0A4FC06460F4602460B46DDE9000104F0F0FC02460B463046394604F0EAFC06460F46404604F091FC32463B4604F02FFB04F0A1FF80465146284669
:4008400005F0AEF90146484604F0EEFF814601345C459FD9029BC3F80090039BC3F8008007B0BDE8F08F00BFF168E388B5F8E43EB686FF1FFFE65BAE0000F03F00000000AC
:4008800000B583B00022124B1A700023019302A941F8083D032201A8FFF766FF019805F01BFA0028B8BF404204F040FC06A3D3E9002304F031FF18B10120054B187000E0FC
:4008C000002003B05DF804FBF168E388B5F8E43EB686FF1F70B5174B1C78E4B2023B1D78EDB2AC4201D301260AE04FF0FF3607E0204603F03DFBFFF7C3FFD0B13444E4B2BC
:40090000AC42F5D10C4B1C78E4B2033B1D78EDB2AC4201D301260AE04FF0FF3607E0204603F0C0FAFFF7ACFF18B13444E4B2AC42F5D170BD825B0040835B00402DE9F041F4
:400940008046184B1B78C31A174A1380174B1D78EDB2A84201D3012601E04FF0FF3600271BE0FFF78DFF48B912E0204603F000FBFFF786FF98B1A41BE4B200E03C46AC42C6
:40098000F3D1FFF77DFF18B1FFF7A4FFBDE8F081384603F0EDFA3744FFB24745E1D1BDE8F08100BF805B0040B486FF1F825B00402DE9F0418046184B1B78C31A174A13808E
:4009C000174B1D78EDB2A84201D3012601E04FF0FF362F461BE0FFF753FF48B912E0204603F060FAFFF74CFF98B1A41BE4B200E03C46AC42F3D1FFF743FF18B1FFF76AFF76
:400A0000BDE8F081384603F04DFA3744FFB24745E1D1BDE8F08100BF805B00402E86FF1F835B00402DE9F04107461A4B1B78DBB2834202D84FF0010801E04FF0FF38154BE7
:400A40001E78F6B222E0FFF71BFF08BBB4B2124B1D8825442DB2114B1B881C4424B2FF2D00DDFF25FF2C00DDFF24002D00DA0025002C00DA0024304603F0EAFBE8B203F0F5
:400A800011FAE0B203F074FA4644F6B2BE42DAD1BDE8F081805B00402E86FF1FB486FF1F10B50446FF2800DDFF2414F1FF0F01DA6FF0FE04114B1878204480B203B2FF2B1A
:400AC0000ADD0E4B1B78181A0138C0B2FFF7AAFFFF20FFF733FF0EE0002B09DA074B1B78181AC0B2FFF79EFF0020FFF727FF02E0C0B2FFF723FF024B1C8010BD805B0040CF
:400B0000B486FF1F10B50446FF2800DDFF2414F1FF0F01DA6FF0FE04114B1878204480B203B2FF2B0ADD0E4B1B78181A0138C0B2FFF778FFFF20FFF73BFF0EE0002B09DA0F
:400B4000074B1B78181AC0B2FFF76CFF0020FFF72FFF02E0C0B2FFF72BFF024B1C8010BD805B00402E86FF1F08B504F0F1FA08A3D3E9002304F06AFC07A3D3E9002304F033
:400B80003BFB04F0D3FD00B2FFF7BCFF08BD00BF52B81E85EB5110400000000000E06F4008B504F0D5FA08A3D3E9002304F04EFC07A3D3E9002304F01FFB04F0B7FD00B253
:400BC000FFF76EFF08BD00BF52B81E85EB5110400000000000E06F4008B5034904F0E0FFFFF7C2FF08BD00BF00007A4408B5034904F0D6FFFFF7D4FF08BD00BF00007A4494
:400C000008B5094B187804F091FA05A3D3E9002304F0F2FA04F0B2FD044B1B7808BD00BFFCA9F1D24D62903F805B00402058004038B50F4B187804F079FA0BA3D3E90023A0
:400C400004F0DAFA04460D46FFF7DAFF04F080FA02460B462046294604F01AF904F08EFD044B1B7838BD00BFFCA9F1D24D62903F835B00402C58004038B50F4B187804F0B5
:400C800055FA0BA3D3E9002304F0B6FA04460D46FFF7B6FF04F05CFA02460B462046294604F0F6F804F06AFD044B1B7838BD00BFFCA9F1D24D62903F825B0040285800401E
:400CC00008B50020FFF73AFE0020FFF771FE002003F04EF9002003F0E5F808BD000000002DE9F0478AB0002309930AA941F8083D642209A8FFF7C4FB099804F017FA2AA37F
:400D0000D3E9002304F078FA04F038FD044603F0FBFE04F015F8012003F0FEFE0028FAD0012004F015F80028FAD003F007FF03F011FF814604F01EF804F028F88246FFF759
:400D400077FF0546FFF798FF8046204604F000FA06460F46164C504604F0FAF9CDE90601484604F0F5F9CDE90401404604F0F0F9CDE90201284604F0EBF9CDE90001324612
:400D80003B460C49204605F07DFC204605F0D8FC81B22046FFF76AFA204601F04DF90AB0BDE8F087AFF30080BABDD7D9DF7CCBBDF081FF1F5488000038B50546002402E01F
:400DC000FFF78EFF0134AC42FAD338BD000000002DE9F04F91B00D90594BB3F90030002B07DDC3F1FE00C0B2FFF71CFE00230C9397E0FE20FFF716FEF8E70C9B13F0010F9B
:400E000007D14FF0F008002710263B464746984681E04FF00008F0276FF00F063B464746984678E000230E930F93012C04D16FEA0800C0B2FFF7F6FD4046FFF7B9FD21224A
:400E40000FA90EA8FFF71CFB0E9804F06FF93AA3D3E9002304F0D0F904F090FC054603F053FE03F06DFF012003F056FE0028FAD0012003F06DFF0028FAD003F05FFE03F0FF
:400E800069FE824603F076FF03F080FF8346FFF7CFFE0990FFF7F0FE8146284604F058F9CDE90A01274D584604F052F9CDE90601504604F04DF9CDE90401484604F048F989
:400EC000CDE90201099804F043F9CDE90001DDE90A231D49284605F0D5FB284605F030FC81B22846FFF7C2F9284601F0A5F8174B5B7813F0FF0F0AD1144BDB7813F0FF0F64
:400F0000FAD10134E4B200E00024012C8AD908EB06035FFA83F84745F6D10C9B0133DBB20C930C9B0D9A93427FF667AF11B0BDE8F08F00BFAFF30080BABDD7D9DF7CCBBDDF
:400F4000B486FF1FF081FF1F54880000BC81FF1F2DE9F04F91B00D90FE20FFF763FD00230C9393E00C9B13F0010F07D14FF0F008002710263B464746984681E04FF00008BD
:400F8000F0276FF00F063B464746984678E000230E930F93012C04D16FEA0800C0B2FFF741FD4046FFF704FD21220FA90EA8FFF767FA0E9804F0BAF839A3D3E9002304F073
:400FC0001BF904F0DBFB054603F09EFD03F0B8FE012003F0A1FD0028FAD0012003F0B8FE0028FAD003F0AAFD03F0B4FD824603F0C1FE03F0CBFE8346FFF71AFE0990FFF757
:401000003BFE8146284604F0A3F8CDE90A01264D584604F09DF8CDE90601504604F098F8CDE90401484604F093F8CDE90201099804F08EF8CDE90001DDE90A231B49284669
:4010400005F020FB284605F07BFB81B22846FFF70DF9284600F0F0FF154B5B7813F0FF0F0AD1134BDB7813F0FF0FFAD10134E4B200E00024012C8AD908EB06035FFA83F8C2
:401080004745F6D10C9B0133DBB20C930C9B0D9A93427FF667AF11B0BDE8F08FAFF30080BABDD7D9DF7CCBBDF081FF1F54880000BC81FF1F2DE9F04107468846012437E0B3
:4010C000661CF6B2FFF7F8FAFFF7FAFDFFF740FB01212046FFF796FA02213046FFF792FA154D22461549284605F0CCFA284605F027FB81B22846FFF7B9F8284600F09CFF80
:401100001FB14046FFF724FF02E04046FFF760FE0B4B9B7813F0FF0F0CD1094B5B7813F0FF0F07D1064BDB7813F0FF0FFAD13446202CC5D9BDE8F081F081FF1F68880000A4
:40114000BC81FF1F3F2847D82DE9F84304460F46904699463F293BD9BDE8F883661CF6B2FFF7AAFAFFF7ACFDFFF7F2FA01212046FFF748FA02213046FFF744FA174D2246AF
:401180001749284605F07EFA284605F0D9FA81B22846FFF76BF8284600F04EFFB8F1000F03D04846FFF7D4FE02E04846FFF710FE0C4B9B7813F0FF0F0CD10A4B5B7813F041
:4011C000FF0F07D1074BDB7813F0FF0FFAD13446BC42C3D9BDE8F883704700BFF081FF1F68880000BC81FF1FF0B583B062B6FFF7D5F90121002001F0C1F800F0E1FE02F0A3
:40120000EFFE02F087FE03F05BF802F033FD02F01FFE03F0ADF803F069FC03F083FD4FF47A7000F02BFFAF4800F006FFFFF790FA0023AD4A1370AD4A1370AD4A137003F039
:4012400053FBAC4803F07EFB6422AB4B1A60A64B00225A709A701B7813F0FF0FF7D0A24B1B78DBB2022B01D0A44C00E0A44C00229D4B1A70A349204605F06AFA844202D1D5
:40128000FFF72EFDE3E7A049204605F061FA84420CD12021204605F045FA02A941F8040D0A2205F0F5FAFFF787FDD0E79749204605F04EFA844202D1FFF73EF9C7E794491C
:4012C000204605F045FA844203D10020FFF780FDBDE79049204605F03BFA844203D10120FFF776FDB3E78C49204605F031FA84420DD12021204605F015FA02A941F8040DBD
:401300000A2205F0C5FAC0B2FFF752FB9FE78349204605F01DFA84420DD12021204605F001FA02A941F8040D0A2205F0B1FAC0B2FFF704FB8BE77A49204605F009FA844298
:401340000DD12021204605F0EDF902A941F8040D0A2205F09DFA40B2FFF7D4FB77E77149204605F0F5F984420DD12021204605F0D9F902A941F8040D0A2205F089FA40B2AB
:40138000FFF78EFB63E76849204605F0E1F984420ED12021204605F0C5F902AA002342F8043D624905F092F90198FFF7DDFB4EE75F49204605F0CCF984420ED1202120465A
:4013C00005F0B0F902AA002342F8043D574905F07DF90198FFF7E4FB39E75649204605F0B7F9844223D12021204605F09BF902A941F8040D0A2205F04BFA04F0C9FA04467C
:40140000FFF7EAFB204603F0A3FE4B4C02460B464A49204605F036F9204605F091F981B22046FEF723FF204600F006FE0FE74449204605F08DF9844223D12021204605F0E1
:4014400071F902A941F8040D0A2205F021FA04F09FFA0446FFF7CAFB204603F079FE364C02460B463749204605F00CF9204605F067F981B22046FEF7F9FE204600F0DCFD05
:40148000E5E63149204605F063F9844262D12A4C2E4D0FCD20606160A260E36028682061204605F04DF981B22046FEF7DFFE204600F0C2FD00210846FFF7FCFD244D0FCD07
:4014C00020606160A260E36028682061204605F037F981B22046FEF7C9FE204600F0ACFDB5E600BF70880000BC81FF1FB786FF1F2C86FF1FBD0000003086FF1F3486FF1F35
:401500007486FF1F808800008C880000A0880000B0880000C4880000E0880000F08800000089000010890000208900002C890000308900003C890000F081FF1F488900008D
:40154000608900006C890000848900008C890000A0890000CD49204605F0FAF8844242D1CB4DCC4E0FCE28606960AA60EB6003CE2861696133882B83284605F0E1F881B255
:401580002846FEF773FE284600F056FD2021204605F0C8F802AC44F8040D0A22214605F077F9C6B20A222146019805F071F900231A46C1B23046FFF7C5FDB74C0FCC2860CA
:4015C0006960AA60EB6003CC2861696123882B83284605F0B5F881B22846FEF747FE284600F02AFD33E6AD49204605F0B1F8844248D1A74DAA4E0FCE28606960AA60EB6081
:4016000007CE28616961AA613288B378AA83AB77284605F095F881B22846FEF727FE284600F00AFD2021204605F07CF802AC44F8040D0A22214605F02BF9C6B20A22214671
:40164000019805F025F901230022C1B23046FFF779FD944C0FCC28606960AA60EB6007CC28616961AA612288A378AA83AB77284605F066F881B22846FEF7F8FD284600F0D3
:40168000DBFCE4E58849204605F062F884424DD1864F7F4D07F1200E3E460FCE28606960AA60EB60374610357645F5D130682860774D284605F044F881B22846FEF7D6FD23
:4016C000284600F0B9FC2021204605F02BF802AC44F8040D0A22214605F0DAF8C6B20A222146019805F0D4F801231A46C1B23046FFF728FD6E4E2C4606F1200735460FCD33
:4017000020606160A260E3602E461034BD42F5D1286820605E4C204605F012F881B22046FEF7A4FD204600F087FC90E56149204605F00EF8844227D12021204604F0F2FFB5
:4017400002AC44F8040D0A22214605F0A1F8C5B20A222146019805F09BF8C6B231462846FEF750FF4A4C33462A465349204604F089FF204604F0E4FF81B22046FEF776FD46
:40178000204600F059FC62E54C49204604F0E0FF844227D12021204604F0C4FF02AC44F8040D0A22214605F073F8C5B20A222146019805F06DF8C6B231462846FEF70CFF05
:4017C000334C33462A463E49204604F05BFF204604F0B6FF81B22046FEF748FD204600F02BFC34E53749204604F0B2FF844227D12021204604F096FF02AC44F8040D0A222E
:40180000214605F045F8C5B20A222146019805F03FF8C6B231462846FEF70EFF1C4C33462A462949204604F02DFF204604F088FF81B22046FEF71AFD204600F0FDFB06E5D9
:401840002249204604F084FF844243D12021204604F068FF02A941F8040D0A2205F018F8C5B22846FEF742FF094C2A461849204604F008FF204604F063FF81B22046FEF732
:40188000F5FC204600F0D8FBE1E400BFB4890000F081FF1FC0890000DC890000F88900000C8A00002C8A00004C8A0000648A0000888A0000AC8A0000B88A0000D08A00009B
:4018C000DC8A0000FC8A0000088B0000248B00003C8B00006549204604F03AFF844219D1FEF7EAFE624D634C0FCC28606960AA60EB6007CC28616961AA612388AB832846CE
:4019000004F01EFF81B22846FEF7B0FC284600F093FB9CE45849204604F01AFF84421ED12021204604F0FEFE02A941F8040D0A2204F0AEFFC5B22846FEF79EFE4C4C2A4648
:401940004E49204604F09EFE204604F0F9FE81B22046FEF78BFC204600F06EFB77E44849204604F0F5FE84421ED12021204604F0D9FE02A941F8040D0A2204F089FFC5B241
:401980002846FEF7C9FE3A4C2A463E49204604F079FE204604F0D4FE81B22046FEF766FC204600F049FB52E43749204604F0D0FE844217D1FEF7CCFE2D4D344C0FCC286051
:4019C0006960AA60EB6007CC28616961AA61284604F0B6FE81B22846FEF748FC284600F02BFB34E42A49204604F0B2FE84422AD12021204604F096FE02A941F8040D0A227E
:401A000004F046FF234B1860234C194D04F1200726460FCE28606960AA60EB6034461035BE42F5D103CC2860696023782B72104C204604F085FE81B22046FEF717FC20468A
:401A400000F0FAFA03E40A4D22461449284604F019FE284604F074FE81B22846FEF706FC284600F0E9FAFFF7F2BB00BF5C8B0000F081FF1F788B0000988B0000B08B000020
:401A8000D08B0000E88B0000088C0000208C00003C8C00003086FF1F648C0000908C0000FEE700BFF0B40022174611E050F82760F3B226F0FF0608E001EB420511F81240B3
:401AC0006D78A5550132013BDBB2002BF4D10137252FEBD9F0BC704708B50A46002104F058F908BD2DE9F0413C4B1B78DBB23C4E3478E4B23B4F3D78EDB203F007013A4A19
:401B000011701B090132137044F00303337045F003033B704AF20802344B1A80022010331870012121331970102210331A704FF0080E103383F800E04023DFF8C0C08CF80C
:401B400000304FF0000CDFF8B88088F800C008F1060888F8003008F1020888F800C0DFF8A4C08CF800E0DFF8A0E08EF800000EF1040E8EF800304FF02B0C0EF1080E8EF84D
:401B800000C04FF0030C0EF1500E8EF800C00EF1130E8EF800104FF0200C0EF1050E8EF800C00EF1680E8EF800300EF1040E8EF800000F4803700F4B197004331A70033395
:401BC0001A702D331A700A2000F06EFA3D7034704422094B1A70BDE8F08100BFCF010049F8460040F94600406E5800401C510040205B0040245B004076580040015900409A
:401C000003590040205A0040245A004008B504F0B5F808BD38B50024324B1C80502202331A700E2202331A8018232F4A13704FF49C7102321180023213700C222B492C48FA
:401C4000FFF7E4FF06222B4B1A705222A3F580731A70294B1B78DBB2284A13704FF4E162274B1A8041F25122023B1A8019250CE0244B1B7803F0010343EA440404F00304AF
:401C80004FF4F07003F0C0F8013D0DB1032CEFD115B90320FFF704FF1B4A4FF48073138007231370002319490B704820023108701370053213700222154B1A7004220A3365
:401CC0001A70144A137843F007031370013A137843F007031370013A137843F08003137038BD00BF80400040864000405009004800410040004300400F010049A14600404D
:401D00002242004025420040044000400640004001400040A243004038B572B600240CE03C4D630019194A0011462A44084691882858FFF7D1FE0134E4B2082CF0D90024BE
:401D40000CE03448A20011194B000344B3F84020D96B986BFFF75AFF0134E4B2012CF0D92D494FF09040FFF79DFE0A252B4B1D70022203F521731A70294A137843F0020383
:401D800013701032137843F002031370254C237843F040032370A2F58632513A137843F0100313702A4620492048FFF72FFF2A461F492048FFF72AFF08221F491F48FFF722
:401DC00025FF08221E491F48FFF720FF08221E491E48FFF71BFF08221D491E48FFF716FF08221D491D48FFF711FF1D4A137843F0080313701B4D01232B70FFF70BFF812331
:401E00002B70FFF76FFE0E2221461748FFF7FEFE38BD00BFB08C0000980000488358004003500140A043004010090048C05100401C090048F051004028090048125100405E
:401E400030090048225100403809004842510040400900485251004048090048625100402243004000480040B043004008B503F059FF03680C2B00D1FEE7FEE708B5094B1C
:401E80001A681044084BC31AB3F5007F02DC054B186005E003F046FF0C2303604FF0FF32104608BDCC80FF1FC887FF1F08B5104E104D16E029686B68AC68002204E051F809
:401EC000040B43F8040B0432A242F8D1E868002203E0002143F8041B04328242F9D11035013E002EE6D103F023FFFFF77DF9FEE701000000A891000008B5104A104B1A601D
:401F0000104A136843F40073136000230AE0032B03D80D4A52F8231000E00C490C4A42F8231001332F2BF2D90A4B1A780A4B1A70074A0A4B1A60FFF7EFFE08BD0004FA05E3
:401F40000CED00E014ED00E0000000006D1E00000080FF1FBC760040C080FF1F08ED00E07222084B1A702022033B1A700622A3F5AD731A70472210331A7000224B331A7094
:401F8000704700BF8B65004010B502F045FF04460A4A137843F020031370033A137843F010031370FF3A137843F01003137000F055F8204602F034FF10BD00BF9B650040CC
:401FC00008B5054B1B7823B9FFF7CAFF0122024B1A70FFF7D9FF08BDC081FF1F084B1B78DBB213F0200F06D0064A1078C0B213F01E0F02D17047002070470020704700BFCE
:402000006865004048650040044B1B7813F0200F01D0012070470020704700BF68650040034B1B7813F0040FFAD1024B18707047696400404964004038B5074B1B782BB948
:4020400038BDFFF7EDFF0134A4B201E005460024285D0028F5D138BDC081FF1F054A137843F0040313701032137843F004031370704700BFA243004001BE704710B50446A6
:4020800005E0084B186802F0BFFEA4F50044B4F5004FF6D8034B586800FB04F002F0B4FE10BD00BFD080FF1F08B5034B1B7A00FB03F002F0A9FE08BDD080FF1F70B50446B2
:4020C0000E46074B1D681F2802D90020FFF7D4FF04F01F04103455F8240045F8246070BD08ED00E038B504460D46072902D90020FFF7C2FF1F2C02D90020FFF7BDFF04F0C3
:402100001F0000F1604000F564406D01EDB2057038BD00BF134B1B78DBB20360124A127843EA02230360114A127843EA024303600F4A127843EA026303600E4B1B78DBB299
:4021400043600D4A127843EA022343600B4A127843EA024343600A4A127843EA02634360704700BF0301004904010049EC460040020100490101004900010049050100492C
:4021800006010049F8B502F047FE0546404A137843F0010313701032137843F00103137001273C4B1F700226943B1E7002F5E2521B32137803F07F0313700020FFF774FF03
:4021C000354C237803F0F9032370344A137803F0DF03137023783B4323703846FFF764FF2820FFF761FF2E4B1A7802F07F021A701A7802F0BF021A702378334323703046CE
:40220000FFF752FF237843F0040323700023254A137001321370284602F002FE07211720FFF760FF20491720FFF748FF07211820FFF758FF1D491820FFF740FF0721152056
:40224000FFF750FF1A491520FFF738FF07210320FFF748FF17490320FFF730FF07210420FFF740FF14490420FFF728FF07210520FFF738FF11490520FFF720FF07210C20A3
:40228000FFF730FF0E490C20FFF718FFF8BD00BFA54300409D6000409443004012600040F851004084600040E52C0000CD2A0000E12C0000412C0000712C0000A52C00002A
:4022C000ED2C000008B5214B18700023204A1370204A1370204A1370204A1370204A1370204A1370204A1370204B4FF400021A604FF080721A604FF400121A6008221A602E
:4023000010221A6020221A6011B1012906D00BE0174A137803F0FE0313700AE0144A137843F00103137004E0114A137843F00103137003220F4B1A708022203B1A70012063
:4023400002F062FD04220C4B1A7008BDD186FF1FD486FF1FF086FF1FF386FF1FE886FF1FF286FF1FF586FF1FD086FF1F00E100E009600040286000401260004038B50446DE
:402380000D46064B1B7823B9FFF7FCFE0122034B1A7029462046FFF795FF38BDC281FF1F00230A4A13700A4A13700A4A13700A4A13700A4A13700A4A13700A4A1370032241
:4023C000094B1A708022203B1A707047D486FF1FF086FF1FF386FF1FE886FF1FF286FF1FF586FF1FD086FF1F28600040014B1878704700BFF386FF1F064B1B7813F0FF0F49
:4024000005D0044B1878C0B200221A7070470020704700BFF086FF1F00EB40008300024A13445878704700BFF886FF1F431EDBB2072B0BD8064B00011A18185C00F00F00BC
:40244000537843EA0020023880B2704700207047FC5F0040431EDBB2072B3CD8F0B4074600EB4004A3001C4C2344DB889BB2C3F500739A4208D900EB400293002344DA88C8
:4024800092B2C2F5007292B200EB4004A300124C2344DB7843EA1223104D04012E192B55D3B2737039B909E0CE5C3D010C4C665501339BB200E000239A42F5D84200024483
:4024C0009300054A134400225A705A79D2B20001044B1A54F0BC7047F886FF1FFC5F004078600040FE5F0040431EDBB2072B0BD8420002449300054A134400225A705A79D0
:40250000D2B20001024B1A54704700BFF886FF1FFE5F004070B5D9B1054614460E46C8B1082819D8FFF782FFA04203D22846FFF77DFF0446002305E02901094A525CF25499
:4025400001339BB2A342F7D32846FFF7CDFF04E0002402E0002400E00024204670BD00BF7860004010B4FF2400230EE0094AD25C02EB42029100084A11448A7AD2B2824251
:4025800001D11C4602230133DBB2012BEED9204610BC7047C086FF1FF886FF1F10B5204C2079FFF7DFFF237813F0800F0ED06378DBB2212B2FD11B4B07221A80C0EBC00034
:4025C000194A1044586000F0EFFA10BD144B5B78DBB2202B02D0222B10D01EE0114A07231380C0EBC00310490B4453600F4A135C43F00103135400F0FFFA10BD084B9B785C
:402600000B4A22F81030094A135C43F00203135400F088F910BD002010BD002010BD00BF00600040DC86FF1FE080FF1FB886FF1FCC86FF1F10B500241F4B1C701F4B1C7074
:402640005C700AE01E4B185DC0B2431EDBB2072B01D8FFF749FF0134E4B2012CF2D9194B1B7813F0FF0F1AD0154B1B7813F0FF0F17D0154B1B7813F0FF0F14D0114B1B78A6
:40268000DBB2082B11D80E4B1B78DBB2082B0ED80D4B1B78DBB2082B0BD8002010BD012010BD012010BD012010BD012010BD012010BD012010BD00BFC381FF1FB886FF1F53
:4026C000C486FF1FBC86FF1FC086FF1F70B506460D460F4B1B780F4AD45CE4B204EB440293000D4A13441B899BB28B4209D204EB44029300084A13441D89ADB20020FFF743
:40270000BBFC2A4631462046FFF7A4FE70BD00BFC381FF1FBC86FF1FF886FF1F08B5034B1B78034AD05CFFF777FE08BDC381FF1FC486FF1F08B5034B1B78034AD05CFFF795
:402740006BFE08BDC381FF1FBC86FF1F08B5084B1B78084AD35CDBB203EB43018A0006490A44128992B201461846FFF7D3FE08BDC381FF1FC486FF1FF886FF1FC37803F0BB
:40278000030390F9020000280FDA032B06D002F001030B48C15442F001020EE0C2F380030848C15442F0040207E0032B05D0C2F340030548C15442F002021046704700BFD7
:4027C000BC86FF1FC086FF1FC486FF1F1D4B19781D4A13889BB20B449BB2138000220FE01A494B681B78DBB2194883544B6801334B600132D2B20B889BB2013B9BB20B807A
:40280000124B1B889BB20BB1072AE9D90D4B1B78DBB2082B00D05AB10E490B7883F080030B700F210C4B197002210C4B197004E0022309490B7009490B70094B1A70014BEB
:402840001A707047D086FF1FD286FF1FDC86FF1F006000406687FF1FF186FF1FD486FF1FF486FF1F0222074B1A708022064B1A700F22064B1A700023054A1370054A13700D
:4028800001207047D486FF1F6687FF1FF186FF1FD086FF1FF486FF1F08B5FFF797FF08BD10B4194B197801F00F010239C9B2174A13889BB20B449BB21380002011E0144AB7
:4028C0005468144B1B5CDBB223705368013353600130C0B20139C9B213889BB2013B9BB213800B4B1B889BB20BB10029E7D10A4B19700A4A137883F0800313700B22084B8F
:402900001A7010BC704700BF29600040D286FF1FDC86FF1F00600040F486FF1F6687FF1FF186FF1F0623064A1370064A13708022054B1A700022054B1A700120704700BF56
:40294000D486FF1FF186FF1F6687FF1FF486FF1F064B9B6843B1054B9A6810709A6804490988518000229A60704700BFDC86FF1FD286FF1F08B5134B1A78D2B21A701B7806
:40298000DBB213F0800F02D00F4A137008BD0220FFF7DEFF0D4B1B7803F06003202B05D0402B06D043B900F093FC06E002F03CFA03E000F037FE00E0002010B90322024B22
:4029C0001A7008BD28600040F186FF1F0060004008B5094B1978094A13889BB20B449BB213800022064B1A700120FFF7B1FF0322044B1A7008BD00BFD086FF1FD286FF1F4F
:402A0000D486FF1FF186FF1F08B50B4B1B78DBB2042B06D0062B07D0022B0BD1FFF7D8FF08BDFFF73DFF08BD0320FFF791FF0322024B1A7008BD00BFD486FF1FF186FF1F81
:402A400008B50022044B1A700120FFF781FF0322024B1A7008BD00BFD486FF1FF186FF1F08B50B4B1B7813F0FF0F07D0084A137843F0800307490B70002313700022064B75
:402A80001A700120FFF764FF0322044B1A7008BDF286FF1F08600040D486FF1FF186FF1F08B5094B1B78DBB2042B06D0062B07D0022B07D1FFF7F0FE08BDFFF7C1FF08BD9D
:402AC000FFF7CEFF08BD00BFD486FF1F08B5284B1B78DBB213F0100F48D013F0800F0CD003F00F03012B16D1FFF744FF214B1B7813F0800F11D1012312E013F0400F03D020
:402B0000FFF7CEFF01230BE013F0200F07D0FFF77BFF012304E0002302E0002300E0002323B3134B1B7813F0800F1FD1124B1B78124A12781343124A13701278D2B29342E0
:402B400014D10C4B1B78DBB2094A127812F0800F07D1084B1B78DBB2054A1370137803F00F03044A1278D2B29342EAD108BD00BF28600040F186FF1F6687FF1FF486FF1F6E
:402B8000296000400022064B1A80064B9B682BB1044A916800230B7092685380704700BFD286FF1FDC86FF1F08B50F4B1B889BB213B9FFF757FE15E002220C4B1A700022B7
:402BC0000B4B1A70FFF7DEFF0A4AD179937943EA0123054A128892B2934201D2024A1380FFF7F4FD012008BDDC86FF1FD486FF1F6687FF1F0060004008B504220B4B1A7040
:402C000080220B4B1A70FFF7BDFF0A4AD179937943EA0123084A128892B2934201D2064A13800B22054B1A70012008BDD486FF1F6687FF1F00600040DC86FF1FF186FF1F85
:402C40000122094B1A700F3B9B7C084B1B7B03F00303934204D0054AD37B83F08003D3730122024B5A7370470B600040F886FF1F02220A4B1A700F3B93F82230084B1B7E3D
:402C800003F00303012B04D0054AD37E83F08003D3760122024B5A76704700BF0B600040F886FF1F04220C4B1A700F3B93F832300A4B93F8243003F00303012B06D0074A81
:402CC00092F8273083F0800382F827300122034B83F82520704700BF0B600040F886FF1F704700BF08B5FFF75BFB08BD08B500F0A5FC08BD70B588B0054603AC174E0FCE4E
:402D00000FC43368237035B322232B7003236B7001A8FFF7FFF9002402231AE008AA224412F81C2C08A901EB121111F8141CE954581C00212954981C02F00F0208AE32445A
:402D400012F8142C2A54DA1CA9540134E4B20433DBB2212BE2D908B070BD00BFFC8C000010B401233EE019461A010C242148845403EB4300820020480244527912F0FF0FA9
:402D800013D003EB430082001B480244127912F0800F04D01801194A024494700AE01801164A02440820907004E01801134A0244802090704800084482000F480244D488FE
:402DC000E4B208010B4901448C71D088C0F30720C871D088C0B20871D288C2F307224A710133DBB2082BBED9FF22054B1A7010BC704700BF70600040F886FF1FFC5F0040EE
:402E00000A600040074B1A78074B03EBC2035B681A7C824204D9C000103018444068704700207047D186FF1F108D0000F8B5404B1B7813F0FF0F79D03D4B18780138C0B279
:402E4000FFF7E0FF047AC2683A4B1878C0B200236AE01178884264D13749095CC9B25578A9425ED1917801F07F01D67806F00306DFF8C8E04D000D44AF000EEB07054FF03B
:402E8000000C85F803C092F802C085F804C092F803C00EF807C097882F8192F90250002D0DDA012E01D1072700E00D274E000E44B500224E35446F7101266E700CE0012EDE
:402EC00001D1052700E009274E000E44B5001B4E35446F7100266E70DFF868E00F010EEB07060125B57001FA05F529448D00134929440D89C5F307250EF807500D89EDB265
:402F00007570CE88F6B20E4D3D44AE71CE88C6F30726EE71CE88F6B22E71C988C1F30721697108320133DBB2A34292D3F8BD00BFF386FF1FE886FF1F6487FF1FF886FF1FF3
:402F400070600040FC5F0040034B1A78034B03EBC2035868704700BFD186FF1F108D000008B5084B18780138C0B2FFF74BFF30B142681279023200EBC203586808BD002053
:402F800008BD00BFF386FF1F2DE9F047002310E0724D5900CA189600AC190022AA55A270E2702281A272627034462C4462710133DBB2082BECD940B90AE000226849CA54E9
:402FC0006849CA540133DBB200E00023012BF4D9654B1B7813F0FF0F00F0BD80624B18780138C0B2FFF70EFF80464368DB7913F0400F05D05D4A137843F00103137004E01D
:403000005A4A137803F0FE03137098F808704FF0000A01266FE0D8F80C50002467E0AB7803F07F039E425FD1314606EB460083004A4803441B899BB2A888834206D206EB2B
:40304000460E4FEA8E03454A134418812B784448C35CDBB26878834246D195F802C0DFF8FCE04B000B4498000EEB000383F804C0EB780EF80030EB7803F0030395F9020028
:40308000002813DA012B02D14FF0070901E04FF00D09DFF8C8E04B0003EB010C4FEA8C00704480F805900121417012E0012B02D14FF0050901E04FF00909DFF8A0E04B0047
:4030C00003EB010C4FEA8C00704480F8059000214170AB790A2B01D0022B05D1524631462846FFF74BFB824608350134E4B2BC4295D30136F6B2082E8DD9D8F80C000022E8
:403100000CE0837803F07F0310F8084B03EB43039900124B19448C720132D2B2BA42F0D3FFF71EFF124B1860002301210FE00B4D4A00501884002C44E380228992B213441A
:403140009BB203F0010213449BB20131C9B20829EDD9FFF705FEBDE8F08700BFF886FF1F6487FF1FD886FF1FF386FF1FF586FF1FEC86FF1F08B5154B1B7903F07F035A1E71
:40318000D2B2072A20D8590019448A0010490A44917841F0010191700021D170517841F002015170127912F0800F05D01B01094A1A448D23937004E01B01064A1A44892353
:4031C0009370FFF7AFFB08BD002008BD00600040F886FF1FFC5F0040274B1B7903F07F035A1ED2B2072A44D810B5590019448A0022490A44917801F0FE0191700021D170CD
:403200001F4C1801215C01F07F012154517801F0FD015170127912F0800F13D003EB43018A0016490A445278D2B2012A04D1224602440C23937019E01B01114A1A440D239A
:40324000937013E003EB43018A000C490A445278D2B2012A05D11B01094A1A440823937004E01B01064A1A4409239370FFF75AFB10BD0020704700BF00600040F886FF1FE8
:40328000FC5F004010B50E4B1C79E4B20D4B18780138C0B2FFF7B6FD43681B799C4201D9022C0AD8084A135DDBB208490B55044B9B78DBB21355012010BD002010BD00BFF6
:4032C00000600040F386FF1F6487FF1FD886FF1F10B59C4B1B78DBB200219B4A118013F0800F00F0AD80974A5278D2B20A2A00F27481DFE812F069007201720172017201B8
:4033000072010B007201920072019A008D4BDB78DBB2012B09D1FFF717FE42688A4B5A6012221A80FFF740FC10BD864BDB78DBB2022B13D1834B9878FFF764FD002800F01F
:403340004E814268804B5A605A68D1785A68927842EA01221A80FFF727FC10BD794BDB78DBB2032B05D02CE00A7811440133DBB201E000237549734A9278D2B2934203D2A7
:403380000A7812F0FF0FEFD16E4B9B7813F0FF0F0BD06C4B9B78DBB26D4A127C934204D16C4C2046FFF7A6FC21460B7813F0FF0F00F017810B78644A13805160FFF7F4FB2A
:4033C00010BD01F031FD10BD13F0030317D0022B40F009815C490B805A4B1B7903F07F0303EB43039A005C4B1A449278D2B25B4B1A7000225A704B60FFF7D6FB10BD524908
:4034000002230B80564B1A78D2B2544B1A7000225A704B60FFF7C8FB10BD4B4B01221A80504A5A60FFF7C0FB10BD474A01231380444B1B794C490B445360FFF7B5FB10BD45
:40344000404A5278013A0A2A00F2CF80DFE812F04C00CD009800CD000B00CD00CD00CD001300CD003000374B9B78DBB23F4A1370FFF758FA10BD334B9B7803F0FF041BB1E9
:40348000601EC0B2FFF7BEFC04B110B9002C40F0AE80344B1B78DBB29C4206D0314B1C700120334B1870FFF76FFDFFF73BFA10BDFFF7E8FE002800F09C80224A1379DBB2F3
:4034C0001279D2B22B490A702B4AD25CD2B22649CB5CDBB29A4204D00122254B1A70FFF7A5FCFFF71FFA10BD03F00303012B17D04BB1022B7FD1134B9B7813F0FF0F7CD1F1
:40350000FFF76AFE10BD0F4B9B78DBB2012B76D1134A137803F0FD031370FFF703FA10BD084B1B79DBB2012B6BD8064B98781B79DBB21249CA5C22EA0002CA54FFF7F2F9E2
:4035400010BD00BF00600040DC86FF1F788D0000888E0000A087FF1FF886FF1FC481FF1FF586FF1FF386FF1F6487FF1FF286FF1FF086FF1FE886FF1FD886FF1F6887FF1FC8
:4035800003F00303012B17D04BB1022B3BD1224B9B7813F0FF0F38D1FFF7ECFD10BD1E4B9B78DBB2012B32D11C4A137843F002031370FFF7B7F910BD174B1B79DBB2012B7E
:4035C00027D8154B98781B79DBB21549CA5C22EA0002CA54FFF7A6F910BD002010BD002010BD002010BD002010BD002010BD002010BD002010BD002010BD002010BD0020B4
:4036000010BD002010BD002010BD002010BD002010BD002010BD00BF00600040F586FF1F6887FF1F044B1B7813F0800F01D0024B5B780020704700BF00600040024B18789F
:40364000C0F38010704700BF8F45004038B59DF81040651EEDB2032D51D8013809282ED8DFE800F0052D2D052D2D0F192D230F2B03D92548007840B222E02448007840B20E
:403680001EE00F2B03D92248007840B218E02148007840B214E00F2B03D91F48007840B20EE01E48007840B20AE00F2B03D91C48007840B204E01B48007840B200E000203F
:4036C00001EB401101FB02F2D20B91B20D2B0BD8C3F10E0192B20A4191B2621E124800EB82020133937005E0631E0F4A02EB83030F229A70013C0C4B23F8241038BD0020E8
:40370000FEF7BAFC38BD00BF180100491C010049190100491D0100491A0100491E0100491B0100491F010049C881FF1FF8B5074601F072FB06460D4D2B7843F003032B7022
:403740000B4C237843F0030323700A4B1F700320FEF7AAFC2B7803F0FC032B70237803F0FC032370304601F05BFBF8BDF8460040F9460040925800402DE9F041044600224D
:40378000BC4B1A7401285BD13822BB4B1A70042202331A70072201331A70002501331D7001331D703F2201331A7002331D7001331D7001331D7001260A331E70502203F503
:4037C00027631A70272201331A702C2201331A7001331D70552203331A705A2201331A70052701331F7002331D7001331D704FF00A08013383F80080432201331A704420F7
:40380000FFF794FF58229D4B1A7001331D7005331F7001331E7001331D70013383F800804FF4FA42964B1A603146384600F002FC3146BA2000F082FC92491D20FEF73EFC16
:40384000022C5AD138228C4B1A70042202331A70072201331A70002501331D7001331D703F2201331A7002331D7001331D7001331D7001260A331E70502203F527631A70EE
:40388000272201331A702C2201331A7001331D70552203331A705A2201331A70052701331F7002331E70112201331A70192201331A70972201331A704420FFF737FF5822A6
:4038C0006E4B1A7001331D7005331F7001331E7001331D700A2201331A704FF4FA42684B1A603146384600F0A5FB3146252000F025FC65491D20FEF7E1FB032C5AD1382222
:403900005D4B1A70042202331A70072201331A70002501331D7001331D703F2201331A7002331D7001331D7001331D7001260A331E70502203F527631A70272201331A7008
:403940002C2201331A7001331D70552203331A705A2201331A70052701331F7002331E70112201331A70192201331A70972201331A704420FFF7DAFE5822404B1A70013301
:403980001D7005331F7001331E7001331D700A2201331A704FF4FA42394B1A603146384600F048FB3146252000F0C8FB37491D20FEF784FB042C5AD138222F4B1A70042222
:4039C00002331A70072201331A70002401331C7001331C703F2201331A7002331C7001331C7001331C7001250A331D70502203F527631A70272201331A702C2201331A709C
:403A000001331C70552203331A705A2201331A70052601331E7002331D70112201331A70192201331A70972201331A704420FFF77DFE5822114B1A7001331C7005331E708A
:403A400001331D7001331C700A2201331A704FF4FA420B4B1A602946304600F0EBFA2946252000F06BFB0A491D20FEF727FBBDE8F08100BFC881FF1F004E0040945800402B
:403A80006C87FF1F953D0000993D00009D3D0000A13D00002DE9F04182B0394E4FF0010886F80080374F00247C74102000F0B0FA102000F031FB07211D20FEF713FB04250E
:403AC000314B1D7001331C7007331C702F4A137843F0180313702E4B1C7003F2F5231C7001331C700A22A3F209331A7001331C7002331C705B2205331A705E2201331A707F
:403B000004331C701422A3F68C231A70CDF8008010234FF4004249F2DA012846FFF796FD0223009310234FF4004249F2DA012846FFF78CFD0323009310234FF4004249F291
:403B4000DA012846FFF782FD009510234FF4004249F2DA012846FFF779FD3378013B07EB83039A780B4B1A703378013B37F82320094B1A803078FFF7FFFD02B0BDE8F08150
:403B8000FA80FF1FC881FF1F96580040075B0040935800400E4E00400C4E004070B501F03BF906462A4B1B782A4B1A7842F001021A701A7842F010021A7010331A7842F00A
:403BC00001021A701A7842F010021A70224D2B7843F002032B70214C237843F0020323701F4A137843F0030313700320FEF75CFA2B7803F0FD032B70237803F0FD032370B0
:403C0000184A137843F0060313707A22164B1A70164A137843F0040313701032137843F0040313700F3A137843F0010313701032137843F0010313704FF000530C4A1360AF
:403C4000A2F5C0721360304601F0EAF870BD00BFFA80FF1FAA430040F8460040F9460040915800407758004082580040A143004080E200E008B5084B9B7C4BB9064BDB7C86
:403C800013F0FF0F01D1FFF705FF0122024B9A74FFF784FF08BD00BFC881FF1F024A137843F0010313707047004E0040094B1B7C13F0FF0F03D0074B5B7CDBB203E0064BB6
:403CC0001B7803F00103012B01D00028EED01846704700BFC881FF1F014E0040154B1B7803F00303012B07D8134B1888023B1B889BB243EA004013E0022B0AD10E4B18880A
:403D0000023B1B7843EA00430C4A107843EA002006E00B4B188883B2074A108843EA0040084B1B7C13F0FF0F02D00022054B5A74704700BF144E0040124E0040114E00404D
:403D4000104E0040C881FF1F0F4B1B78DBB2012B06D00D4B1B78DBB2022B01D00A4B1B780A4B1B68002B00DA1F335A1147F6122303FB00F090FBF2F00549496903FB01F30B
:403D800093FBF2F3C01A7047FA80FF1F6C87FF1FC881FF1F704700BF704700BF704700BF704700BF084A137843F0040313701032137843F00403137002F5A5521E3213782A
:403DC00043F0800313707047A9430040044A137803F0FC0300F0030018431070704700BF09580040072809D8054B1A7802F08F021A701A780001C0B210431870704700BFA2
:403E00000A580040032809D8054B1A7802F0F3021A701A788000C0B210431870704700BF0A58004010B50224084B1C700C2201331A70012201331A700020FFF7D3FF032068
:403E4000FFF7E0FF2046FFF7C1FF10BD0858004008B5054B1B7823B90122034B1A70FFF7E1FFFFF79FFF08BDE081FF1F054A137843F0080313701032137843F00803137096
:403E8000704700BFA8430040054B1A7802F0FD021A701A7800F0020010431870704700BF2C580040014B1870704700BF835B0040064B1B78C3F3810303F19243063393F858
:403EC0003831DBB2024A1370704700BF2C5800400B46004008B5064B1A7802F0F3021A701A7800F00C0010431870FFF7E1FF08BD2C58004010B50024054B1C7001331C70D4
:403F00000420FFF7E7FF2046FFF7BEFF10BD00BF2C58004008B5074B1B7823B9FFF7EAFF0122044B1A70FFF7A1FF0020FFF7BAFF08BD00BFE181FF1F054A137843F0040342
:403F400013701032137843F004031370704700BFA8430040054B1A7802F0FD021A701A7800F0020010431870704700BF28580040014B1870704700BF825B0040064B1B7856
:403F8000C3F3810303F19243063393F82831DBB2024A1370704700BF285800400A46004008B5064B1A7802F0F3021A701A7800F00C0010431870FFF7E1FF08BD28580040EA
:403FC00010B50024054B1C7001331C700420FFF7E7FF2046FFF7BEFF10BD00BF2858004008B5074B1B7823B9FFF7EAFF0122044B1A70FFF7A1FF7D20FFF7BAFF08BD00BF18
:40400000E281FF1F014B188880B2704780400040034B1A7800F0F80010431870704700BF82400040024B187800F00700704700BF8240004070B505460E46FFF7F3FF0446CD
:40404000FFF7E0FFA84256D02B4B1B7803F0010294B900B185B938B9284B1D80284A137803F0BF03137070BD254A137843F040031370224B1D8070BD22B3002321490B70B6
:4040800001240F310C7004310B700C390B7803F07F030B701A4B1B7813F0080F00D08DB9194B18800721013B1970164B1B7813F0010FFAD110490B7803F0FE030B70002168
:4040C000104B19700C4B1B7813F0010F0DD00E4B1D800EB1032200E001220A4B1A70094B1B7813F0010FFAD170BD044B1D8002490B7813430B7070BDA24300408040004077
:40410000824000400140004002400040014B188880B2704708410040034B1A7800F0F80010431870704700BF0A410040024B187800F00700704700BF0A41004070B5044634
:404140000D46FFF7F3FF0646FFF7E0FFA04257D02C4B1B7803F00403DAB296B900B184B938B9294B1C80294A137803F0BF03137070BD264A137843F040031370224B1C80AC
:4041800070BD22B3002322490B70042613310E7004390B7008390B7803F07F030B701B4B1B7813F0080F00D08CB91A4B18800721013B1970164B1B7813F0010FFAD111495E
:4041C0000B7803F0FB030B700021114B19700D4B1B7813F0040F0DD00E4B1C800DB1032200E001220A4B1A70094B1B7813F0010FFAD170BD044B1C8002490B7813430B70B6
:4042000070BD00BFA1430040084100400A4100400140004002400040054A137843F0010313701032137843F001031370704700BFA8430040054B1A7802F0FD021A701A78AC
:4042400000F0020010431870704700BF20580040014B1870704700BF805B0040064B1B78C3F3810303F19243063393F82031DBB2024A1370704700BF2058004008460040CA
:4042800008B5064B1A7802F0F3021A701A7800F00C0010431870FFF7E1FF08BD2058004010B50024054B1C7001331C700420FFF7E7FF2046FFF7BEFF10BD00BF205800404F
:4042C00008B5074B1B7823B9FFF7EAFF0122044B1A70FFF7A1FF7D20FFF7BAFF08BD00BFE381FF1F10B50024144B1C7001220E331A7000F091FD124A137843F0100313708D
:4043000000F08EFD0F220F4B1A70082210331A7004220D4B1A6007210220FDF7E3FE0B490220FDF7CBFE1022094B1A70094B1C70094B1C70094B1C7010BD00BF7F6400404D
:404340009D6400402C64004080E100E0D94300007087FF1F7687FF1F7887FF1F7487FF1F024A137843F00203137070477F64004008B5074B1B7823B9FFF7B4FF0122044B64
:404380001A70FFF7EDFF0422024B1A6008BD00BFE481FF1F00E100E004220A4B1A600A490B7803F0FD030B70084B1B780E310B7803F0DF030B70064B1A601022054B1A70D4
:4043C000704700BF80E100E07F6400406D64004080E200E07087FF1F38B5AC4B1C78AC4B1B7813F0400F00F07B81E4B214F0010F00F04281A64B1B78453B052B00F23981FE
:40440000DFE813F006009200370137010600F90004F0DF0504F00A04082C50D19C4B1B78DBB2452B3DD19B4B1B7813F0FF0F16D0994B1B681B78DBB2984A13700622984B90
:404440001A70FF22673B1A70002240331A700122944B1A7046228E4B1A702C460CE1924B1B7813F0020F0CD0904A137843F00A0313706022864B1A7004228D4B1A602C4641
:40448000FAE08C4A137843F0200313705222844B1A70FF22673B1A70002240331A702C46EAE002227E4B1A70FF22673B1A70002240331A704A22764B1A702C46DCE00A2C75
:4044C0002DD17A4A137843F0A0031370764B1B7813F0020F13D06E4B1B7813F0080F01D0092300E00A23714A11780B4313706022674B1A7004226E4B1A602C46BCE06D4A6A
:40450000137843F0200313705222654B1A70FF22673B1A70002240331A702C46ACE00020FDF7AAFD2C46A7E014F0020F3ED15D4B1A78D2B2574B1B78DBB29A4216D2594A40
:404540001378DBB254490968CB5CDBB253490B700621534B1970FF21673B197000214033197013780133DBB2137085E04E4B1B7813F0020F0BD04D4A137843F00A03137060
:404580006022434B1A700422494B1A6074E0494A137843F0200313705222414B1A70FF22673B1A70002240331A7065E03E4B1B7813F0020F0BD03D4A137843F09A03137037
:4045C0006022334B1A700422394B1A6054E0394A137843F0200313705222314B1A70FF22673B1A70002240331A70304A137843F09003137040E0304A1378DBB22F49086824
:4046000026490978C9B2C15413780133DBB213701278D2B22A4B1B78DBB29A4209D202221F4B1A70FF22673B1A70002240331A7022E01D4B1B7813F0020F0BD01B4A137871
:4046400043F0090313706022114B1A700422184B1A6011E0174A137843F02003137012220F4B1A70FF22673B1A70002240331A7002E00020FDF700FD14F0200F38D0044B56
:404680001B7813F0080F1DD001231CE06D6400407087FF1F7787FF1F7C87FF1F086400407F6400407487FF1F7587FF1F7687FF1F80E100E08D6400407887FF1F8087FF1F0C
:4046C0008487FF1F02230B4A11780B4313700A4A137803F0DF0313701022084B1A7038BD064B1B7813F0100F02D11022034B1A7038BD00BF7687FF1F8D6400407087FF1F8A
:4047000000294ED070B40C4629490978C9B2102906D12849097811F0100F10D1002111E023490978C9B260290BD1042522490D60224D297801F0F7012970002102E00121B4
:4047400000E0022181BB4526194D2E7000261C4D2E701C4D2A701C4A14601C4A1370174C227802F0FD0222704200D2B21848027013F0010F08D03222164B1A70FF22673B93
:404780001A7040331E7008E08222124B1A70FF22673B1A70002240331A7004220E4B1A6002E0022108467047084670BC704700BF7087FF1F6D64004080E200E07687FF1F19
:4047C0007487FF1F7787FF1F7C87FF1F7587FF1F086400407F64004000E100E00422074B1A60074B1878C0B2064B1B7813F0400F00D010430422044B1A60704780E100E033
:404800007687FF1F7087FF1F00E100E00423044A1360044A107800211170034A1360704780E100E07687FF1F00E100E0084A137843F0010313701032137843F00103137075
:4048400002F64D32137843F001031370704700BFA3430040014B1870704700BF034F0040014B1878704700BF034F0040014B1880704700BF044F0040014B1880704700BFD9
:40488000064F004008B5154A137803F0010313700232137803F0FC031370114B1A7802F0CF021A701A7842F030021A701A7802F0F0021A701A7842F00F021A70094A137816
:4048C00043F001031370FF20FFF7D0FFFF20FFF7D3FF0820FFF7BEFF08BD00BF004F00400B4F0040014F004008B5054B1B7823B9FFF7C8FF0122024B1A70FFF797FF08BD97
:40490000E581FF1F024B1B68C3F88400704700BF08ED00E04001C0B2014B1870704700BF11E400E04FF40032014B1A60704700BF00E100E04FF40032014B1A60704700BFA4
:4049400080E100E010B50446FFF7F4FF2046FFF7D9FF0720FFF7DEFFFFF7E4FF10BD00BF4FF40032014B1A60704700BF80E200E008B50A2813D00C2802D0082809D104E0B2
:404980004FF400614FF480520DE080214FF4807209E00020FDF770FB00210A4603E04FF400714FF480620020094B188041F2883342F2107000FB0233064A82FB0302DB1744
:4049C000C3EB2233044A136009B2044B198008BD8887FF1FAD8BDB688C87FF1F8A87FF1F10B500F019FA04461F4A137843F0020313701032137843F0020313701A3A13785B
:404A000043F0010313701032137843F00103137002F5AA521A32137803F0FE0343F0020313708022114B1A70013B1A7842F040021A701A7802F0FC021A70C822053B1A70A8
:404A40000222A3F59753123B1A70094A137843F0080313700A20FDF727FB0122054B1A60204600F0DDF910BDAB4300400E5900402F5B004080E200E010B504460A280DD0F5
:404A80000C2802D0082804D101E0C42207E0442205E00020FDF7F0FAC42200E08422034B1A702046FFF764FF10BD00BF0A59004008B5102000F094F907210020FDF712FB0F
:404AC00007490020FDF7FAFA064A137843F0060313700C20FFF7D0FF0022034B1A8008BDA54B0000095900409087FF1F08B5054B1B7823B9FFF7DCFF0122024B1A70FFF700
:404B00006FFF08BDE681FF1F024A137843F00103137070470859004010B5074B1B7813F0010401D10028F8D024B10120FDF7BCFA014B1B78204610BD09590040034B18881E
:404B400080B2034B1B88C01A00B27047A25B00408A87FF1F38B50F4B1B881BB233B10D4B1B881BB203EB83035C0001E00A4B1C680A4B1B88C01A00B200F00AFF084900F0B8
:404B80005BFF0546204600F003FF0146284601F007F838BD8887FF1F8C87FF1F9087FF1F00002041704700BF08B50A2813D00C2802D0082809D104E04FF400614FF4805275
:404BC0000DE080214FF4807209E00020FDF754FA00210A4603E04FF400714FF480620020094B188041F2883342F2107000FB0233064A82FB0302DB17C3EB2233044A136014
:404C000009B2044B198008BD9C87FF1FAD8BDB689487FF1F9887FF1F38B500F0FDF804461F4A137843F0010313701032137843F0010313701A3A137843F0020313701032AD
:404C4000137843F00203137002F5AA521232137803F0FE0343F0020313708022114B1A70013B1A7842F040021A701A7802F0FC021A70C822053B1A700225A3F597530C3B79
:404C80001D70094A137843F0080313700A20FDF70BFA064B1D60204600F0C2F838BD00BFAB43004006590040275B004080E200E010B504460A280DD00C2802D0082804D119
:404CC00001E0C42207E0442205E00020FDF7D4F9C42200E08422034B1A702046FFF764FF10BD00BF0259004008B5102000F082F807210120FDF7F6F907490120FDF7DEF9F1
:404D0000064A137843F0060313700C20FFF7D0FF0022034B1A8008BDDD4D0000015900409A87FF1F08B5054B1B7823B9FFF7DCFF0122024B1A70FFF76FFF08BDE781FF1F20
:404D4000024A137843F00103137070470059004010B5074B1B7813F0010401D10028F8D024B10120FDF7A0F9014B1B78204610BD01590040034B188880B2034B1B88C01AC4
:404D800000B27047A05B00409887FF1F38B50F4B1B881BB233B10D4B1B881BB203EB83035C0001E00A4B1C680A4B1B88C01A00B200F0EEFD084900F03FFE0546204600F0A7
:404DC000E7FD0146284600F0EBFE38BD9C87FF1F9487FF1F9A87FF1F00002041704700BF034B1A7800F0F80010431870704700BF02410040034B1A7800F0F800104318707D
:404E0000704700BF064100400230800803D000BF01380046FCD17047EFF3108072B6704780F31088704700BF08B5144B1B7803F00303012B02D0022B04D00FE00F4B1B79D0
:404E4000DBB20CE00D4B1B7903F07F0303EB43039A000B4B1A44937ADBB200E00023022B07D8084A1268D35C022B04D1FDF796FB08BD002008BD002008BD00BF00600040BD
:404E8000F886FF1FEC86FF1F81F0004102E000BF83F0004330B54FEA41044FEA430594EA050F08BF90EA020F1FBF54EA000C55EA020C7FEA645C7FEA655C00F0E2804FEAA2
:404EC0005454D4EB5555B8BF6D420CDD2C4480EA020281EA030382EA000083EA010180EA020281EA0303362D88BF30BD11F0004F4FEA01314FF4801C4CEA113102D040428C
:404F000061EB410113F0004F4FEA03334CEA133302D0524263EB430394EA050F00F0A780A4F10104D5F1200E0DDB02FA0EFC22FA05F2801841F1000103FA0EF2801843FAD7
:404F400005F359410EE0A5F120050EF1200E012A03FA0EFC28BF4CF0020C43FA05F3C01851EBE37101F0004507D54FF0000EDCF1000C7EEB00006EEB0101B1F5801F1BD39A
:404F8000B1F5001F0CD349085FEA30004FEA3C0C04F101044FEA445212F5800F80F09A80BCF1004F08BF5FEA500C50F1000041EB045141EA050130BD5FEA4C0C404141EB83
:404FC000010111F4801FA4F10104E9D191F0000F04BF01460020B1FA81F308BF2033A3F10B03B3F120020CDA0C3208DD02F1140CC2F10C0201FA0CF021FA02F10CE002F19B
:405000001402D8BFC2F1200C01FA02F120FA0CFCDCBF41EA0C019040E41AA2BF01EB0451294330BD6FEA04041F3C1CDA0C340EDC04F11404C4F1200220FA04F001FA02F37A
:4050400040EA030021FA04F345EA030130BDC4F10C04C4F1200220FA02F001FA04F340EA0300294630BD21FA04F0294630BD94F0000F83F4801306BF81F480110134013D68
:405080004EE77FEA645C18BF7FEA655C29D094EA050F08BF90EA020F05D054EA000C04BF1946104630BD91EA030F1EBF0021002030BD5FEA545C05D14000494128BF41F0E7
:4050C000004130BD14F580043CBF01F5801130BD01F0004545F0FE4141F470014FF0000030BD7FEA645C1ABF194610467FEA655C1CBF0B46024650EA013406BF52EA03350D
:4051000091EA030F41F4002130BD00BF90F0000F04BF0021704730B54FF4806404F132044FF000054FF0000150E700BF90F0000F04BF0021704730B54FF4806404F13204A4
:4051400010F0004548BF40424FF000013EE700BF42004FEAE2014FEA31014FEA02701FBF12F07F4393F07F4F81F06051704792F0000F14BF93F07F4F704730B54FF4607495
:4051800001F0004521F0004120E700BF50EA010208BF704730B54FF000050AE050EA010208BF704730B511F0004502D5404261EB41014FF4806404F132045FEA915C3FF44B
:4051C000DCAE4FF003025FEADC0C18BF03325FEADC0C18BF033202EBDC02C2F1200300FA03FC20FA02F001FA03FE40EA0E0021FA02F11444C1E600BF70B54FF0FF0C4CF412
:40520000E06C1CEA11541DBF1CEA135594EA0C0F95EA0C0F00F0DEF82C4481EA030621EA4C5123EA4C5350EA013518BF52EA033541F4801143F4801338D0A0FB02CE4FF03F
:405240000005E1FB02E506F00042E0FB03E54FF00006E1FB03569CF0000F18BF4EF0010EA4F1FF04B6F5007F64F5407404D25FEA4E0E6D4146EB060642EAC62141EA555119
:405280004FEAC52040EA5E504FEACE2EB4F1FD0C88BFBCF5E06F1ED8BEF1004F08BF5FEA500E50F1000041EB045170BD06F0004646EA010140EA020081EA0301B4EB5C0475
:4052C000C2BFD4EB0C0541EA045170BD41F480114FF0000E013C00F3AB8014F1360FDEBF002001F0004170BDC4F10004203C35DA0C341BDC04F11404C4F1200500FA05F3A8
:4053000020FA04F001FA05F240EA020001F0004221F0004110EBD37021FA04F642EB06015EEA430E08BF20EAD37070BDC4F10C04C4F1200500FA04F320FA05F001FA04F2CB
:4053400040EA020001F0004110EBD37041F100015EEA430E08BF20EAD37070BDC4F1200500FA05F24EEA020E20FA04F301FA05F243EA020321FA04F001F0004121FA04F2EA
:4053800020EA020000EBD3705EEA430E08BF20EAD37070BD94F0000F0FD101F00046400041EB010111F4801F08BF013CF7D041EA060195F0000F18BF704703F00046520073
:4053C00043EB030313F4801F08BF013DF7D043EA0603704794EA0C0F0CEA135518BF95EA0C0F0CD050EA410618BF52EA4306D1D181EA030101F000414FF0000070BD50EA10
:40540000410606BF1046194652EA430619D094EA0C0F02D150EA013613D195EA0C0F05D152EA03361CBF104619460AD181EA030101F0004141F0FE4141F470014FF0000036
:4054400070BD41F0FE4141F4780170BD70B54FF0FF0C4CF4E06C1CEA11541DBF1CEA135594EA0C0F95EA0C0F00F0A7F8A4EB050481EA030E52EA03354FEA013100F0888057
:405480004FEA03334FF0805545EA131343EA12634FEA022245EA111545EA10654FEA00260EF000419D4208BF964244F1FD0404F5407402D25B084FEA3202B61A65EB030551
:4054C0005B084FEA32024FF480104FF4002CB6EB020E75EB030E22BFB61A754640EA0C005B084FEA3202B6EB020E75EB030E22BFB61A754640EA5C005B084FEA3202B6EB81
:40550000020E75EB030E22BFB61A754640EA9C005B084FEA3202B6EB020E75EB030E22BFB61A754640EADC0055EA060E18D04FEA051545EA16754FEA06164FEAC30343EA8B
:4055400052734FEAC2025FEA1C1CC0D111F4801F0BD141EA00014FF000004FF0004CB6E711F4801F04BF01430020B4F1FD0C88BFBCF5E06F3FF6AFAEB5EB030C04BFB6EBDF
:40558000020C5FEA500C50F1000041EB045170BD0EF0004E4EEA113114EB5C04C2BFD4EB0C0541EA045170BD41F480114FF0000E013C90E645EA060E8DE60CEA135594EACE
:4055C0000C0F08BF95EA0C0F3FF43BAF94EA0C0F0AD150EA01347FF434AF95EA0C0F7FF425AF104619462CE795EA0C0F06D152EA03353FF4FDAE1046194622E750EA41062E
:4056000018BF52EA43067FF4C5AE50EA41047FF40DAF52EA43057FF4EBAE12E74FF0FF3C06E000BF4FF0010C02E000BF4FF0010C4DF804CD4FEA410C7FEA6C5C4FEA430C44
:4056400018BF7FEA6C5C1BD001B050EA410C0CBF52EA430C91EA030F02BF90EA020F0020704710F1000F91EA030F58BF994208BF90422CBFD8176FEAE37040F00100704763
:405680004FEA410C7FEA6C5C02D150EA013C07D14FEA430C7FEA6C5CD6D152EA033CD3D05DF8040B704700BF8446104662468C461946634600E000BF01B5FFF7B7FF0028EE
:4056C00048BF10F1000F01BD4DF808EDFFF7F4FF0CBF012000205DF808FB00BF4DF808EDFFF7EAFF34BF012000205DF808FB00BF4DF808EDFFF7E0FF94BF012000205DF833
:4057000008FB00BF4DF808EDFFF7CEFF94BF012000205DF808FB00BF4DF808EDFFF7C4FF34BF012000205DF808FB00BF4FEA410212F5001215D211D56FF47873B3EB6252BF
:4057400012D94FEAC12343F0004343EA505311F0004F23FA02F018BF404270474FF00000704750EA013005D111F0004008BF6FF0004070474FF00000704700BF4FEA4102A6
:40578000B2F1E04324BFB3F5001CDCF1FE5C0DD901F0004C4FEAC0024CEA5070B2F1004F40EB830008BF20F00100704711F0804F21D113F13872BCBF01F00040704741F40A
:4057C00080114FEA5252C2F11802C2F1200C10FA0CF320FA02F018BF40F001004FEAC1234FEAD32303FA0CFC40EA0C0023FA02F34FEA4303CCE77FEA625307D150EA013343
:405800001EBF4FF0FE4040F44000704701F0004040F0FE4040F40000704700BF80F0004002E000BF81F0004142001FBF5FEA410392EA030F7FEA226C7FEA236C6AD04FEAFA
:405840001262D2EB1363C1BFD218414048404140B8BF5B42192B88BF704710F0004F40F4000020F07F4018BF404211F0004F41F4000121F07F4118BF494292EA030F3FD036
:40588000A2F1010241FA03FC10EB0C00C3F1200301FA03F100F0004302D5494260EB4000B0F5000F13D3B0F1807F06D340084FEA310102F10102FE2A51D2B1F1004F40EB08
:4058C000C25008BF20F0010040EA03007047490040EB000010F4000FA2F10102EDD1B0FA80FCACF1080CB2EB0C0200FA0CF0AABF00EBC25052421843BCBFD0401843704795
:4059000092F0000F81F4000106BF80F400000132013BB5E74FEA41037FEA226C18BF7FEA236C21D092EA030F04D092F0000F08BF0846704790EA010F1CBF0020704712F0EB
:405940007F4F04D1400028BF40F00040704712F100723CBF00F50000704700F0004343F0FE4040F4000070477FEA226216BF08467FEA23630146420206BF5FEA412390EA15
:40598000010F40F4800070474FF0000304E000BF10F0004348BF40425FEA000C08BF704743F0964301464FF000001CE050EA010208BF70474FF000030AE000BF50EA010277
:4059C00008BF704711F0004302D5404261EB41015FEA010C02BF84460146002043F0B64308BFA3F18053A3F50003BCFA8CF2083AA3EBC25310DB01FA02FC634400FA02FC25
:405A0000C2F12002BCF1004F20FA02F243EB020008BF20F00100704702F1200201FA02FCC2F1200250EA4C0021FA02F243EB020008BF20EADC7070474FF0FF0C1CEAD052DA
:405A40001EBF1CEAD15392EA0C0F93EA0C0F6FD01A4480EA010C400218BF5FEA41211ED04FF0006343EA501043EA5111A0FB01310CF00040B1F5000F3EBF490041EAD371F9
:405A80005B0040EA010062F17F02FD2A1DD8B3F1004F40EBC25008BF20F00100704790F0000F0CF0004C08BF49024CEA502040EA51207F3AC2BFD2F1FF0340EAC250704795
:405AC00040F400004FF00003013A5DDC12F1190FDCBF00F000407047C2F10002410021FA02F1C2F1200200FA02FC5FEA310040F1000053EA4C0308BF20EADC70704792F0B1
:405B0000000F00F0004C02BF400010F4000F013AF9D040EA0C0093F0000F01F0004C02BF490011F4000F013BF9D041EA0C018FE70CEAD15392EA0C0F18BF93EA0C0F0AD032
:405B400030F0004C18BF31F0004CD8D180EA010000F00040704790F0000F17BF90F0004F084691F0000F91F0004F14D092EA0C0F01D142020FD193EA0C0F03D14B0218BF97
:405B8000084608D180EA010000F0004040F0FE4040F40000704740F0FE4040F4400070474FF0FF0C1CEAD0521EBF1CEAD15392EA0C0F93EA0C0F69D0A2EB030280EA010C47
:405BC00049024FEA402037D04FF0805343EA111143EA10130CF000408B4238BF5B0042F17D024FF4000C8B4224BF5B1A40EA0C00B3EB510F24BFA3EB510340EA5C00B3EB6B
:405C0000910F24BFA3EB910340EA9C00B3EBD10F24BFA3EBD10340EADC001B0118BF5FEA1C1CE0D1FD2A3FF650AF8B4240EBC25008BF20F0010070470CF0004C4CEA502029
:405C40007F32C2BFD2F1FF0340EAC250704740F400004FF00003013A37E792F0000F00F0004C02BF400010F4000F013AF9D040EA0C0093F0000F01F0004C02BF490011F472
:405C8000000F013BF9D041EA0C0195E70CEAD15392EA0C0F08D142027FF47DAF93EA0C0F7FF470AF084676E793EA0C0F04D14B023FF44CAF08466EE730F0004C18BF31F0EB
:405CC000004CCAD130F000427FF45CAF31F000437FF43CAF5FE700BF4FEA4002B2F1FE4F0FD34FF09E03B3EB12620DD94FEA002343F0004310F0004F23FA02F018BF404268
:405D000070474FF00000704712F1610F01D1420205D110F0004008BF6FF0004070474FF000007047014B1868704700BF5C81FF1F0E4B70B51E460E4C0025E41AA410A542CD
:405D400004D056F8253098470135F8E703F01AFA084B094C1E46E41AA4100025A54204D056F8253098470135F8E770BD9091000090910000909100009891000010B5431E9D
:405D80000A44914204D011F8014B03F8014FF8E710BD03460244934202D003F8011BFAE770472DE9F04788B0149F002B1E461299B8BF03F1004327F02007B6BF1E46002363
:405DC0002D23462F1446109DDDF84CA00B7003D0452F03D1013501E0032300E0022307AA049206AA03928DE828042246334600F0E7FD472F804602D1119BDB0728D5462F4D
:405E000008EB050911D198F80030302B0AD10022002320463146FFF757FC18B9C5F10105CAF80050DAF8003099440022002320463146FFF749FC08B9302202E0CDF81C90DD
:405E400006E0079B994503D9591C07911A70F8E74046079B159AC8EB0303136008B0BDE8F087034673B50029B8BF494203F8022BB4BF2D222B22092942701ADD0DF10702DE
:405E800016460A2591FBF5F405FB1411092C01F1300102F8011D2146F4DC3031541E02F8011CB4421A460AD214F8012B03F8012BF7E71A463024214402F8024B5970101A6A
:405EC00002B070BD2DE9F04F91B00C46DDF8688016461F46054601F00BFB03681846099300F02EFC00230E93D8F800300A90073323F0070303F1080294F81890D4F800B039
:405F0000C8F80020D3E90023C4E91223D4F84CA0D4F848802AF000430B934FF0FF32A74B40460B9902F026FCA0B94FF0FF32A34B40460B99FFF7DCFB60B900220023404647
:405F40005146FFF7CBFB10B12D2384F843309C4B9C4A0AE0424653464046514602F00AFC002800F09281984B984AB9F1470F8CBF90469846032323612BF0040323604FF064
:405F8000000A3DE0B9F1670F00F08A81B9F1470F00F0868123600193636800210DF13302059002920093424653460691CDF81090CDF80CE02846FFF7F4FE09F0DF03472B45
:405FC000804600F08481B9F1650F0D9900F28D8101394A4604F150000D91FFF742FF0E9A82468318012A236100F37C812268D10700F178819DF8333013B12D2384F843304D
:40600000009733460FAA2146284600F09FF9013002D14FF0FF3096E123685A0501D4236965E0B9F1650F40F2D580D4E9120100220023FFF749FB78B30123654A31462846EA
:40604000B8470130E5D00E9B0D9A9A420BDB2368D80708D423689B0740F111814FF0000804F1190906E10A9B099A31462846B8470130CED04FF0000804F11A090E9B013B6F
:406080009845E7DA01234A4631462846B8470130BFD008F10108F1E70D9B002B29DC01234B4A31462846B8470130B2D00D9B23B90E9B13B92368D907CCD50A9B099A314624
:4060C0002846B8470130A4D04FF0000904F11A0A0D9B5B42994509DA0123524631462846B847013095D009F10109F1E70E9B4246A7E00E9AA36D9A42A8BF1A46002A914601
:4061000006DC4FF0000A29EAE97904F11A0B11E01346314642462846B8470130F1D178E701235A4631462846B84701303FF471AF0AF1010AA36DC9EB03029245F0DB08EB0D
:4061400003090D9A0E9B9A420FDB2368DA070CD40E9B0D9A9844C9EB08089B1A9845A8BF9846B8F1000F08DC0FE00A9B099A31462846B8470130EBD14BE743464A46314684
:406180002846B84701303FF444AF4FF0000928EAE87804F11A0A09E00123524631462846B84701303FF435AF09F101090D9A0E9B9B1AC8EB03039945EEDB4BE7FFFFEF7F70
:4061C0009C8E0000A08E0000A48E0000A88E00001E9100000E9A012A01DCDB0738D50123424631462846B84701303FF412AF0A9B099A31462846B84701303FF40AAFD4E9D6
:40620000120100220023FFF75FFA20B14FF0000804F11A090EE00E9B08F10102013B19E001234A4631462846B84701303FF4F1AE08F101080E9B013B9845F1DB534604F106
:40624000500231462846B84701307FF403AFE0E64246012331462846B8470130EED1D8E601234A4631462846B84701303FF4D1AE08F10108E3680F9A9B1A9845F0DBE06878
:406280000F9B9842B8BF18465DE062680EA8531C0DF1340E4BF480637FF474AE062201E012B90122626075E6002106910DF133018DE80C00236005904246CDF81090CDF819
:4062C0000CE0029153462846FFF76BFD80460D9BD81C02DB626893421DDDA9F102095FFA89F970E60133236184E6B9F1660F14D10029636807DD216113B92268D2071DD56B
:4063000001330B4419E013B92268D00701D5023313E0012311E04FF067090D9B0E9A934205DB22682361D10708D5013305E0002BD4BFC3F102030123134423610D9B4FF0B4
:40634000000AA36556E611B0BDE8F08F2DE9F04791461F460A698B6806469342B8BF1346C9F8003091F843200C46DDF8208012B10133C9F800302368990642BFD9F8003052
:406380000233C9F80030256815F0060510D104F1190A07E00123524639463046C04701301AD00135E368D9F800209B1A9D42F1DB94F843302268003318BF012392060FD562
:4063C000E118302081F843005A1C94F845102244023382F8431003E04FF0FF30BDE8F08704F1430239463046C0470130F4D02268D9F80050E36802F00602042A08BF5D1BE4
:406400002269A3680CBF25EAE57500259342C4BF9B1AED184FF000091A344D4509D00123224639463046C0470130D5D009F10109F3E70020BDE8F0872DE9F04317460A7EB4
:4064400085B06E2A984606460C460C9B01F1430E00F0AE8011D8632A22D009D8002A00F0BB80582A40F0CA8081F84520834955E0642A1ED0692A1CD0C0E0732A00F0B080FA
:4064800009D86F2A2ED0702A40F0B8800A6842F020020A603EE0752A24D0782A3AD0ADE01A6801F14205111D1960136884F84230A8E021681A6811F0800F02D0111D1960E1
:4064C00008E011F0400F02F10401196002D0B2F9003000E01368002B3CDA2D225B4284F8432037E021681A6811F0800F02D0111D196007E011F0400F02F10401196001D03B
:40650000138800E01368227E5C496F2A14BF0A2208221BE078225A4984F845202268186812F0800F00F104051D6003D1550601D5038800E00368D00744BF42F020022260A8
:406540001BB9226822F0200222601022002084F8430001E049490A226568002DA56008DB206820F0040020602BB9002D7DD175460CE0002B79D07546B3FBF2F002FB103354
:40658000CB5C05F8013D03460028F5D1082A0BD12368DA0708D5236962689A42DEBF302305F8013C05F1FF35C5EB0E0323612EE008681A6810F0800F496903D0101D186067
:4065C000136808E010F0400F02F104001860136801D0198000E0196000232361754616E01A68111D1960156800216268284600F08BFF08B1401B6060636804E004F14205AC
:4066000084F8422001232361002384F84330CDF800803B4603AA21463046FFF797FE013002D14FF0FF3026E023692A4639463046C0470130F5D023689B0710D5002504F155
:40664000190907E001234A4639463046C0470130E7D00135E368039A9B1A9D42F2DBE068039B9842B8BF184605E00B7804F1420584F842308AE705B0BDE8F083AC8E00005B
:40668000BD8E00000EB400B54FF402719CB0ADF814106FF00041049107914FF6FF711DAB02900690084853F8042BADF81610006802A9019301F01EFB029B00221A701CB080
:4066C0005DF804EB03B070475C81FF1F0EB430B59CB01FAC4FF4017254F8045BADF814200290069000F02CF80B4B03900B9300230F9314934FF6FF7307900848ADF8163041
:406700002A46234602A90068019401F043FC1CB0BDE8304003B07047216700005C81FF1F00207047C9B2034610F8012B1AB19142F9D11846704700290CBF18460020704765
:40674000034613F8012B002AFBD1181A01387047F0B5037863B90B78002B18BF0020F0BD15F8012F62B114F8017F30469742F7D00346461C007810B14D1E5C1EF0E7F0BDB4
:406780001846F0BD2DE9F0470F4680463F48D0F800903D4615F8014B09EB0400407800F0080000F0FF0608B12F46F2E72D2C03D1BD1C7C78012603E02B2C04BF7C78BD1C1C
:4067C00013B1102B0AD15BE0302C57D1287800F0DF0058284DD16C7810230235002E14BF4FF0004C6FF0004CBCFBF3FA0027384603FB1ACC09EB040E9EF801E01EF0040FA3
:4068000001D0303C0BE01EF0030E1BD0BEF1010F0CBF4FF0370E4FF0570ECEEB0404A34210DDB7F1FF3F0AD0504506D801D1644503DC03FB0040012701E04FF0FF3715F88B
:40684000014BD7E77B1C0CD1002E4FF0220314BF4FF000406FF00040C8F800302AB9BDE8F08706B1404272B107B1691E1160BDE8F0873024002BB1D10823AFE70A23ADE77D
:40688000302CA3D0AAE7BDE8F08700BF6081FF1F13460A46014602480068FFF773BF00BF5C81FF1F2DE9F74F03690C6980469C427FDC013C01F114074FEA840E00F11406BE
:4068C00006EB0E0357F82450019356F824300135B3FBF5F507EB0E09C5B34FF0000A3846B446D34650F8043B9AB205FB02A21B0C4FEA124A05FB03A392B2C2EB0B0BBCF8E0
:4069000000204FEA134A5A441FFA83FBDCF800308145CBEB134303EB224392B242EA03424FEA234B4CF8042BDCD256F80E306BB9019B043B9E421A4602D3C8F8104005E031
:406940001268043B002AF8D1013CF3E7404600F0F6FF00282BDB304601354FF0000E57F8042B036891B2C1EB0E0E120C99B27144C2EB134303EB214389B24FEA234EB94578
:4069800041EA034340F8043BE9D256F8242006EB840362B9043B9E421A4602D3C8F8104005E01268043B002AF8D1013CF3E7284600E0002003B0BDE8F08F000000000000BE
:4069C0002DE9F04F456A95B08246219CCDE9022345B9102000F090FDCAF82400456085600560C560DAF82430196859B15A68012393404A608B60504600F0C9FDDAF82430D8
:406A000000221A60039BA04A002BBDBF01232360039B0023BCBF23F000430393DDF80C80A8BF236028F000431B0D1B0593421DD142F20F73209A1360029B43B9934A944BD3
:406A4000C8F31300002814BF1846104600E09048229B002B00F04685C37813B100F1080300E0C31C229A136000F03CBDDDE902450022002320462946FEF726FE074658B1D6
:406A8000209A01231360229B002B00F01E8581481860013800F026BD12AB019313AB009322462B46504600F0C5FFC8F30A56049056B1C5F3130343F07F51204641F4401185
:406AC000A6F2FF3611971DE0139B129E1E4406F23243202B0ADD029A06F21240C3F1400322FA00F008FA03F3184304E0C3F12000029B03FA00F0FEF709FB0123A1F1F8712F
:406B0000013E11930022644BFEF7C2F958A3D3E90023FEF771FB58A3D3E90023FEF7BAF9044630460D46FEF701FB55A3D3E90023FEF762FB02460B4620462946FEF7AAF901
:406B400004460D46FEF7F2FD00228346002320462946FEF7C3FD58B15846FEF7E7FA02460B4620462946FEF7AFFD08B90BF1FF3BBBF1160F0DD8DDE90223484901EBCB018F
:406B8000D1E90001FEF7C8FD30B10BF1FF3B002300E00123109300E01090129B9E1B731E079343BFC3F10008002307934FF00008BBF1000F06DB079BCDF82CB05B44079394
:406BC000002705E00023CBEB0808CBF100070B931E9B092B28D8052BC4BF043B1E931E9BC8BF0025A3F10203D8BF0125032B20D8DFE803F0060E0204012302E0012308E0E8
:406C000000230A931F9B002B1DDD9946059321E000230A931F9B0BEB030909F10103012B0593B8BF012315E0012500231E930A9501E001230A934FF0FF390022CDF8149032
:406C400012231F9206E04FF001094B46CDF81490CDF87C90DAF8244000226260042101F114029A421CD86268490001326260F6E761436F63A787D23FB3C8608B288AC63F66
:406C8000FB799F501344D33F0000F07FCF8F0000D88F00001F9100000000F83FE88F00006168504600F03EFCDAF8243020601B680693059B0E2B00F25B81002D00F058818E
:406CC000DDE90234BBF1000FCDE90E3430DD9F4A0BF00F034FEA2B1502EBC303E80618CBCDE908340CD5DDE90E01994B05F00F05D3E90823FEF7AAFB0324CDE9020100E00F
:406D00000224934E6DB1E90708D5DDE90801D6E90023FEF771FACDE9080101346D100836F0E7DDE90823DDE90201FEF78FFB20E0CBF1000505B3DDE90E01844B05F00F026E
:406D400003EBC203D3E90023FEF756FACDE902017F4E2D110023022455B1EA0705D5D6E90023FEF749FA013401236D100836F3E71BB1CDE9020100E00224109BE3B1DDE9C6
:406D800002560022734B28463146FEF7A7FC98B1059B8BB1B9F1000F40F3E6800BF1FF330893314600226C4B2846FEF725FA0134CDE902014E4602E0059ECDF820B020460A
:406DC000FEF7B4F9DDE90223FEF716FA634B0022FEF760F8A1F1507304460C931D46D6B9DDE9020100225E4BFEF752F822460C9BCDE90201FEF790FC002840F03F820C99DA
:406E0000224601F10043DDE90201FEF767FC002840F02B82A8E00A9A4C4B711E002A49D003EBC103D3E9002300204E49FEF70EFB22462B46FEF72CF8CDE90C01069CDDE997
:406E40000201FEF773FC0546FEF770F902460B46DDE90201FEF71CF8DDE90C23303504F8015BCDE90201FEF739FC002840F01D83DDE9022300203749FEF70AF8DDE90C2393
:406E8000FEF72CFC002840F0D180069BE31AB3426ADADDE90C0100222F4BFEF7ADF90022CDE90C01DDE902012B4BFEF7A5F9CDE90201C4E703EBC1012246D1E900012B46CC
:406EC000FEF79AF9069BCDE90C011D469C19DDE90201FEF72BFC0646FEF728F902460B46DDE90201FDF7D4FF303605F8016BAC42CDE902014FF0000222D11A4BDDE90C013C
:406F0000FDF7C8FF02460B46DDE90201FEF704FC002840F08B80DDE90C2300201149FDF7B7FF02460B46DDE90201FEF7D7FBD8B114F8013C621E302B40F0B7821446F7E74C
:406F4000054BFEF759F9CDE90201C0E7E88F0000C09000000000F03F0000244000001C40000014400000E03FDDE90E34CDE90234139B002B7CDBBBF10E0F79DCAB4B03EBCB
:406F8000CB03D3E900671F9B002B14DA059B002B11DC40F06C810022A54B30463946FEF72BF9DDE90223FEF7ADFB059D2E46002840F05F8165E1069CDDE9028932463B4610
:406FC00040464946FEF742FAFEF7B0FB0546FEF7ADF832463B46FEF70FF90B46024649464046FDF755FF05F1300E069B04F801EBC3EB040E059B73452DD102460B46FDF77A
:4070000049FF8046894602460B4630463946FEF765FB78B942464B4630463946FEF754FB002800F04482EB0704D440E2DDF820B000E01C4614F8012C631E392A07D1069AC7
:407040009A42F6D1069930220BF1010B0A701A7801321A702BE20022764BFEF7CDF80022002380468946FEF72FFB0028A6D01EE20A9A002A2BD01E9A012A0ADC119A12B16A
:4070800003F2334302E0129BC3F136033D46444613E0059B5D1EAF42BFBF0B9BEA1B9B180B93059BB6BF2F467D1B0025002BA7BF4446059BC3EB08040023079A01211A4463
:4070C00050469844079200F001FB064602E03D4644460A9E5CB1079B002B08DDA342A8BF2346079AC3EB0808E41AD31A0793002F1DDD0A9BABB18DB131462A46504600F089
:407100007FFB049A01460646504600F0E8FA04990890504600F03BFA089B04937A1B06D000E03A460499504600F06AFB04900121504600F0CBFA0B9B05465BB31A46014618
:40714000504600F05DFB1E9B0546012B18DC029B83B9039BC3F3130373B9039B23F000473F0D3F054FB1079B08F1010801330793012702E0002700E0029F0B9B73B100E048
:4071800000272B6905EB8303186900F052FAC0F1200004E01E9B012BD9DD0B9F0120079B184410F01F0008D0C0F12003042B02DDC0F11C0002E006D018461C30079B80445A
:4071C000034404440793B8F1000F05DD42460499504600F063FB0490079B002B05DD29461A46504600F05AFB0546109B23B32946049800F0A4FB00281EDA00230A22049964
:40720000504600F0DBF90A9B0BF1FF3B0490002B00F05F81314600230A22504600F0CEF9B9F1000F06463FDC3BE000BFE88F00000000144000002440059B002B2BDC1E9BC3
