:400000000080002011000000191B0000191B000008B5044B1A6803F53F5302331A6001F09BFD00BFFA46004010B5054C237833B9044B13B10448AFF300800123237010BD76
:40004000A081FF1F000000001C7C0000084B10B51BB108490848AFF300800848036803B910BD074B002BFBD0BDE81040184700BF00000000A481FF1F1C7C0000C880FF1F22
:400080000000000008B502F00DF820B102F004F808B102F025F901F0FFFF08BD08B5FFF7F1FF01F0F9FF20B102F08EF918B1012008BD002008BD002008BD00BF30B591B01C
:4000C000FFF7ECFF002837D0684602F095F9C0B200232EE010AA1A4412F8402C59490978C9B2594C62540D2A03D00A2A01D0212A10D154490A78D2B20025534CA5540A787B
:4001000012F0FF0F02D00121504A117000214D4A117004E04B490A780132D2B20A70494A1278D2B23F2A02D90021464A11700133DBB28342CED33AE001F0BCFD002836D00C
:40014000434D2C78E4B201F09FFD424A10552B78DBB2D35CDBB20D2B0BD02B78DBB2D35CDBB20A2B05D02B78DBB2D35CDBB2212B10D1374A1378DBB200203649C85413784A
:4001800013F0FF0F02D00222304B1A700022304B1A7004E02E4A13780133DBB213702C4B1B78DBB23F2B02D90022294B1A70274B1B7813F0FF0F3FD0244B1B78DBB2022B04
:4001C00001D0214C00E0234C2349204606F0C4F8844205D11D4B01225A7000221A702BE01E49204606F0B8F8844205D1174B01229A7000221A701FE01949204606F0ACF89B
:40020000844205D1114B0122DA7000221A7013E01449204606F0A0F8844204D10B4B0022DA701A7008E01049204606F095F8844202D10022054B1A7004F0E8F904F066F99B
:4002400011B030BD2886FF1F2C86FF1FBC81FF1FAF86FF1F6C86FF1F207C0000287C0000307C0000387C0000407C000049B9012318467047FFF706FF02F0B2F838B9013422
:4002800003E070B50D4606460024092CF2D902F0A7F8034680B12946304602F06DF8402D09D102F09DF80028FBD00021084602F063F8012300E00123184670BD0123037065
:4002C000802380F87F30002304E0C218991D517001339BB27D2BF8D9002305E0C218BE2182F8801001339BB27D2BF7D9704700BF2DE9F041044600F10108594D424659494D
:40030000284605F0EFFF284606F01EF881B22846FFF7ACFF284601F0E5FC04F0CDF8C4EB0424514B1C4400237F22214694F8FE0004F03CF800242CE004F0A6F810F0020F34
:4003400033D143A3D3E900233046394605F032F8F0B1464F424D07F1200E3E460FCE28606960AA60EB60374610357645F5D1306828603B4D284605F0E7FF81B22846FFF7E3
:4003800075FF284601F0AEFC03F05CFE03F046FE0134204604F012FD06460F462EA3D3E9002304F0F3FF0028C6D104F06DF810F0800F39D02A4C2E4D0FCD20606160A260A7
:4003C000E360286820612B792375204605F0BCFF81B22046FFF74AFF204601F083FC04F053F810F0200F0FD0224B03CB206061601B882381204605F0A7FF81B22046FFF709
:4004000035FF204601F06EFC154C1B4B1A889B782280A370204605F097FF81B22046FFF725FF204601F05EFC0D4C42461349204605F058FF204605F087FF81B22046FFF7E2
:4004400015FF204601F04EFCBDE8F081AFF3008000000000FC69184100000000006A1841EC81FF1F4C7C00002C82FF1F647C0000887C0000A07C0000DC7C0000AC7C00006F
:400480002DE9F04F83B000900191934601244FF000094D4645E003F057FA012003F05CFA0028FAD003F070FA03F0A4FA0746601E05F09AF88046204605F096F80646014672
:4004C000404605F09DF98246781B05F091F880460146504605F0E0F80146404605F0DCF88046484605F084F8414604F0CDFF05F023FA8146384605F07BF80746284605F091
:4005000077F805460146384604F0BCFF314605F077F90146284604F0B7FF05F00DFA054601345C45B7D3009B1D60019BC3F8009003B0BDE8F08F00BF30B583B05A2003F091
:400540006DFBFE2003F004FB00241EE00023009302AD45F8043DE0B203F0FAFA642229466846FFF78DFF0B4D009A0B49284605F0B9FE284605F0E8FE81B22846FFF776FEAC
:40058000284601F0AFFB0134A4B2FF2CDED903B030BD00BFEC81FF1FC47C000010B5002407E0C4EB04230B481844FFF787FE0134E4B2032CF5D9074B662283F8FE2011225D
:4005C00083F8FD21442283F8FC22222283F8FB2310BD00BF2C82FF1F08B50138C3B2212B0CD80139C8B2032808D8C0EB002204490A441344C0225A70FFF77AFE08BD00BF77
:400600002C82FF1F0138C0B23F2813D808B54B1EDBB2032B0DD8012B03D91F2809D9202302E01F2805D80023C01A0130C0B2FFF7D3FF08BD704700BF08B50138C3B23F2B39
:4006400016D80139C8B2032812D8012803D91F2B0ED9202202E01F2B0AD800229B1AC0EB002204490A441344D1225A70FFF740FE08BD00BF2C82FF1F38B50138C5B20024A5
:4006800015E0012C03D91F2D0FD9202302E01F2D0BD80023EA1AC4EB042306490B441344D1225A702046FFF723FE0134E4B2032CE7D938BD2C82FF1F10B5002411E0C4EB84
:4006C000042209490A441A44D12151700133DBB200E000231F2BF2D92046FFF709FE0134E4B2012CF5D910BD2C82FF1F08B50138C0B2002308E0C0EB002206490A441A444D
:40070000D12151700133DBB21F2BF4D9FFF7F0FD08BD00BF2C82FF1F08B50138032816D8DFE800F002070C1101212120FFF754FF08BD02212120FFF74FFF08BD03212120CC
:40074000FFF74AFF08BD04212120FFF745FF08BD10B5012404E02046FFF7DEFF0134E4B2022CF8D910BD00BF2DE9F04F87B002900391934600233E4A1370059306A941F87A
:40078000083D032205A8FFF77BFE01244FF00008C1465DE0012204A905A8FFF771FE059804F026FF334904F077FF054605F0C4F80028B8BF404204F011FB2BA3D3E90023BB
:4007C00004F002FE20B12A4A13780133137041E00022274B1A70204604F006FF824604F00FFB06460F460022234B04F0A9F932463B4604F083FCCDE900014946284604F03F
:4008000041FE054604F0FCFA06460F4602460B46DDE9000104F048FB02460B463046394604F042FB06460F46404604F0E9FA32463B4604F087F904F0D1FD80465146284655
:4008400004F0DEFF0146484604F01EFE814601345C459FD9029BC3F80090039BC3F8008007B0BDE8F08F00BFF168E388B5F8E43EAE86FF1FFFE65BAE0000F03F0000000050
:4008800000B583B00022124B1A700023019302A941F8083D032201A8FFF766FF019805F04BF80028B8BF404204F098FA06A3D3E9002304F089FD18B10120054B187000E022
:4008C000002003B05DF804FBF168E388B5F8E43EAE86FF1F70B5174B1C78E4B201331D78EDB2AC4201D301260AE04FF0FF3607E0204603F093F9FFF7C3FFD0B13444E4B279
:40090000AC42F5D10C4B1C78E4B2023B1D78EDB2AC4201D301260AE04FF0FF3607E0204603F016F9FFF7ACFF18B13444E4B2AC42F5D170BD805B0040835B00402DE9F041A2
:400940008046184B1B78C31A174A1380174B1D78EDB2A84201D3012601E04FF0FF3600271BE0FFF78DFF48B912E0204603F056F9FFF786FF98B1A41BE4B200E03C46AC4272
:40098000F3D1FFF77DFF18B1FFF7A4FFBDE8F081384603F043F93744FFB24745E1D1BDE8F08100BF815B0040AC86FF1F805B00402DE9F0418046184B1B78C31A174A138042
:4009C000174B1D78EDB2A84201D3012601E04FF0FF362F461BE0FFF753FF48B912E0204603F0B6F8FFF74CFF98B1A41BE4B200E03C46AC42F3D1FFF743FF18B1FFF76AFF22
:400A0000BDE8F081384603F0A3F83744FFB24745E1D1BDE8F08100BF815B00402A86FF1F835B0040FF2814DC10F1FF0F11DB10B5084B1B7803441BB2FF2B00DDFF23002B28
:400A400000DA00230446D8B2FFF778FF024B1C8010BD7047815B0040AC86FF1FFF2814DC10F1FF0F11DB10B5084B1B7803441BB2FF2B00DDFF23002B00DA00230446D8B269
:400A8000FFF796FF024B1C8010BD7047815B00402A86FF1F2DE9F04107461A4B1B78DBB2834202D84FF0010801E04FF0FF38154B1E78F6B222E0FFF7E3FE08BBB4B2124B00
:400AC0001D8825442DB2114B1B881C4424B2FF2D00DDFF25FF2C00DDFF24002D00DA0025002C00DA0024304603F008FAE8B203F02FF8E0B203F092F84644F6B2BE42DAD11B
:400B0000BDE8F081815B00402A86FF1FAC86FF1F08B5094B187804F061F905A3D3E9002304F0C2F904F05AFC044B1B7808BD00BFFCA9F1D24D62903F815B004024580040D2
:400B400038B50F4B187804F049F90BA3D3E9002304F0AAF904460D46FFF7DAFF04F050F902460B462046294603F0EAFF04F036FC044B1B7838BD00BFFCA9F1D24D62903FAF
:400B8000835B00402C58004038B50F4B187804F025F90BA3D3E9002304F086F904460D46FFF7B6FF04F02CF902460B462046294603F0C6FF04F012FC044B1B7838BD00BF4B
:400BC000FCA9F1D24D62903F805B00402058004008B50020FFF7B2FE0020FFF7E9FE002003F01CF8002002F0B3FF08BD000000002DE9F0478AB0002309930AA941F8083D95
:400C0000642209A8FFF73CFC099804F0E7F82AA3D3E9002304F048F904F0E0FB044603F0C9FD03F0E3FE012003F0CCFD0028FAD0012003F0E3FE0028FAD003F0D5FD03F0E6
:400C4000DFFD814603F0ECFE03F0F6FE8246FFF777FF0546FFF798FF8046204604F0D0F806460F46164C504604F0CAF8CDE90601484604F0C5F8CDE90401404604F0C0F8E1
:400C8000CDE90201284604F0BBF8CDE9000132463B460C49204605F025FB204605F054FB81B22046FFF7E2FA204601F01BF80AB0BDE8F087AFF30080BABDD7D9DF7CCBBD65
:400CC000EC81FF1FCC7C00002DE9F04383B08146414C424B18682060204605F035FB81B22046FFF7C3FA204600F0FCFF4FF0000858E018F0010F03D1FF260024012703E0DD
:400D00000026FF244FF0FF37A4B244E00023009302AD45F8043DE0B2FFF74AFE642229466846FFF7ADFB6CB12B4D2D4B1B882B80284605F009FB81B22846FFF797FA28462F
:400D400000F0D0FF009804F049F821A3D3E9002304F0AAF804F042FB04F052F81E4D02460B462049284605F0BDFA284605F0ECFA81B22846FFF77AFA284600F0B3FF1A4BEF
:400D80005B7813F0FF0F09D1174BDB7813F0FF0FFAD13C44A4B2B3B29C42B7D108F101085FFA88F8C845A4D90B4C104B18682060204605F0C9FA81B22046FFF757FA2046C8
:400DC00000F090FF03B0BDE8F08300BFAFF30080BABDD7D9DF7CCBBDEC81FF1FE07C0000E47C0000E87C0000BC81FF1FEC7C00002DE9F04F91B00D90FE20FFF74BFE00239D
:400E00000C9393E00C9B13F0010F07D14FF0F008002710263B464746984681E04FF00008F0276FF00F063B464746984678E000230E930F93012C04D16FEA0800C0B2FFF7E6
:400E400029FE4046FFF7B4FD21220FA90EA8FFF717FB0E9803F0C2FF39A3D3E9002304F023F804F0BBFA054603F0A4FC03F0BEFD012003F0A7FC0028FAD0012003F0BEFD94
:400E80000028FAD003F0B0FC03F0BAFC824603F0C7FD03F0D1FD8346FFF752FE0990FFF773FE8146284603F0ABFFCDE90A01264D584603F0A5FFCDE90601504603F0A0FF89
:400EC000CDE90401484603F09BFFCDE90201099803F096FFCDE90001DDE90A231B49284605F000FA284605F02FFA81B22846FFF7BDF9284600F0F6FE154B5B7813F0FF0F60
:400F00000AD1134BDB7813F0FF0FFAD10134E4B200E00024012C8AD908EB06035FFA83F84745F6D10C9B0133DBB20C930C9B0D9A93427FF667AF11B0BDE8F08FAFF300800B
:400F4000BABDD7D9DF7CCBBDEC81FF1FCC7C0000BC81FF1F2DE9F0410746884601243BE0661CF6B2FFF7A8FBFFF732FEFFF7F0FB01212046FFF746FB02213046FFF742FB42
:400F8000174D22461749284605F0ACF9284605F0DBF981B22846FFF769F9284600F0A2FE6FF00E00FFF73EFD1FB14046FFF720FF02E04046FFF788FE0B4B9B7813F0FF0F68
:400FC0000CD1094B5B7813F0FF0F07D1064BDB7813F0FF0FFAD13446202CC1D9BDE8F081EC81FF1FF07C0000BC81FF1F3F284BD82DE9F84304460F46904699463F293FD90D
:40100000BDE8F883661CF6B2FFF756FBFFF7E0FDFFF79EFB01212046FFF7F4FA02213046FFF7F0FA194D22461949284605F05AF9284605F089F981B22846FFF717F92846F8
:4010400000F050FE6FF03E00FFF7ECFCB8F1000F03D04846FFF7CCFE02E04846FFF734FE0C4B9B7813F0FF0F0CD10A4B5B7813F0FF0F07D1074BDB7813F0FF0FFAD13446E2
:40108000BC42BFD9BDE8F883704700BFEC81FF1FF07C0000BC81FF1FF0B583B062B6FFF77DFA0121002000F0BFFF00F0DFFD02F0EDFD02F085FD02F059FF02F031FC02F0EE
:4010C0001DFD02F0ABFF03F067FB03F081FC4FF47A7000F029FEA34800F004FEFFF738FB0023A14A1370A14A1370A14A137003F051FAA04803F07CFA9B4B00225A709A7053
:401100001B7813F0FF0FF7D0974B1B78DBB2022B01D0994C00E0994C0022934B1A709849204605F019F9844202D1FFF761FDE3E79449204605F010F9844202D1FFF7FCF946
:40114000DAE79149204605F007F984420DD12021204605F0EBF802A941F8040D0A2205F09BF9C0B2FFF724FCC6E78849204605F0F3F884420DD12021204605F0D7F802A9A6
:4011800041F8040D0A2205F087F9C0B2FFF710FCB2E77F49204605F0DFF884420DD12021204605F0C3F802A941F8040D0A2205F073F940B2FFF752FC9EE77649204605F0EB
:4011C000CBF884420DD12021204605F0AFF802A941F8040D0A2205F05FF940B2FFF73EFC8AE76D49204605F0B7F8844229D16B4C6B4D0FCD20606160A260E3602B8823829B
:40120000204605F0A1F881B22046FFF72FF8204600F068FD00210846FFF79CFE614D0FCD20606160A260E3602B882382204605F08BF881B22046FFF719F8204600F052FDBF
:401240005AE75949204605F087F884423ED1534D564E0FCE28606960AA60EB6003CE28616961284605F070F881B22846FEF7FEFF284600F037FD2021204605F057F802AC68
:4012800044F8040D0A22214605F006F9C6B20A222146019805F000F900231A46C1B23046FFF7A4FE424C0FCC28606960AA60EB6003CC28616961284605F046F881B2284651
:4012C000FEF7D4FF284600F00DFD15E73949204605F042F8844273D1304D374E0FCE28606960AA60EB6007CE28616961AA6133782B77284605F028F881B22846FEF7B6FFCE
:40130000284600F0EFFC2021204605F00FF802AC44F8040D0A22214605F0BEF8C6B20A222146019805F0B8F801230022C1B23046FFF75CFE214C0FCC28606960AA60EB60D2
:4013400007CC28616961AA6123782B77284604F0FBFF81B22846FEF789FF284600F0C2FCCAE600BFF87C0000BC81FF1FAF86FF1F2886FF1FBD0000002C86FF1F6C86FF1F6F
:40138000087D0000147D0000247D0000347D0000447D0000547D0000647D0000EC81FF1F6C7D0000807D0000947D0000A07D0000B87D0000D07D0000E47D0000047E00004E
:4013C000CD49204604F0C8FF84424DD1CB4FCC4D07F1200E3E460FCE28606960AA60EB60374610357645F5D133882B80C44D284604F0AAFF81B22846FEF738FF284600F082
:4014000071FC2021204604F091FF02AC44F8040D0A22214605F040F8C6B20A222146019805F03AF801231A46C1B23046FFF7DEFDB44E2C4606F1200735460FCD2060616026
:40144000A260E3602E461034BD42F5D12B882380AB4C204604F078FF81B22046FEF706FF204600F03FFC47E6A749204604F074FF844227D12021204604F058FF02AC44F8E4
:40148000040D0A22214605F007F8C5B20A222146019805F001F8C6B231462846FFF7B2F8974C33462A469949204604F01BFF204604F04AFF81B22046FEF7D8FE204600F087
:4014C00011FC19E69249204604F046FF844227D12021204604F02AFF02AC44F8040D0A22214604F0D9FFC5B20A222146019804F0D3FFC6B231462846FFF76EF8804C334623
:401500002A468449204604F0EDFE204604F01CFF81B22046FEF7AAFE204600F0E3FBEBE57D49204604F018FF844227D12021204604F0FCFE02AC44F8040D0A22214604F06E
:40154000ABFFC5B20A222146019804F0A5FFC6B231462846FFF770F8694C33462A466F49204604F0BFFE204604F0EEFE81B22046FEF77CFE204600F0B5FBBDE56849204651
:4015800004F0EAFE84421ED12021204604F0CEFE02A941F8040D0A2204F07EFFC5B22846FFF7A4F8564C2A465E49204604F09AFE204604F0C9FE81B22046FEF757FE204615
:4015C00000F090FB98E55849204604F0C5FE844217D1FFF771F84A4D544C0FCC28606960AA60EB6007CC28616961AA61284604F0ABFE81B22846FEF739FE284600F072FB9C
:401600007AE54B49204604F0A7FE84421ED12021204604F08BFE02A941F8040D0A2204F03BFFC5B22846FFF727F8354C2A464149204604F057FE204604F086FE81B22046F5
:40164000FEF714FE204600F04DFB55E53A49204604F082FE84421ED12021204604F066FE02A941F8040D0A2204F016FFC5B22846FFF752F8224C2A463049204604F032FE4A
:40168000204604F061FE81B22046FEF7EFFD204600F028FB30E52A49204604F05DFE844218D1FFF755F8164D264C0FCC28606960AA60EB6003CC2861696123882B83284610
:4016C00004F042FE81B22846FEF7D0FD284600F009FB11E50A4D22461B49284604F002FE284604F031FE81B22846FEF7BFFD284600F0F8FA00E500BF247E00003C7E000043
:40170000EC81FF1F607E0000847E0000907E0000A87E0000B47E0000D47E0000E07E0000FC7E0000147F0000307F00004C7F0000687F0000807F00009C7F0000B47F00006D
:40174000D07F0000E87F000004800000FEE700BFF0B40022174611E050F82760F3B226F0FF0608E001EB420511F812406D78A5550132013BDBB2002BF4D10137252FEBD957
:40178000F0BC704708B50A46002104F032F908BDF8B53E4B1B78DBB23D4E3478E4B23D4F3D78EDB203F007013B4A11701B090132137044F00303337045F003033B704FF4D0
:4017C0000A62364B1A80022210331A70012221331A7010200F331870082331490B7090310B704021DFF8C4E08EF800104FF0000EDFF8BCC08CF800E00CF1060C8CF8001001
:401800000CF1020C8CF800E0DFF8A8E08EF800300EF1040E8EF800204FF0200E0CF1FD0C8CF800E00CF17B0C8CF800200CF1050C8CF800200CF1020C8CF800300CF1110CE3
:401840008CF800204FF0480C164A82F800C0383282F800E0063213704FF0800E1A3282F800E0043211700432107004321170D1212C321170023213700A2000F06BFA3D70CD
:4018800034704422084B1A70F8BD00BFCF010049F8460040F94600406E5800401C5100406D510040C85A0040765800400159004003590040005A004008B504F08FF808BDC9
:4018C00038B50024324B1C80502202331A700E2202331A8018232F4A13704FF49C7102321180023213700C222B492C48FFF7E4FF06222B4B1A705222A3F580731A70294B77
:401900001B78DBB2284A13704FF4E162274B1A8041F25122023B1A8019250CE0244B1B7803F0010343EA440404F003044FF4F07003F0C2F8013D0DB1032CEFD115B90320C4
:40194000FFF704FF1B4A4FF48073138007231370002319490B704820023108701370053213700222154B1A7004220A331A70144A137843F007031370013A137843F007039C
:401980001370013A137843F08003137038BD00BF80400040864000405009004800410040004300400F010049A14600402242004025420040044000400640004001400040F0
:4019C000A243004038B572B600240CE03C4D630019194A0011462A44084691882858FFF7D1FE0134E4B2082CF0D900240CE03448A20011194B000344B3F84020D96B986BC0
:401A0000FFF75AFF0134E4B2012CF0D92D494FF09040FFF79DFE0A252B4B1D70022203F521731A70294A137843F0020313701032137843F002031370254C237843F0400351
:401A40002370A2F58632513A137843F0100313702A4620492048FFF72FFF2A461F492048FFF72AFF08221F491F48FFF725FF08221E491F48FFF720FF08221E491E48FFF7D4
:401A80001BFF08221D491E48FFF716FF08221D491D48FFF711FF1D4A137843F0080313701B4D01232B70FFF70BFF81232B70FFF76FFE0E2221461748FFF7FEFE38BD00BFF8
:401AC00024800000980000488358004003500140A043004010090048C05100401C090048F051004028090048125100403009004822510040380900484251004040090048B3
:401B00005251004048090048625100402243004000480040B043004008B503F033FF03680C2B00D1FEE7FEE708B5094B1A681044084BC31AB3F5007F02DC054B186005E0EE
:401B400003F020FF0C2303604FF0FF32104608BDCC80FF1FC887FF1F08B5104E104D16E029686B68AC68002204E051F8040B43F8040B0432A242F8D1E868002203E0002178
:401B800043F8041B04328242F9D11035013E002EE6D103F0FDFEFFF77FFAFEE7010000009884000008B5104A104B1A60104A136843F40073136000230AE0032B03D80D4AF4
:401BC00052F8231000E00C490C4A42F8231001332F2BF2D90A4B1A780A4B1A70074A0A4B1A60FFF7EFFE08BD0004FA050CED00E014ED00E000000000191B00000080FF1FFA
:401C0000BC760040C080FF1F08ED00E07222084B1A702022033B1A700622A3F5AD731A70472210331A7000224B331A70704700BF8B65004010B502F047FF04460A4A1378EE
:401C400043F020031370033A137843F010031370FF3A137843F01003137000F055F8204602F036FF10BD00BF9B65004008B5054B1B7823B9FFF7CAFF0122024B1A70FFF7AC
:401C8000D9FF08BDC081FF1F084B1B78DBB213F0200F06D0064A1078C0B213F01E0F02D17047002070470020704700BF6865004048650040044B1B7813F0200F01D001203C
:401CC00070470020704700BF68650040034B1B7813F0040FFAD1024B18707047696400404964004038B5074B1B782BB938BDFFF7EDFF0134A4B201E005460024285D00282D
:401D0000F5D138BDC081FF1F054A137843F0040313701032137843F004031370704700BFA243004001BE704710B5044605E0084B186802F0C1FEA4F50044B4F5004FF6D83C
:401D4000034B586800FB04F002F0B6FE10BD00BFD080FF1F08B5034B1B7A00FB03F002F0ABFE08BDD080FF1F70B504460E46074B1D681F2802D90020FFF7D4FF04F01F04AE
:401D8000103455F8240045F8246070BD08ED00E038B504460D46072902D90020FFF7C2FF1F2C02D90020FFF7BDFF04F01F0000F1604000F564406D01EDB2057038BD00BFD4
:401DC000134B1B78DBB20360124A127843EA02230360114A127843EA024303600F4A127843EA026303600E4B1B78DBB243600D4A127843EA022343600B4A127843EA024392
:401E000043600A4A127843EA02634360704700BF0301004904010049EC4600400201004901010049000100490501004906010049F8B502F049FE0546404A137843F001036C
:401E400013701032137843F00103137001273C4B1F700226943B1E7002F5E2521B32137803F07F0313700020FFF774FF354C237803F0F9032370344A137803F0DF03137012
:401E800023783B4323703846FFF764FF2820FFF761FF2E4B1A7802F07F021A701A7802F0BF021A702378334323703046FFF752FF237843F0040323700023254A1370013219
:401EC0001370284602F004FE07211720FFF760FF20491720FFF748FF07211820FFF758FF1D491820FFF740FF07211520FFF750FF1A491520FFF738FF07210320FFF748FFFD
:401F000017490320FFF730FF07210420FFF740FF14490420FFF728FF07210520FFF738FF11490520FFF720FF07210C20FFF730FF0E490C20FFF718FFF8BD00BFA543004027
:401F40009D6000409443004012600040F85100408460004091290000792700008D290000ED2800001D290000512900009929000008B5214B18700023204A1370204A137059
:401F8000204A1370204A1370204A1370204A1370204A1370204B4FF400021A604FF080721A604FF400121A6008221A6010221A6020221A6011B1012906D00BE0174A137837
:401FC00003F0FE0313700AE0144A137843F00103137004E0114A137843F00103137003220F4B1A708022203B1A70012002F064FD04220C4B1A7008BDC986FF1FCC86FF1FAC
:40200000E886FF1FEB86FF1FE086FF1FEA86FF1FED86FF1FC886FF1F00E100E009600040286000401260004038B504460D46064B1B7823B9FFF7FCFE0122034B1A702946EE
:402040002046FFF795FF38BDC281FF1F00230A4A13700A4A13700A4A13700A4A13700A4A13700A4A13700A4A13700322094B1A708022203B1A707047CC86FF1FE886FF1FD9
:40208000EB86FF1FE086FF1FEA86FF1FED86FF1FC886FF1F28600040014B1878704700BFEB86FF1F064B1B7813F0FF0F05D0044B1878C0B200221A7070470020704700BFC5
:4020C000E886FF1F00EB40008300024A13445878704700BFF086FF1F431EDBB2072B0BD8064B00011A18185C00F00F00537843EA0020023880B2704700207047FC5F004082
:40210000431EDBB2072B3CD8F0B4074600EB4004A3001C4C2344DB889BB2C3F500739A4208D900EB400293002344DA8892B2C2F5007292B200EB4004A300124C2344DB781D
:4021400043EA1223104D04012E192B55D3B2737039B909E0CE5C3D010C4C665501339BB200E000239A42F5D8420002449300054A134400225A705A79D2B20001044B1A5427
:40218000F0BC7047F086FF1FFC5F004078600040FE5F0040431EDBB2072B0BD8420002449300054A134400225A705A79D2B20001024B1A54704700BFF086FF1FFE5F00406E
:4021C00070B5D9B1054614460E46C8B1082819D8FFF782FFA04203D22846FFF77DFF0446002305E02901094A525CF25401339BB2A342F7D32846FFF7CDFF04E0002402E082
:40220000002400E00024204670BD00BF7860004010B4FF2400230EE0094AD25C02EB42029100084A11448A7AD2B2824201D11C4602230133DBB2012BEED9204610BC7047E8
:40224000B886FF1FF086FF1F10B5204C2079FFF7DFFF237813F0800F0ED06378DBB2212B2FD11B4B07221A80C0EBC000194A1044586000F0EFFA10BD144B5B78DBB2202B5E
:4022800002D0222B10D01EE0114A07231380C0EBC00310490B4453600F4A135C43F00103135400F0FFFA10BD084B9B780B4A22F81030094A135C43F00203135400F088F93D
:4022C00010BD002010BD002010BD00BF00600040D486FF1FE080FF1FB086FF1FC486FF1F10B500241F4B1C701F4B1C705C700AE01E4B185DC0B2431EDBB2072B01D8FFF75C
:4023000049FF0134E4B2012CF2D9194B1B7813F0FF0F1AD0154B1B7813F0FF0F17D0154B1B7813F0FF0F14D0114B1B78DBB2082B11D80E4B1B78DBB2082B0ED80D4B1B78B8
:40234000DBB2082B0BD8002010BD012010BD012010BD012010BD012010BD012010BD012010BD00BFC381FF1FB086FF1FBC86FF1FB486FF1FB886FF1F70B506460D460F4B92
:402380001B780F4AD45CE4B204EB440293000D4A13441B899BB28B4209D204EB44029300084A13441D89ADB20020FFF7BBFC2A4631462046FFF7A4FE70BD00BFC381FF1FE6
:4023C000B486FF1FF086FF1F08B5034B1B78034AD05CFFF777FE08BDC381FF1FBC86FF1F08B5034B1B78034AD05CFFF76BFE08BDC381FF1FB486FF1F08B5084B1B78084AFE
:40240000D35CDBB203EB43018A0006490A44128992B201461846FFF7D3FE08BDC381FF1FBC86FF1FF086FF1FC37803F0030390F9020000280FDA032B06D002F001030B4804
:40244000C15442F001020EE0C2F380030848C15442F0040207E0032B05D0C2F340030548C15442F002021046704700BFB486FF1FB886FF1FBC86FF1F1D4B19781D4A1388FA
:402480009BB20B449BB2138000220FE01A494B681B78DBB2194883544B6801334B600132D2B20B889BB2013B9BB20B80124B1B889BB20BB1072AE9D90D4B1B78DBB2082B3D
:4024C00000D05AB10E490B7883F080030B700F210C4B197002210C4B197004E0022309490B7009490B70094B1A70014B1A707047C886FF1FCA86FF1FD486FF1F00600040A3
:402500005E87FF1FE986FF1FCC86FF1FEC86FF1F0222074B1A708022064B1A700F22064B1A700023054A1370054A137001207047CC86FF1F5E87FF1FE986FF1FC886FF1F77
:40254000EC86FF1F08B5FFF797FF08BD10B4194B197801F00F010239C9B2174A13889BB20B449BB21380002011E0144A5468144B1B5CDBB223705368013353600130C0B26F
:402580000139C9B213889BB2013B9BB213800B4B1B889BB20BB10029E7D10A4B19700A4A137883F0800313700B22084B1A7010BC704700BF29600040CA86FF1FD486FF1F4E
:4025C00000600040EC86FF1F5E87FF1FE986FF1F0623064A1370064A13708022054B1A700022054B1A700120704700BFCC86FF1FE986FF1F5E87FF1FEC86FF1F064B9B6859
:4026000043B1054B9A6810709A6804490988518000229A60704700BFD486FF1FCA86FF1F08B5134B1A78D2B21A701B78DBB213F0800F02D00F4A137008BD0220FFF7DEFFD6
:402640000D4B1B7803F06003202B05D0402B06D043B900F093FC06E002F03EFA03E000F037FE00E0002010B90322024B1A7008BD28600040E986FF1F0060004008B5094B95
:402680001978094A13889BB20B449BB213800022064B1A700120FFF7B1FF0322044B1A7008BD00BFC886FF1FCA86FF1FCC86FF1FE986FF1F08B50B4B1B78DBB2042B06D0CA
:4026C000062B07D0022B0BD1FFF7D8FF08BDFFF73DFF08BD0320FFF791FF0322024B1A7008BD00BFCC86FF1FE986FF1F08B50022044B1A700120FFF781FF0322024B1A70CF
:4027000008BD00BFCC86FF1FE986FF1F08B50B4B1B7813F0FF0F07D0084A137843F0800307490B70002313700022064B1A700120FFF764FF0322044B1A7008BDEA86FF1FBE
:4027400008600040CC86FF1FE986FF1F08B5094B1B78DBB2042B06D0062B07D0022B07D1FFF7F0FE08BDFFF7C1FF08BDFFF7CEFF08BD00BFCC86FF1F08B5284B1B78DBB246
:4027800013F0100F48D013F0800F0CD003F00F03012B16D1FFF744FF214B1B7813F0800F11D1012312E013F0400F03D0FFF7CEFF01230BE013F0200F07D0FFF77BFF012303
:4027C00004E0002302E0002300E0002323B3134B1B7813F0800F1FD1124B1B78124A12781343124A13701278D2B2934214D10C4B1B78DBB2094A127812F0800F07D1084B9E
:402800001B78DBB2054A1370137803F00F03044A1278D2B29342EAD108BD00BF28600040E986FF1F5E87FF1FEC86FF1F296000400022064B1A80064B9B682BB1044A916871
:4028400000230B7092685380704700BFCA86FF1FD486FF1F08B50F4B1B889BB213B9FFF757FE15E002220C4B1A7000220B4B1A70FFF7DEFF0A4AD179937943EA0123054A5A
:40288000128892B2934201D2024A1380FFF7F4FD012008BDD486FF1FCC86FF1F5E87FF1F0060004008B504220B4B1A7080220B4B1A70FFF7BDFF0A4AD179937943EA012369
:4028C000084A128892B2934201D2064A13800B22054B1A70012008BDCC86FF1F5E87FF1F00600040D486FF1FE986FF1F0122094B1A700F3B9B7C084B1B7B03F003039342FF
:4029000004D0054AD37B83F08003D3730122024B5A7370470B600040F086FF1F02220A4B1A700F3B93F82230084B1B7E03F00303012B04D0054AD37E83F08003D3760122A6
:40294000024B5A76704700BF0B600040F086FF1F04220C4B1A700F3B93F832300A4B93F8243003F00303012B06D0074A92F8273083F0800382F827300122034B83F82520EE
:40298000704700BF0B600040F086FF1F704700BF08B5FFF75BFB08BD08B500F0A5FC08BD70B588B0054603AC174E0FCE0FC43368237035B322232B7003236B7001A8FFF709
:4029C000FFF9002402231AE008AA224412F81C2C08A901EB121111F8141CE954581C00212954981C02F00F0208AE324412F8142C2A54DA1CA9540134E4B20433DBB2212B71
:402A0000E2D908B070BD00BF7080000010B401233EE019461A010C242148845403EB4300820020480244527912F0FF0F13D003EB430082001B480244127912F0800F04D0EB
:402A40001801194A024494700AE01801164A02440820907004E01801134A0244802090704800084482000F480244D488E4B208010B4901448C71D088C0F30720C871D08878
:402A8000C0B20871D288C2F307224A710133DBB2082BBED9FF22054B1A7010BC704700BF70600040F086FF1FFC5F00400A600040074B1A78074B03EBC2035B681A7C824281
:402AC00004D9C000103018444068704700207047C986FF1F84800000F8B5404B1B7813F0FF0F79D03D4B18780138C0B2FFF7E0FF047AC2683A4B1878C0B200236AE0117814
:402B0000884264D13749095CC9B25578A9425ED1917801F07F01D67806F00306DFF8C8E04D000D44AF000EEB07054FF0000C85F803C092F802C085F804C092F803C00EF84C
:402B400007C097882F8192F90250002D0DDA012E01D1072700E00D274E000E44B500224E35446F7101266E700CE0012E01D1052700E009274E000E44B5001B4E35446F7128
:402B800000266E70DFF868E00F010EEB07060125B57001FA05F529448D00134929440D89C5F307250EF807500D89EDB27570CE88F6B20E4D3D44AE71CE88C6F30726EE7154
:402BC000CE88F6B22E71C988C1F30721697108320133DBB2A34292D3F8BD00BFEB86FF1FE086FF1F5C87FF1FF086FF1F70600040FC5F0040034B1A78034B03EBC203586884
:402C0000704700BFC986FF1F8480000008B5084B18780138C0B2FFF74BFF30B142681279023200EBC203586808BD002008BD00BFEB86FF1F2DE9F047002310E0724D5900F8
:402C4000CA189600AC190022AA55A270E2702281A272627034462C4462710133DBB2082BECD940B90AE000226849CA546849CA540133DBB200E00023012BF4D9654B1B78F0
:402C800013F0FF0F00F0BD80624B18780138C0B2FFF70EFF80464368DB7913F0400F05D05D4A137843F00103137004E05A4A137803F0FE03137098F808704FF0000A012611
:402CC0006FE0D8F80C50002467E0AB7803F07F039E425FD1314606EB460083004A4803441B899BB2A888834206D206EB460E4FEA8E03454A134418812B784448C35CDBB215
:402D00006878834246D195F802C0DFF8FCE04B000B4498000EEB000383F804C0EB780EF80030EB7803F0030395F90200002813DA012B02D14FF0070901E04FF00D09DFF873
:402D4000C8E04B0003EB010C4FEA8C00704480F805900121417012E0012B02D14FF0050901E04FF00909DFF8A0E04B0003EB010C4FEA8C00704480F8059000214170AB7983
:402D80000A2B01D0022B05D1524631462846FFF74BFB824608350134E4B2BC4295D30136F6B2082E8DD9D8F80C0000220CE0837803F07F0310F8084B03EB43039900124BC1
:402DC00019448C720132D2B2BA42F0D3FFF71EFF124B1860002301210FE00B4D4A00501884002C44E380228992B213449BB203F0010213449BB20131C9B20829EDD9FFF7BE
:402E000005FEBDE8F08700BFF086FF1F5C87FF1FD086FF1FEB86FF1FED86FF1FE486FF1F08B5154B1B7903F07F035A1ED2B2072A20D8590019448A0010490A44917841F097
:402E4000010191700021D170517841F002015170127912F0800F05D01B01094A1A448D23937004E01B01064A1A4489239370FFF7AFFB08BD002008BD00600040F086FF1FE3
:402E8000FC5F0040274B1B7903F07F035A1ED2B2072A44D810B5590019448A0022490A44917801F0FE0191700021D1701F4C1801215C01F07F012154517801F0FD01517039
:402EC000127912F0800F13D003EB43018A0016490A445278D2B2012A04D1224602440C23937019E01B01114A1A440D23937013E003EB43018A000C490A445278D2B2012A70
:402F000005D11B01094A1A440823937004E01B01064A1A4409239370FFF75AFB10BD0020704700BF00600040F086FF1FFC5F004010B50E4B1C79E4B20D4B18780138C0B28A
:402F4000FFF7B6FD43681B799C4201D9022C0AD8084A135DDBB208490B55044B9B78DBB21355012010BD002010BD00BF00600040EB86FF1F5C87FF1FD086FF1F10B59C4B60
:402F80001B78DBB200219B4A118013F0800F00F0AD80974A5278D2B20A2A00F27481DFE812F06900720172017201720172010B007201920072019A008D4BDB78DBB2012BEF
:402FC00009D1FFF717FE42688A4B5A6012221A80FFF740FC10BD864BDB78DBB2022B13D1834B9878FFF764FD002800F04E814268804B5A605A68D1785A68927842EA0122B3
:403000001A80FFF727FC10BD794BDB78DBB2032B05D02CE00A7811440133DBB201E000237549734A9278D2B2934203D20A7812F0FF0FEFD16E4B9B7813F0FF0F0BD06C4B4D
:403040009B78DBB26D4A127C934204D16C4C2046FFF7A6FC21460B7813F0FF0F00F017810B78644A13805160FFF7F4FB10BD01F033FD10BD13F0030317D0022B40F009819C
:403080005C490B805A4B1B7903F07F0303EB43039A005C4B1A449278D2B25B4B1A7000225A704B60FFF7D6FB10BD524902230B80564B1A78D2B2544B1A7000225A704B60B4
:4030C000FFF7C8FB10BD4B4B01221A80504A5A60FFF7C0FB10BD474A01231380444B1B794C490B445360FFF7B5FB10BD404A5278013A0A2A00F2CF80DFE812F04C00CD00CA
:403100009800CD000B00CD00CD00CD001300CD003000374B9B78DBB23F4A1370FFF758FA10BD334B9B7803F0FF041BB1601EC0B2FFF7BEFC04B110B9002C40F0AE80344BEB
:403140001B78DBB29C4206D0314B1C700120334B1870FFF76FFDFFF73BFA10BDFFF7E8FE002800F09C80224A1379DBB21279D2B22B490A702B4AD25CD2B22649CB5CDBB216
:403180009A4204D00122254B1A70FFF7A5FCFFF71FFA10BD03F00303012B17D04BB1022B7FD1134B9B7813F0FF0F7CD1FFF76AFE10BD0F4B9B78DBB2012B76D1134A1378FB
:4031C00003F0FD031370FFF703FA10BD084B1B79DBB2012B6BD8064B98781B79DBB21249CA5C22EA0002CA54FFF7F2F910BD00BF00600040D486FF1FEC800000FC81000019
:403200009C87FF1FF086FF1FC481FF1FED86FF1FEB86FF1F5C87FF1FEA86FF1FE886FF1FE086FF1FD086FF1F6087FF1F03F00303012B17D04BB1022B3BD1224B9B7813F05A
:40324000FF0F38D1FFF7ECFD10BD1E4B9B78DBB2012B32D11C4A137843F002031370FFF7B7F910BD174B1B79DBB2012B27D8154B98781B79DBB21549CA5C22EA0002CA5445
:40328000FFF7A6F910BD002010BD002010BD002010BD002010BD002010BD002010BD002010BD002010BD002010BD002010BD002010BD002010BD002010BD002010BD002096
:4032C00010BD00BF00600040ED86FF1F6087FF1F044B1B7813F0800F01D0024B5B780020704700BF00600040024B1878C0F38010704700BF8F45004038B59DF81040651E72
:40330000EDB2032D51D8013809282ED8DFE800F0052D2D052D2D0F192D230F2B03D92548007840B222E02448007840B21EE00F2B03D92248007840B218E02148007840B2C0
:4033400014E00F2B03D91F48007840B20EE01E48007840B20AE00F2B03D91C48007840B204E01B48007840B200E0002001EB401101FB02F2D20B91B20D2B0BD8C3F10E010A
:4033800092B20A4191B2621E124800EB82020133937005E0631E0F4A02EB83030F229A70013C0C4B23F8241038BD0020FEF7BAFC38BD00BF180100491C01004919010049CC
:4033C0001D0100491A0100491E0100491B0100491F010049C881FF1FF8B5074601F074FB06460D4D2B7843F003032B700B4C237843F0030323700A4B1F700320FEF7AAFC8E
:403400002B7803F0FC032B70237803F0FC032370304601F05DFBF8BDF8460040F9460040925800402DE9F04104460022BC4B1A7401285BD13822BB4B1A70042202331A7035
:40344000072201331A70002501331D7001331D703F2201331A7002331D7001331D7001331D7001260A331E70502203F527631A70272201331A702C2201331A7001331D7017
:40348000552203331A705A2201331A704FF00508013383F8008002331D7001331D700A2701331F70432201331A704420FFF794FF58229D4B1A7001331D70053383F80080B9
:4034C00001331E7001331D7001331F704FF4FA42964B1A6031462D2000F002FC3146BA2000F082FC92491D20FEF73EFC022C5AD138228C4B1A70042202331A70072201339E
:403500001A70002501331D7001331D703F2201331A7002331D7001331D7001331D7001260A331E70502203F527631A70272201331A702C2201331A7001331D705522033306
:403540001A705A2201331A70052701331F7002331E70112201331A70192201331A70972201331A704420FFF737FF58226E4B1A7001331D7005331F7001331E7001331D701C
:403580000A2201331A704FF4FA42684B1A603146082000F0A5FB3146252000F025FC65491D20FEF7E1FB032C5AD138225D4B1A70042202331A70072201331A7000250133B2
:4035C0001D7001331D703F2201331A7002331D7001331D7001331D7001260A331E70502203F527631A70272201331A702C2201331A7001331D70552203331A705A220133EF
:403600001A70052701331F7002331E70112201331A70192201331A70972201331A704420FFF7DAFE5822404B1A7001331D7005331F7001331E7001331D700A2201331A7037
:403640004FF4FA42394B1A603146082000F048FB3146252000F0C8FB37491D20FEF784FB042C5AD138222F4B1A70042202331A70072201331A70002401331C7001331C7032
:403680003F2201331A7002331C7001331C7001331C7001250A331D70502203F527631A70272201331A702C2201331A7001331C70552203331A705A2201331A700526013399
:4036C0001E7002331D70112201331A70192201331A70972201331A704420FFF77DFE5822114B1A7001331C7005331E7001331D7001331C700A2201331A704FF4FA420B4B1E
:403700001A602946082000F0EBFA2946252000F06BFB0A491D20FEF727FBBDE8F08100BFC881FF1F004E0040945800406487FF1F413A0000453A0000493A00004D3A0000EF
:403740002DE9F04182B0394E4FF0010886F80080374F00247C74102000F0B0FA102000F031FB07211D20FEF713FB0425314B1D7001331C7007331C702F4A137843F01803E1
:4037800013702E4B1C7003F2F5231C7001331C700A22A3F209331A7001331C7002331C705B2205331A705E2201331A7004331C701422A3F68C231A70CDF8008010234FF41D
:4037C000004249F2DA012846FFF796FD0223009310234FF4004249F2DA012846FFF78CFD0323009310234FF4004249F2DA012846FFF782FD009510234FF4004249F2DA013A
:403800002846FFF779FD3378013B07EB83039A780B4B1A703378013B37F82320094B1A803078FFF7FFFD02B0BDE8F081FA80FF1FC881FF1F96580040075B004093580040BA
:403840000E4E00400C4E004070B501F03DF906462A4B1B782A4B1A7842F001021A701A7842F010021A7010331A7842F001021A701A7842F010021A70224D2B7843F002030E
:403880002B70214C237843F0020323701F4A137843F0030313700320FEF75CFA2B7803F0FD032B70237803F0FD032370184A137843F0060313707A22164B1A70164A13780C
:4038C00043F0040313701032137843F0040313700F3A137843F0010313701032137843F0010313704FF000530C4A1360A2F5C0721360304601F0ECF870BD00BFFA80FF1F06
:40390000AA430040F8460040F9460040915800407758004082580040A143004080E200E008B5084B9B7C4BB9064BDB7C13F0FF0F01D1FFF705FF0122024B9A74FFF784FFFE
:4039400008BD00BFC881FF1F024A137843F0010313707047004E0040094B1B7C13F0FF0F03D0074B5B7CDBB203E0064B1B7803F00103012B01D00028EED01846704700BF8C
:40398000C881FF1F014E0040154B1B7803F00303012B07D8134B1888023B1B889BB243EA004013E0022B0AD10E4B1888023B1B7843EA00430C4A107843EA002006E00B4BE7
:4039C000188883B2074A108843EA0040084B1B7C13F0FF0F02D00022054B5A74704700BF144E0040124E0040114E0040104E0040C881FF1F0F4B1B78DBB2012B06D00D4B5F
:403A00001B78DBB2022B01D00A4B1B780A4B1B68002B00DA1F335A1147F6122303FB00F090FBF2F00549096803FB01F393FBF2F3C01A7047FA80FF1F6487FF1F6887FF1FB6
:403A4000704700BF704700BF704700BF704700BF084A137843F0010313701032137843F00103137002F5A5521E32137843F0800313707047A9430040044A137803F0FC03A0
:403A800000F0030018431070704700BF01580040072809D8054B1A7802F08F021A701A780001C0B210431870704700BF02580040032809D8054B1A7802F0F3021A701A7849
:403AC0008000C0B210431870704700BF0258004010B50224084B1C700C2201331A70012201331A700020FFF7D3FF0320FFF7E0FF2046FFF7C1FF10BD0058004008B5054BE4
:403B00001B7823B90122034B1A70FFF7E1FFFFF79FFF08BDDC81FF1F054A137843F0080313701032137843F008031370704700BFA8430040054B1A7802F0FD021A701A78B8
:403B400000F0020010431870704700BF2C580040014B1870704700BF835B0040064B1B78C3F3810303F19243063393F83831DBB2024A1370704700BF2C5800400B4600409B
:403B800008B5064B1A7802F0F3021A701A7800F00C0010431870FFF7E1FF08BD2C58004010B50024054B1C7001331C700420FFF7E7FF2046FFF7BEFF10BD00BF2C5800403E
:403BC00008B5074B1B7823B9FFF7EAFF0122044B1A70FFF7A1FF0020FFF7BAFF08BD00BFDD81FF1F054A137843F0010313701032137843F001031370704700BFA84300404B
:403C0000054B1A7802F0FD021A701A7800F0020010431870704700BF20580040014B1870704700BF805B0040064B1B78C3F3810303F19243063393F82031DBB2024A1370DD
:403C4000704700BF205800400846004008B5064B1A7802F0F3021A701A7800F00C0010431870FFF7E1FF08BD2058004010B50024054B1C7001331C700420FFF7E7FF2046D0
:403C8000FFF7BEFF10BD00BF2058004008B5074B1B7823B9FFF7EAFF0122044B1A70FFF7A1FF7D20FFF7BAFF08BD00BFDE81FF1F014B188880B2704780400040034B1A781C
:403CC00000F0F80010431870704700BF82400040024B187800F00700704700BF8240004070B505460E46FFF7F3FF0446FFF7E0FFA84256D02B4B1B7803F0010294B900B165
:403D000085B938B9284B1D80284A137803F0BF03137070BD254A137843F040031370224B1D8070BD22B3002321490B7001240F310C7004310B700C390B7803F07F030B7092
:403D40001A4B1B7813F0080F00D08DB9194B18800721013B1970164B1B7813F0010FFAD110490B7803F0FE030B700021104B19700C4B1B7813F0010F0DD00E4B1D800EB181
:403D8000032200E001220A4B1A70094B1B7813F0010FFAD170BD044B1D8002490B7813430B7070BDA243004080400040824000400140004002400040014B188880B2704753
:403DC00008410040034B1A7800F0F80010431870704700BF0A410040024B187800F00700704700BF0A41004070B504460D46FFF7F3FF0646FFF7E0FFA04257D02C4B1B78E3
:403E000003F00403DAB296B900B184B938B9294B1C80294A137803F0BF03137070BD264A137843F040031370224B1C8070BD22B3002322490B70042613310E7004390B70AF
:403E400008390B7803F07F030B701B4B1B7813F0080F00D08CB91A4B18800721013B1970164B1B7813F0010FFAD111490B7803F0FB030B700021114B19700D4B1B7813F06D
:403E8000040F0DD00E4B1C800DB1032200E001220A4B1A70094B1B7813F0010FFAD170BD044B1C8002490B7813430B7070BD00BFA1430040084100400A4100400140004037
:403EC00002400040054A137843F0020313701032137843F002031370704700BFA8430040054B1A7802F0FD021A701A7800F0020010431870704700BF24580040014B1870C0
:403F0000704700BF815B0040064B1B78C3F3810303F19243063393F83031DBB2024A1370704700BF245800400946004008B5064B1A7802F0F3021A701A7800F00C001043D4
:403F40001870FFF7E1FF08BD2458004010B50024054B1C7001331C700420FFF7E7FF2046FFF7BEFF10BD00BF2458004008B5074B1B7823B9FFF7EAFF0122044B1A70FFF72D
:403F8000A1FF7D20FFF7BAFF08BD00BFDF81FF1F10B50024144B1C7001220E331A7000F093FD124A137843F01003137000F090FD0F220F4B1A70082210331A7004220D4B1A
:403FC0001A6007210220FDF7E3FE0B490220FDF7CBFE1022094B1A70094B1C70094B1C70094B1C7010BD00BF7F6400409D6400402C64004080E100E0854000006C87FF1F6E
:404000007287FF1F7487FF1F7087FF1F024A137843F00203137070477F64004008B5074B1B7823B9FFF7B4FF0122044B1A70FFF7EDFF0422024B1A6008BD00BFE081FF1FDA
:4040400000E100E004220A4B1A600A490B7803F0FD030B70084B1B780E310B7803F0DF030B70064B1A601022054B1A70704700BF80E100E07F6400406D64004080E200E04A
:404080006C87FF1F38B5AC4B1C78AC4B1B7813F0400F00F07B81E4B214F0010F00F04281A64B1B78453B052B00F23981DFE813F006009200370137010600F90004F0DF05C9
:4040C00004F00A04082C50D19C4B1B78DBB2452B3DD19B4B1B7813F0FF0F16D0994B1B681B78DBB2984A13700622984B1A70FF22673B1A70002240331A700122944B1A70FB
:4041000046228E4B1A702C460CE1924B1B7813F0020F0CD0904A137843F00A0313706022864B1A7004228D4B1A602C46FAE08C4A137843F0200313705222844B1A70FF2204
:40414000673B1A70002240331A702C46EAE002227E4B1A70FF22673B1A70002240331A704A22764B1A702C46DCE00A2C2DD17A4A137843F0A0031370764B1B7813F0020FAC
:4041800013D06E4B1B7813F0080F01D0092300E00A23714A11780B4313706022674B1A7004226E4B1A602C46BCE06D4A137843F0200313705222654B1A70FF22673B1A705C
:4041C000002240331A702C46ACE00020FDF7AAFD2C46A7E014F0020F3ED15D4B1A78D2B2574B1B78DBB29A4216D2594A1378DBB254490968CB5CDBB253490B700621534B2D
:404200001970FF21673B197000214033197013780133DBB2137085E04E4B1B7813F0020F0BD04D4A137843F00A0313706022434B1A700422494B1A6074E0494A137843F0E6
:40424000200313705222414B1A70FF22673B1A70002240331A7065E03E4B1B7813F0020F0BD03D4A137843F09A0313706022334B1A700422394B1A6054E0394A137843F0CA
:40428000200313705222314B1A70FF22673B1A70002240331A70304A137843F09003137040E0304A1378DBB22F49086826490978C9B2C15413780133DBB213701278D2B22D
:4042C0002A4B1B78DBB29A4209D202221F4B1A70FF22673B1A70002240331A7022E01D4B1B7813F0020F0BD01B4A137843F0090313706022114B1A700422184B1A6011E0F4
:40430000174A137843F02003137012220F4B1A70FF22673B1A70002240331A7002E00020FDF700FD14F0200F38D0044B1B7813F0080F1DD001231CE06D6400406C87FF1FDB
:404340007387FF1F7887FF1F086400407F6400407087FF1F7187FF1F7287FF1F80E100E08D6400407487FF1F7C87FF1F8087FF1F02230B4A11780B4313700A4A137803F080
:40438000DF0313701022084B1A7038BD064B1B7813F0100F02D11022034B1A7038BD00BF7287FF1F8D6400406C87FF1F00294ED070B40C4629490978C9B2102906D12849F8
:4043C000097811F0100F10D1002111E023490978C9B260290BD1042522490D60224D297801F0F7012970002102E0012100E0022181BB4526194D2E7000261C4D2E701C4D60
:404400002A701C4A14601C4A1370174C227802F0FD0222704200D2B21848027013F0010F08D03222164B1A70FF22673B1A7040331E7008E08222124B1A70FF22673B1A70CF
:40444000002240331A7004220E4B1A6002E0022108467047084670BC704700BF6C87FF1F6D64004080E200E07287FF1F7087FF1F7387FF1F7887FF1F7187FF1F08640040A3
:404480007F64004000E100E00422074B1A60074B1878C0B2064B1B7813F0400F00D010430422044B1A60704780E100E07287FF1F6C87FF1F00E100E00423044A1360044A73
:4044C000107800211170034A1360704780E100E07287FF1F00E100E0084A137843F0010313701032137843F00103137002F64D32137843F001031370704700BFA34300408C
:40450000014B1870704700BF034F0040014B1878704700BF034F0040014B1880704700BF044F0040014B1880704700BF064F004008B5154A137803F00103137002321378FF
:4045400003F0FC031370114B1A7802F0CF021A701A7842F030021A701A7802F0F0021A701A7842F00F021A70094A137843F001031370FF20FFF7D0FFFF20FFF7D3FF082021
:40458000FFF7BEFF08BD00BF004F00400B4F0040014F004008B5054B1B7823B9FFF7C8FF0122024B1A70FFF797FF08BDE181FF1F024B1B68C3F88400704700BF08ED00E0AD
:4045C0004001C0B2014B1870704700BF11E400E04FF40032014B1A60704700BF00E100E04FF40032014B1A60704700BF80E100E010B50446FFF7F4FF2046FFF7D9FF072032
:40460000FFF7DEFFFFF7E4FF10BD00BF4FF40032014B1A60704700BF80E200E008B50A2813D00C2802D0082809D104E04FF400614FF480520DE080214FF4807209E0002004
:40464000FDF770FB00210A4603E04FF400714FF480620020094B188041F2883342F2107000FB0233064A82FB0302DB17C3EB2233044A136009B2044B198008BD8487FF1FB7
:40468000AD8BDB688887FF1F8687FF1F10B500F01BFA04461F4A137843F0020313701032137843F0020313701A3A137843F0010313701032137843F00103137002F5AA52C9
:4046C0001A32137803F0FE0343F0020313708022114B1A70013B1A7842F040021A701A7802F0FC021A70C822053B1A700222A3F59753123B1A70094A137843F00803137004
:404700000A20FDF727FB0122054B1A60204600F0DFF910BDAB4300400E5900402F5B004080E200E010B504460A280DD00C2802D0082804D101E0C42207E0442205E000202E
:40474000FDF7F0FAC42200E08422034B1A702046FFF764FF10BD00BF0A59004008B5102000F094F907210020FDF712FB07490020FDF7FAFA064A137843F0060313700C2058
:40478000FFF7D0FF0022034B1A8008BD51480000095900408C87FF1F08B5054B1B7823B9FFF7DCFF0122024B1A70FFF76FFF08BDE281FF1F024A137843F0010313707047C0
:4047C0000859004010B5074B1B7813F0010401D10028F8D024B10120FDF7BCFA014B1B78204610BD09590040034B188880B2034B1B88C01A00B27047A25B00408687FF1F94
:4048000038B50F4B1B881BB233B10D4B1B881BB203EB83035C0001E00A4B1C680A4B1B88C01A00B200F0E4FE084900F035FF0546204600F0DDFE0146284600F0E1FF38BDCA
:404840008487FF1F8887FF1F8C87FF1F00002041704700BF08B50A2813D00C2802D0082809D104E04FF400614FF480520DE080214FF4807209E00020FDF754FA00210A46DC
:4048800003E04FF400714FF480620020094B188041F2883342F2107000FB0233064A82FB0302DB17C3EB2233044A136009B2044B198008BD9887FF1FAD8BDB689087FF1F81
:4048C0009487FF1F38B500F0FFF804461F4A137843F0010313701032137843F0010313701A3A137843F0020313701032137843F00203137002F5AA521232137803F0FE0354
:4049000043F0020313708022114B1A70013B1A7842F040021A701A7802F0FC021A70C822053B1A700225A3F597530C3B1D70094A137843F0080313700A20FDF70BFA064B18
:404940001D60204600F0C4F838BD00BFAB43004006590040275B004080E200E010B504460A280DD00C2802D0082804D101E0C42207E0442205E00020FDF7D4F9C42200E05A
:404980008422034B1A702046FFF764FF10BD00BF0259004008B5102000F082F807210120FDF7F6F907490120FDF7DEF9064A137843F0060313700C20FFF7D0FF0022034BD9
:4049C0001A8008BD894A0000015900409687FF1F08B5054B1B7823B9FFF7DCFF0122024B1A70FFF76FFF08BDE381FF1F024A137843F00103137070470059004010B5074BC6
:404A00001B7813F0010401D10028F8D024B10120FDF7A0F9014B1B78204610BD01590040034B188880B2034B1B88C01A00B27047A05B00409487FF1F38B50F4B1B881BB26B
:404A400033B10D4B1B881BB203EB83035C0001E00A4B1C680A4B1B88C01A00B200F0C8FD084900F019FE0546204600F0C1FD0146284600F0C5FE38BD9887FF1F9087FF1F41
:404A80009687FF1F00002041704700BF034B1A7800F0F80010431870704700BF02410040034B1A7800F0F80010431870704700BF06410040000000000230800803D000BF5C
:404AC00001380046FCD17047EFF3108072B6704780F31088704700BF08B5144B1B7803F00303012B02D0022B04D00FE00F4B1B79DBB20CE00D4B1B7903F07F0303EB43034F
:404B00009A000B4B1A44937ADBB200E00023022B07D8084A1268D35C022B04D1FDF794FB08BD002008BD002008BD00BF00600040F086FF1FE486FF1F81F0004102E000BFA1
:404B400083F0004330B54FEA41044FEA430594EA050F08BF90EA020F1FBF54EA000C55EA020C7FEA645C7FEA655C00F0E2804FEA5454D4EB5555B8BF6D420CDD2C4480EA6A
:404B8000020281EA030382EA000083EA010180EA020281EA0303362D88BF30BD11F0004F4FEA01314FF4801C4CEA113102D0404261EB410113F0004F4FEA03334CEA1333FE
:404BC00002D0524263EB430394EA050F00F0A780A4F10104D5F1200E0DDB02FA0EFC22FA05F2801841F1000103FA0EF2801843FA05F359410EE0A5F120050EF1200E012A53
:404C000003FA0EFC28BF4CF0020C43FA05F3C01851EBE37101F0004507D54FF0000EDCF1000C7EEB00006EEB0101B1F5801F1BD3B1F5001F0CD349085FEA30004FEA3C0C81
:404C400004F101044FEA445212F5800F80F09A80BCF1004F08BF5FEA500C50F1000041EB045141EA050130BD5FEA4C0C404141EB010111F4801FA4F10104E9D191F0000F2B
:404C800004BF01460020B1FA81F308BF2033A3F10B03B3F120020CDA0C3208DD02F1140CC2F10C0201FA0CF021FA02F10CE002F11402D8BFC2F1200C01FA02F120FA0CFCCC
:404CC000DCBF41EA0C019040E41AA2BF01EB0451294330BD6FEA04041F3C1CDA0C340EDC04F11404C4F1200220FA04F001FA02F340EA030021FA04F345EA030130BDC4F146
:404D00000C04C4F1200220FA02F001FA04F340EA0300294630BD21FA04F0294630BD94F0000F83F4801306BF81F480110134013D4EE77FEA645C18BF7FEA655C29D094EAE9
:404D4000050F08BF90EA020F05D054EA000C04BF1946104630BD91EA030F1EBF0021002030BD5FEA545C05D14000494128BF41F0004130BD14F580043CBF01F5801130BDD6
:404D800001F0004545F0FE4141F470014FF0000030BD7FEA645C1ABF194610467FEA655C1CBF0B46024650EA013406BF52EA033591EA030F41F4002130BD00BF90F0000F5C
:404DC00004BF0021704730B54FF4806404F132044FF000054FF0000150E700BF90F0000F04BF0021704730B54FF4806404F1320410F0004548BF40424FF000013EE700BF14
:404E000042004FEAE2014FEA31014FEA02701FBF12F07F4393F07F4F81F06051704792F0000F14BF93F07F4F704730B54FF4607401F0004521F0004120E700BF50EA01023F
:404E400008BF704730B54FF000050AE050EA010208BF704730B511F0004502D5404261EB41014FF4806404F132045FEA915C3FF4DCAE4FF003025FEADC0C18BF03325FEAC5
:404E8000DC0C18BF033202EBDC02C2F1200300FA03FC20FA02F001FA03FE40EA0E0021FA02F11444C1E600BF70B54FF0FF0C4CF4E06C1CEA11541DBF1CEA135594EA0C0F0F
:404EC00095EA0C0F00F0DEF82C4481EA030621EA4C5123EA4C5350EA013518BF52EA033541F4801143F4801338D0A0FB02CE4FF00005E1FB02E506F00042E0FB03E54FF01B
:404F00000006E1FB03569CF0000F18BF4EF0010EA4F1FF04B6F5007F64F5407404D25FEA4E0E6D4146EB060642EAC62141EA55514FEAC52040EA5E504FEACE2EB4F1FD0C85
:404F400088BFBCF5E06F1ED8BEF1004F08BF5FEA500E50F1000041EB045170BD06F0004646EA010140EA020081EA0301B4EB5C04C2BFD4EB0C0541EA045170BD41F48011CD
:404F80004FF0000E013C00F3AB8014F1360FDEBF002001F0004170BDC4F10004203C35DA0C341BDC04F11404C4F1200500FA05F320FA04F001FA05F240EA020001F0004250
:404FC00021F0004110EBD37021FA04F642EB06015EEA430E08BF20EAD37070BDC4F10C04C4F1200500FA04F320FA05F001FA04F240EA020001F0004110EBD37041F100019F
:405000005EEA430E08BF20EAD37070BDC4F1200500FA05F24EEA020E20FA04F301FA05F243EA020321FA04F001F0004121FA04F220EA020000EBD3705EEA430E08BF20EA58
:40504000D37070BD94F0000F0FD101F00046400041EB010111F4801F08BF013CF7D041EA060195F0000F18BF704703F00046520043EB030313F4801F08BF013DF7D043EA87
:405080000603704794EA0C0F0CEA135518BF95EA0C0F0CD050EA410618BF52EA4306D1D181EA030101F000414FF0000070BD50EA410606BF1046194652EA430619D094EA79
:4050C0000C0F02D150EA013613D195EA0C0F05D152EA03361CBF104619460AD181EA030101F0004141F0FE4141F470014FF0000070BD41F0FE4141F4780170BD70B54FF04B
:40510000FF0C4CF4E06C1CEA11541DBF1CEA135594EA0C0F95EA0C0F00F0A7F8A4EB050481EA030E52EA03354FEA013100F088804FEA03334FF0805545EA131343EA1263FC
:405140004FEA022245EA111545EA10654FEA00260EF000419D4208BF964244F1FD0404F5407402D25B084FEA3202B61A65EB03055B084FEA32024FF480104FF4002CB6EB5B
:40518000020E75EB030E22BFB61A754640EA0C005B084FEA3202B6EB020E75EB030E22BFB61A754640EA5C005B084FEA3202B6EB020E75EB030E22BFB61A754640EA9C00C4
:4051C0005B084FEA3202B6EB020E75EB030E22BFB61A754640EADC0055EA060E18D04FEA051545EA16754FEA06164FEAC30343EA52734FEAC2025FEA1C1CC0D111F4801F0A
:405200000BD141EA00014FF000004FF0004CB6E711F4801F04BF01430020B4F1FD0C88BFBCF5E06F3FF6AFAEB5EB030C04BFB6EB020C5FEA500C50F1000041EB045170BDF8
:405240000EF0004E4EEA113114EB5C04C2BFD4EB0C0541EA045170BD41F480114FF0000E013C90E645EA060E8DE60CEA135594EA0C0F08BF95EA0C0F3FF43BAF94EA0C0F81
:405280000AD150EA01347FF434AF95EA0C0F7FF425AF104619462CE795EA0C0F06D152EA03353FF4FDAE1046194622E750EA410618BF52EA43067FF4C5AE50EA41047FF46F
:4052C0000DAF52EA43057FF4EBAE12E74FF0FF3C06E000BF4FF0010C02E000BF4FF0010C4DF804CD4FEA410C7FEA6C5C4FEA430C18BF7FEA6C5C1BD001B050EA410C0CBFC6
:4053000052EA430C91EA030F02BF90EA020F0020704710F1000F91EA030F58BF994208BF90422CBFD8176FEAE37040F0010070474FEA410C7FEA6C5C02D150EA013C07D1C3
:405340004FEA430C7FEA6C5CD6D152EA033CD3D05DF8040B704700BF8446104662468C461946634600E000BF01B5FFF7B7FF002848BF10F1000F01BD4DF808EDFFF7F4FF12
:405380000CBF012000205DF808FB00BF4DF808EDFFF7EAFF34BF012000205DF808FB00BF4DF808EDFFF7E0FF94BF012000205DF808FB00BF4DF808EDFFF7CEFF94BF01203B
:4053C00000205DF808FB00BF4DF808EDFFF7C4FF34BF012000205DF808FB00BF4FEA4102B2F1E04324BFB3F5001CDCF1FE5C0DD901F0004C4FEAC0024CEA5070B2F1004F22
:4054000040EB830008BF20F00100704711F0804F21D113F13872BCBF01F00040704741F480114FEA5252C2F11802C2F1200C10FA0CF320FA02F018BF40F001004FEAC123D3
:405440004FEAD32303FA0CFC40EA0C0023FA02F34FEA4303CCE77FEA625307D150EA01331EBF4FF0FE4040F44000704701F0004040F0FE4040F40000704700BF80F000409C
:4054800002E000BF81F0004142001FBF5FEA410392EA030F7FEA226C7FEA236C6AD04FEA1262D2EB1363C1BFD218414048404140B8BF5B42192B88BF704710F0004F40F488
:4054C000000020F07F4018BF404211F0004F41F4000121F07F4118BF494292EA030F3FD0A2F1010241FA03FC10EB0C00C3F1200301FA03F100F0004302D5494260EB400071
:40550000B0F5000F13D3B0F1807F06D340084FEA310102F10102FE2A51D2B1F1004F40EBC25008BF20F0010040EA03007047490040EB000010F4000FA2F10102EDD1B0FAF5
:4055400080FCACF1080CB2EB0C0200FA0CF0AABF00EBC25052421843BCBFD0401843704792F0000F81F4000106BF80F400000132013BB5E74FEA41037FEA226C18BF7FEA6C
:40558000236C21D092EA030F04D092F0000F08BF0846704790EA010F1CBF0020704712F07F4F04D1400028BF40F00040704712F100723CBF00F50000704700F0004343F0FB
:4055C000FE4040F4000070477FEA226216BF08467FEA23630146420206BF5FEA412390EA010F40F4800070474FF0000304E000BF10F0004348BF40425FEA000C08BF70470D
:4056000043F0964301464FF000001CE050EA010208BF70474FF000030AE000BF50EA010208BF704711F0004302D5404261EB41015FEA010C02BF84460146002043F0B643DC
:4056400008BFA3F18053A3F50003BCFA8CF2083AA3EBC25310DB01FA02FC634400FA02FCC2F12002BCF1004F20FA02F243EB020008BF20F00100704702F1200201FA02FC19
:40568000C2F1200250EA4C0021FA02F243EB020008BF20EADC7070474FF0FF0C1CEAD0521EBF1CEAD15392EA0C0F93EA0C0F6FD01A4480EA010C400218BF5FEA41211ED00E
:4056C0004FF0006343EA501043EA5111A0FB01310CF00040B1F5000F3EBF490041EAD3715B0040EA010062F17F02FD2A1DD8B3F1004F40EBC25008BF20F00100704790F0C4
:40570000000F0CF0004C08BF49024CEA502040EA51207F3AC2BFD2F1FF0340EAC250704740F400004FF00003013A5DDC12F1190FDCBF00F000407047C2F10002410021FA25
:4057400002F1C2F1200200FA02FC5FEA310040F1000053EA4C0308BF20EADC70704792F0000F00F0004C02BF400010F4000F013AF9D040EA0C0093F0000F01F0004C02BFB3
:40578000490011F4000F013BF9D041EA0C018FE70CEAD15392EA0C0F18BF93EA0C0F0AD030F0004C18BF31F0004CD8D180EA010000F00040704790F0000F17BF90F0004F00
:4057C000084691F0000F91F0004F14D092EA0C0F01D142020FD193EA0C0F03D14B0218BF084608D180EA010000F0004040F0FE4040F40000704740F0FE4040F44000704746
:405800004FF0FF0C1CEAD0521EBF1CEAD15392EA0C0F93EA0C0F69D0A2EB030280EA010C49024FEA402037D04FF0805343EA111143EA10130CF000408B4238BF5B0042F154
:405840007D024FF4000C8B4224BF5B1A40EA0C00B3EB510F24BFA3EB510340EA5C00B3EB910F24BFA3EB910340EA9C00B3EBD10F24BFA3EBD10340EADC001B0118BF5FEAA8
:405880001C1CE0D1FD2A3FF650AF8B4240EBC25008BF20F0010070470CF0004C4CEA50207F32C2BFD2F1FF0340EAC250704740F400004FF00003013A37E792F0000F00F0E3
:4058C000004C02BF400010F4000F013AF9D040EA0C0093F0000F01F0004C02BF490011F4000F013BF9D041EA0C0195E70CEAD15392EA0C0F08D142027FF47DAF93EA0C0F63
:405900007FF470AF084676E793EA0C0F04D14B023FF44CAF08466EE730F0004C18BF31F0004CCAD130F000427FF45CAF31F000437FF43CAF5FE700BF4FEA4002B2F1FE4F42
:405940000FD34FF09E03B3EB12620DD94FEA002343F0004310F0004F23FA02F018BF404270474FF00000704712F1610F01D1420205D110F0004008BF6FF0004070474FF03C
:4059800000007047014B1868704700BF5C81FF1F0E4B70B51E460E4C0025E41AA410A54204D056F8253098470135F8E702F062FD084B094C1E46E41AA4100025A54204D09F
:4059C00056F8253098470135F8E770BD8084000080840000808400008884000010B5431E0A44914204D011F8014B03F8014FF8E710BD03460244934202D003F8011BFAE736
:405A000070472DE9F04788B0149F002B1E461299B8BF03F1004327F02007B6BF1E4600232D23462F1446109DDDF84CA00B7003D0452F03D1013501E0032300E0022307AA3F
:405A4000049206AA03928DE828042246334600F0BBFD472F804602D1119BDB0728D5462F08EB050911D198F80030302B0AD10022002320463146FFF77FFC18B9C5F1010519
:405A8000CAF80050DAF8003099440022002320463146FFF771FC08B9302202E0CDF81C9006E0079B994503D9591C07911A70F8E74046079B159AC8EB0303136008B0BDE8F2
:405AC000F087034673B50029B8BF494203F8022BB4BF2D222B22092942701ADD0DF1070216460A2591FBF5F405FB1411092C01F1300102F8011D2146F4DC3031541E02F8E1
:405B0000011CB4421A460AD214F8012B03F8012BF7E71A463024214402F8024B5970101A02B070BD2DE9F04F91B00C46DDF8688016461F46054601F0DFFA036818460993C7
:405B400000F002FC00230E93D8F800300A90073323F0070303F1080294F81890D4F800B0C8F80020D3E90023C4E91223D4F84CA0D4F848802AF000430B934FF0FF32A74B8A
:405B800040460B9902F00CF8A0B94FF0FF32A34B40460B99FFF704FC60B90022002340465146FFF7F3FB10B12D2384F843309C4B9C4A0AE0424653464046514601F0F0FFBA
:405BC000002800F09281984B984AB9F1470F8CBF90469846032323612BF0040323604FF0000A3DE0B9F1670F00F08A81B9F1470F00F0868123600193636800210DF13302B9
:405C0000059002920093424653460691CDF81090CDF80CE02846FFF7F4FE09F0DF03472B804600F08481B9F1650F0D9900F28D8101394A4604F150000D91FFF742FF0E9A2C
:405C400082468318012A236100F37C812268D10700F178819DF8333013B12D2384F84330009733460FAA2146284600F09FF9013002D14FF0FF3096E123685A0501D4236981
:405C800065E0B9F1650F40F2D580D4E9120100220023FFF771FB78B30123654A31462846B8470130E5D00E9B0D9A9A420BDB2368D80708D423689B0740F111814FF000082C
:405CC00004F1190906E10A9B099A31462846B8470130CED04FF0000804F11A090E9B013B9845E7DA01234A4631462846B8470130BFD008F10108F1E70D9B002B29DC01239B
:405D00004B4A31462846B8470130B2D00D9B23B90E9B13B92368D907CCD50A9B099A31462846B8470130A4D04FF0000904F11A0A0D9B5B42994509DA012352463146284659
:405D4000B847013095D009F10109F1E70E9B4246A7E00E9AA36D9A42A8BF1A46002A914606DC4FF0000A29EAE97904F11A0B11E01346314642462846B8470130F1D178E7DC
:405D800001235A4631462846B84701303FF471AF0AF1010AA36DC9EB03029245F0DB08EB03090D9A0E9B9A420FDB2368DA070CD40E9B0D9A9844C9EB08089B1A9845A8BFFC
:405DC0009846B8F1000F08DC0FE00A9B099A31462846B8470130EBD14BE743464A4631462846B84701303FF444AF4FF0000928EAE87804F11A0A09E001235246314628463E
:405E0000B84701303FF435AF09F101090D9A0E9B9B1AC8EB03039945EEDB4BE7FFFFEF7F1082000014820000188200001C820000208200000E9A012A01DCDB0738D501234F
:405E4000424631462846B84701303FF412AF0A9B099A31462846B84701303FF40AAFD4E9120100220023FFF787FA20B14FF0000804F11A090EE00E9B08F10102013B19E0C4
:405E800001234A4631462846B84701303FF4F1AE08F101080E9B013B9845F1DB534604F1500231462846B84701307FF403AFE0E64246012331462846B8470130EED1D8E699
:405EC00001234A4631462846B84701303FF4D1AE08F10108E3680F9A9B1A9845F0DBE0680F9B9842B8BF18465DE062680EA8531C0DF1340E4BF480637FF474AE062201E007
:405F000012B90122626075E6002106910DF133018DE80C00236005904246CDF81090CDF80CE0029153462846FFF76BFD80460D9BD81C02DB626893421DDDA9F102095FFA67
:405F400089F970E60133236184E6B9F1660F14D10029636807DD216113B92268D2071DD501330B4419E013B92268D00701D5023313E0012311E04FF067090D9B0E9A934218
:405F800005DB22682361D10708D5013305E0002BD4BFC3F102030123134423610D9B4FF0000AA36556E611B0BDE8F08F2DE9F04791461F460A698B6806469342B8BF1346B5
:405FC000C9F8003091F843200C46DDF8208012B10133C9F800302368990642BFD9F800300233C9F80030256815F0060510D104F1190A07E00123524639463046C04701305D
:406000001AD00135E368D9F800209B1A9D42F1DB94F843302268003318BF012392060FD5E118302081F843005A1C94F845102244023382F8431003E04FF0FF30BDE8F08740
:4060400004F1430239463046C0470130F4D02268D9F80050E36802F00602042A08BF5D1B2269A3680CBF25EAE57500259342C4BF9B1AED184FF000091A344D4509D0012372
:40608000224639463046C0470130D5D009F10109F3E70020BDE8F0872DE9F04317460A7E85B06E2A984606460C460C9B01F1430E00F0AE8011D8632A22D009D8002A00F0AA
:4060C000BB80582A40F0CA8081F84520834955E0642A1ED0692A1CD0C0E0732A00F0B08009D86F2A2ED0702A40F0B8800A6842F020020A603EE0752A24D0782A3AD0ADE09E
:406100001A6801F14205111D1960136884F84230A8E021681A6811F0800F02D0111D196008E011F0400F02F10401196002D0B2F9003000E01368002B3CDA2D225B4284F89E
:40614000432037E021681A6811F0800F02D0111D196007E011F0400F02F10401196001D0138800E01368227E5C496F2A14BF0A2208221BE078225A4984F8452022681868F8
:4061800012F0800F00F104051D6003D1550601D5038800E00368D00744BF42F0200222601BB9226822F0200222601022002084F8430001E049490A226568002DA56008DBA6
:4061C000206820F0040020602BB9002D7DD175460CE0002B79D07546B3FBF2F002FB1033CB5C05F8013D03460028F5D1082A0BD12368DA0708D5236962689A42DEBF30236C
:4062000005F8013C05F1FF35C5EB0E0323612EE008681A6810F0800F496903D0101D1860136808E010F0400F02F104001860136801D0198000E0196000232361754616E045
:406240001A68111D1960156800216268284600F05FFF08B1401B6060636804E004F1420584F8422001232361002384F84330CDF800803B4603AA21463046FFF797FE01306E
:4062800002D14FF0FF3026E023692A4639463046C0470130F5D023689B0710D5002504F1190907E001234A4639463046C0470130E7D00135E368039A9B1A9D42F2DBE06815
:4062C000039B9842B8BF184605E00B7804F1420584F842308AE705B0BDE8F08322820000338200000EB400B54FF402719CB0ADF814106FF00041049107914FF6FF711DAB9C
:4063000002900690084853F8042BADF81610006802A9019301F0F2FA029B00221A701CB05DF804EB03B070475C81FF1FC9B2034610F8012B1AB19142F9D1184670470029C0
:406340000CBF184600207047034613F8012B002AFBD1181A01387047F0B5037863B90B78002B18BF0020F0BD15F8012F62B114F8017F30469742F7D00346461C007810B121
:406380004D1E5C1EF0E7F0BD1846F0BD2DE9F0470F4680463F48D0F800903D4615F8014B09EB0400407800F0080000F0FF0608B12F46F2E72D2C03D1BD1C7C78012603E09E
:4063C0002B2C04BF7C78BD1C13B1102B0AD15BE0302C57D1287800F0DF0058284DD16C7810230235002E14BF4FF0004C6FF0004CBCFBF3FA0027384603FB1ACC09EB040E58
:406400009EF801E01EF0040F01D0303C0BE01EF0030E1BD0BEF1010F0CBF4FF0370E4FF0570ECEEB0404A34210DDB7F1FF3F0AD0504506D801D1644503DC03FB004001275A
:4064400001E04FF0FF3715F8014BD7E77B1C0CD1002E4FF0220314BF4FF000406FF00040C8F800302AB9BDE8F08706B1404272B107B1691E1160BDE8F0873024002BB1D1A0
:406480000823AFE70A23ADE7302CA3D0AAE7BDE8F08700BF6081FF1F13460A46014602480068FFF773BF00BF5C81FF1F2DE9F74F03690C6980469C427FDC013C01F1140716
:4064C0004FEA840E00F1140606EB0E0357F82450019356F824300135B3FBF5F507EB0E09C5B34FF0000A3846B446D34650F8043B9AB205FB02A21B0C4FEA124A05FB03A3C9
:4065000092B2C2EB0B0BBCF800204FEA134A5A441FFA83FBDCF800308145CBEB134303EB224392B242EA03424FEA234B4CF8042BDCD256F80E306BB9019B043B9E421A4644
:4065400002D3C8F8104005E01268043B002AF8D1013CF3E7404600F0F6FF00282BDB304601354FF0000E57F8042B036891B2C1EB0E0E120C99B27144C2EB134303EB214395
:4065800089B24FEA234EB94541EA034340F8043BE9D256F8242006EB840362B9043B9E421A4602D3C8F8104005E01268043B002AF8D1013CF3E7284600E0002003B0BDE85E
:4065C000F08F0000000000002DE9F04F456A95B08246219CCDE9022345B9102000F090FDCAF82400456085600560C560DAF82430196859B15A68012393404A608B60504639
:4066000000F0C9FDDAF8243000221A60039BA04A002BBDBF01232360039B0023BCBF23F000430393DDF80C80A8BF236028F000431B0D1B0593421DD142F20F73209A136050
:40664000029B43B9934A944BC8F31300002814BF1846104600E09048229B002B00F04685C37813B100F1080300E0C31C229A136000F03CBDDDE902450022002320462946F4
:40668000FEF77AFE074658B1209A01231360229B002B00F01E8581481860013800F026BD12AB019313AB009322462B46504600F0C5FFC8F30A56049056B1C5F3130343F082
:4066C0007F51204641F44011A6F2FF3611971DE0139B129E1E4406F23243202B0ADD029A06F21240C3F1400322FA00F008FA03F3184304E0C3F12000029B03FA00F0FEF79A
:406700005DFB0123A1F1F871013E11930022644BFEF716FA58A3D3E90023FEF7C5FB58A3D3E90023FEF70EFA044630460D46FEF755FB55A3D3E90023FEF7B6FB02460B4655
:4067400020462946FEF7FEF904460D4601F03EFA00228346002320462946FEF717FE58B15846FEF73BFB02460B4620462946FEF703FE08B90BF1FF3BBBF1160F0DD8DDE9FC
:406780000223484901EBCB01D1E90001FEF71CFE30B10BF1FF3B002300E00123109300E01090129B9E1B731E079343BFC3F10008002307934FF00008BBF1000F06DB079BAF
:4067C000CDF82CB05B440793002705E00023CBEB0808CBF100070B931E9B092B28D8052BC4BF043B1E931E9BC8BF0025A3F10203D8BF0125032B20D8DFE803F0060E020424
:40680000012302E0012308E000230A931F9B002B1DDD9946059321E000230A931F9B0BEB030909F10103012B0593B8BF012315E0012500231E930A9501E001230A934FF0E7
:40684000FF390022CDF8149012231F9206E04FF001094B46CDF81490CDF87C90DAF8244000226260042101F114029A421CD86268490001326260F6E761436F63A787D23FC4
:40688000B3C8608B288AC63FFB799F501344D33F0000F07F458300004E830000218200000000F83F608300006168504600F03EFCDAF8243020601B680693059B0E2B00F214
:4068C0005B81002D00F05881DDE90234BBF1000FCDE90E3430DD9F4A0BF00F034FEA2B1502EBC303E80618CBCDE908340CD5DDE90E01994B05F00F05D3E90823FEF7FEFBAD
:406900000324CDE9020100E00224934E6DB1E90708D5DDE90801D6E90023FEF7C5FACDE9080101346D100836F0E7DDE90823DDE90201FEF7E3FB20E0CBF1000505B3DDE9EE
:406940000E01844B05F00F0203EBC203D3E90023FEF7AAFACDE902017F4E2D110023022455B1EA0705D5D6E90023FEF79DFA013401236D100836F3E71BB1CDE9020100E069
:406980000224109BE3B1DDE902560022734B28463146FEF7FBFC98B1059B8BB1B9F1000F40F3E6800BF1FF330893314600226C4B2846FEF779FA0134CDE902014E4602E0D9
:4069C000059ECDF820B02046FEF708FADDE90223FEF76AFA634B0022FEF7B4F8A1F1507304460C931D46D6B9DDE9020100225E4BFEF7A6F822460C9BCDE90201FEF7E4FC59
:406A0000002840F03F820C99224601F10043DDE90201FEF7BBFC002840F02B82A8E00A9A4C4B711E002A49D003EBC103D3E9002300204E49FEF762FB22462B46FEF780F80C
:406A4000CDE90C01069CDDE9020101F0BFF80546FEF7C4F902460B46DDE90201FEF770F8DDE90C23303504F8015BCDE90201FEF78DFC002840F01D83DDE902230020374918
:406A8000FEF75EF8DDE90C23FEF780FC002840F0D180069BE31AB3426ADADDE90C0100222F4BFEF701FA0022CDE90C01DDE902012B4BFEF7F9F9CDE90201C4E703EBC10127
:406AC0002246D1E900012B46FEF7EEF9069BCDE90C011D469C19DDE9020101F077F80646FEF77CF902460B46DDE90201FEF728F8303605F8016BAC42CDE902014FF000029D
:406B000022D11A4BDDE90C01FEF71CF802460B46DDE90201FEF758FC002840F08B80DDE90C2300201149FEF70BF802460B46DDE90201FEF72BFCD8B114F8013C621E302B81
:406B400040F0B7821446F7E7054BFEF7ADF9CDE90201C0E760830000388400000000F03F0000244000001C40000014400000E03FDDE90E34CDE90234139B002B7CDBBBF158
:406B80000E0F79DCAB4B03EBCB03D3E900671F9B002B14DA059B002B11DC40F06C810022A54B30463946FEF77FF9DDE90223FEF701FC059D2E46002840F05F8165E1069C5F
:406BC000DDE9028932463B4640464946FEF796FA00F0FCFF0546FEF701F932463B46FEF763F90B46024649464046FDF7A9FF05F1300E069B04F801EBC3EB040E059B734523
:406C00002DD102460B46FDF79DFF8046894602460B4630463946FEF7B9FB78B942464B4630463946FEF7A8FB002800F04482EB0704D440E2DDF820B000E01C4614F8012CA0
:406C4000631E392A07D1069A9A42F6D1069930220BF1010B0A701A7801321A702BE20022764BFEF721F90022002380468946FEF783FB0028A6D01EE20A9A002A2BD01E9AE8
:406C8000012A0ADC119A12B103F2334302E0129BC3F136033D46444613E0059B5D1EAF42BFBF0B9BEA1B9B180B93059BB6BF2F467D1B0025002BA7BF4446059BC3EB08042C
:406CC0000023079A01211A4450469844079200F001FB064602E03D4644460A9E5CB1079B002B08DDA342A8BF2346079AC3EB0808E41AD31A0793002F1DDD0A9BABB18DB1B6
:406D000031462A46504600F07FFB049A01460646504600F0E8FA04990890504600F03BFA089B04937A1B06D000E03A460499504600F06AFB04900121504600F0CBFA0B9BAF
:406D400005465BB31A460146504600F05DFB1E9B0546012B18DC029B83B9039BC3F3130373B9039B23F000473F0D3F054FB1079B08F1010801330793012702E0002700E097
:406D8000029F0B9B73B100E000272B6905EB8303186900F052FAC0F1200004E01E9B012BD9DD0B9F0120079B184410F01F0008D0C0F12003042B02DDC0F11C0002E006D023
:406DC00018461C30079B8044034404440793B8F1000F05DD42460499504600F063FB0490079B002B05DD29461A46504600F05AFB0546109B23B32946049800F0A4FB00283C
:406E00001EDA00230A220499504600F0DBF90A9B0BF1FF3B0490002B00F05F81314600230A22504600F0CEF9B9F1000F06463FDC3BE000BF60830000000014400000244002
:406E4000059B002B2BDC1E9B022B28DDDDF81490B9F1000F11D129464B460522504600F0B1F901460546049800F06DFB00280CDC03E0354600E000252E461F9B069C6FEAC8
:406E8000030B09E03546DDF820B0069B069A5C1C312313700BF1010B05960026F7E00A9BDDF8149023B9069CB2E01E9B022BCFDC002C05DD31462246504600F0F3FA064620
:406EC0009FB17168504600F031F90446326906F10C01023292000C30FEF780FD01222146504600F0DFFA059000E00596029B069F03F00103079329460498FFF7D7FA314647
:406F0000044600F13008049800F01DFB059A02902946504600F033FBC36802463BB901460A90049800F00FFB0A9A034600E00123114650460A9300F02EF90A9B53B91E9A0D
:406F400042B9079A32B9B8F1390F2AD0029B002B1CDC1DE0029A002A04DB1BD11E9ACAB9079ABAB9002B13DD01220499504600F099FA2946049000F0E6FA002803DC07D15C
:406F800018F0010F04D0B8F1390F0AD004F131087C1C0CE0002B07F101040BDDB8F1390F03D139233B70013756E008F1010887F800806CE0069B2746E31A4B4504F8018CAD
:406FC0003BD000230A220499504600F0FBF8059B04909E424FF00A024FF000033146504604D100F0EFF80646059084E700F0EAF8002306460A220599504600F0E3F805907A
:4070000079E700230A220499504600F0DBF8049029460498FFF74AFA069B00F1300804F8018BE31A4B45ECDB069B0596B9F1010FACBF4B4401331F46002601220499504627
:4070400000F030FA2946049000F07DFA002803DC15D118F0010F12D03C4614F8013C621E392B09D1069B934204D10BF1010B3123069A02E01446F0E70133137007E03C46A2
:4070800014F8013C621E302B01D11446F8E72946504600F080F8059B6BB12EB19E4203D03146504600F077F80599504600F073F801E0DDF820B00499504600F06CF80023BB
:4070C000209A23700BF101031360229B1BB11C6001E008480AE0069808E0B9F1000F3FF7E2AE1E9B022B7FF7DEAEB1E615B0BDE8F08F00BF20820000004870476481FF1FE0
:40710000024B0146186800F041BB00BF5C81FF1F10B5C9B202449042034605D01C7801308C42F8D1184610BD002010BD70B5456A04460E463DB91020FFF7E2FF60624560D5
:4071400085600560C560656AEB6843B1636ADB6853F8260078B1026843F8262017E021220421204600F0B8FA636AE860DB68002BECD1002070BD012101FA06F56A1D9200D0
:40718000204600F0A9FA0028F3D04660856000230361C36070BD70B5446A06460D463CB91020FFF7ADFF7062446084600460C4603DB1736A6A68DB6853F82210296043F84D
:4071C000225070BD2DE9F04106460C460D691F4601F1140E0023DEF80000013381B202FB0171000C0F0C02FB007089B201EB00419D424FEA10474EF8041BECDCD7B1A36822
:407200009D4212DB616830460131FFF78FFF8046226904F10C01023292000C30FEF7DEFB21463046FFF7B7FF444604EB850301355F6125612046BDE8F081030C1B0413B9EE
